:020000040800F2
:10000000005000200D340008C1310008C93100083B
:10001000D1310008D9310008E131000800000000AA
:10002000000000000000000000000000E9310008AE
:10003000F531000800000000013200080D32000810
:10004000553400085534000855340008553400086C
:10005000553400085534000819320008553400089A
:10006000553400085534000855340008553400084C
:10007000553400085534000855340008553400083C
:10008000553400085534000855340008553400082C
:10009000352600085534000855340008553400084A
:1000A000553400085534000855340008553400080C
:1000B00055340008553400085534000855340008FC
:1000C00055340008553400085534000855340008EC
:1000D00055340008553400085534000855340008DC
:1000E000553400085534000855340008000000005D
:1000F0000000000000000000000000000000000000
:0C01000000000000000000005FF808F1A3
:1001100010B5054C237833B9044B13B10448AFF341
:1001200000800123237010BDD401002000000000D6
:10013000C4AA000808B5034B1BB103490348AFF339
:10014000008008BD00000000D8010020C4AA0008FB
:10015000034613F8012B002AFBD1181A0138704707
:1001600081F0004102E000BF83F0004330B54FEA68
:1001700041044FEA430594EA050F08BF90EA020FD5
:100180001FBF54EA000C55EA020C7FEA645C7FEA68
:10019000655C00F0E2804FEA5454D4EB5555B8BF8B
:1001A0006D420CDD2C4480EA020281EA030382EAFC
:1001B000000083EA010180EA020281EA0303362D8E
:1001C00088BF30BD11F0004F4FEA01314FF4801C61
:1001D0004CEA113102D0404261EB410113F0004F73
:1001E0004FEA03334CEA133302D0524263EB43032A
:1001F00094EA050F00F0A780A4F10104D5F1200EC8
:100200000DDB02FA0EFC22FA05F2801841F1000122
:1002100003FA0EF2801843FA05F359410EE0A5F1F6
:1002200020050EF1200E012A03FA0EFC28BF4CF027
:10023000020C43FA05F3C01851EBE37101F00045DD
:1002400007D54FF0000EDCF1000C7EEB00006EEBEA
:100250000101B1F5801F1BD3B1F5001F0CD3490874
:100260005FEA30004FEA3C0C04F101044FEA4452CB
:1002700012F5800F80F09A80BCF1004F08BF5FEA52
:10028000500C50F1000041EB045141EA050130BD32
:100290005FEA4C0C404141EB0101013C28BFB1F544
:1002A000801FE9D291F0000F04BF01460020B1FA8F
:1002B00081F308BF2033A3F10B03B3F120020CDA62
:1002C0000C3208DD02F1140CC2F10C0201FA0CF040
:1002D00021FA02F10CE002F11402D8BFC2F1200CA5
:1002E00001FA02F120FA0CFCDCBF41EA0C0190405B
:1002F000E41AA2BF01EB0451294330BD6FEA0404A4
:100300001F3C1CDA0C340EDC04F11404C4F120028E
:1003100020FA04F001FA02F340EA030021FA04F3A0
:1003200045EA030130BDC4F10C04C4F1200220FAF7
:1003300002F001FA04F340EA0300294630BD21FA35
:1003400004F0294630BD94F0000F83F4801306BFFB
:1003500081F480110134013D4EE77FEA645C18BFEF
:100360007FEA655C29D094EA050F08BF90EA020F86
:1003700005D054EA000C04BF1946104630BD91EA7E
:10038000030F1EBF0021002030BD5FEA545C05D181
:100390004000494128BF41F0004130BD14F58004C0
:1003A0003CBF01F5801130BD01F0004545F0FE4134
:1003B00041F470014FF0000030BD7FEA645C1ABF69
:1003C000194610467FEA655C1CBF0B46024650EAA0
:1003D000013406BF52EA033591EA030F41F40021CC
:1003E00030BD00BF90F0000F04BF0021704730B552
:1003F0004FF4806404F132044FF000054FF0000127
:1004000050E700BF90F0000F04BF0021704730B5E7
:100410004FF4806404F1320410F0004548BF4042BC
:100420004FF000013EE700BF42004FEAE2014FEA11
:1004300031014FEA02701FBF12F07F4393F07F4FEC
:1004400081F06051704732F07F4208BF704793F0EF
:100450007F4F04BF41F40021704730B54FF4607402
:1004600001F0004521F000411CE700BF50EA010205
:1004700008BF704730B54FF000050AE050EA0102AE
:1004800008BF704730B511F0004502D5404261EB1E
:1004900041014FF4806404F132045FEA915C3FF45F
:1004A000D8AE4FF003025FEADC0C18BF03325FEAFC
:1004B000DC0C18BF033202EBDC02C2F1200300FAAD
:1004C00003FC20FA02F001FA03FE40EA0E0021FAD2
:1004D00002F11444BDE600BF70B54FF0FF0C4CF4C0
:1004E000E06C1CEA11541DBF1CEA135594EA0C0F72
:1004F00095EA0C0F00F0DEF82C4481EA030621EAAD
:100500004C5123EA4C5350EA013518BF52EA0335E7
:1005100041F4801143F4801338D0A0FB02CE4FF099
:100520000005E1FB02E506F00042E0FB03E54FF0C9
:100530000006E1FB03569CF0000F18BF4EF0010EC1
:10054000A4F1FF04B6F5007F64F5407404D25FEABD
:100550004E0E6D4146EB060642EAC62141EA555170
:100560004FEAC52040EA5E504FEACE2EB4F1FD0CB2
:1005700088BFBCF5E06F1ED8BEF1004F08BF5FEA30
:10058000500E50F1000041EB045170BD06F00046E2
:1005900046EA010140EA020081EA0301B4EB5C048F
:1005A000C2BFD4EB0C0541EA045170BD41F4801187
:1005B0004FF0000E013C00F3AB8014F1360FDEBFAC
:1005C000002001F0004170BDC4F10004203C35DA88
:1005D0000C341BDC04F11404C4F1200500FA05F30B
:1005E00020FA04F001FA05F240EA020001F00042AC
:1005F00021F0004110EBD37021FA04F642EB060122
:100600005EEA430E08BF20EAD37070BDC4F10C044B
:10061000C4F1200500FA04F320FA05F001FA04F20F
:1006200040EA020001F0004110EBD37041F10001FB
:100630005EEA430E08BF20EAD37070BDC4F1200506
:1006400000FA05F24EEA020E20FA04F301FA05F26E
:1006500043EA020321FA04F001F0004121FA04F216
:1006600020EA020000EBD3705EEA430E08BF20EAE6
:10067000D37070BD94F0000F0FD101F00046400020
:1006800041EB010111F4801F08BF013CF7D041EAA2
:10069000060195F0000F18BF704703F000465200A6
:1006A00043EB030313F4801F08BF013DF7D043EA77
:1006B0000603704794EA0C0F0CEA135518BF95EA2D
:1006C0000C0F0CD050EA410618BF52EA4306D1D1B4
:1006D00081EA030101F000414FF0000070BD50EAD3
:1006E000410606BF1046194652EA430619D094EA5D
:1006F0000C0F02D150EA013613D195EA0C0F05D147
:1007000052EA03361CBF104619460AD181EA03019A
:1007100001F0004141F0FE4141F470014FF0000052
:1007200070BD41F0FE4141F4780170BD70B54FF0ED
:10073000FF0C4CF4E06C1CEA11541DBF1CEA13556D
:1007400094EA0C0F95EA0C0F00F0A7F8A4EB05044F
:1007500081EA030E52EA03354FEA013100F0888046
:100760004FEA03334FF0805545EA131343EA12630F
:100770004FEA022245EA111545EA10654FEA0026C4
:100780000EF000419D4208BF964244F1FD0404F57D
:10079000407402D25B084FEA3202B61A65EB0305D9
:1007A0005B084FEA32024FF480104FF4002CB6EB96
:1007B000020E75EB030E22BFB61A754640EA0C0016
:1007C0005B084FEA3202B6EB020E75EB030E22BF56
:1007D000B61A754640EA5C005B084FEA3202B6EB97
:1007E000020E75EB030E22BFB61A754640EA9C0056
:1007F0005B084FEA3202B6EB020E75EB030E22BF26
:10080000B61A754640EADC0055EA060E18D04FEAE3
:10081000051545EA16754FEA06164FEAC30343EA83
:1008200052734FEAC2025FEA1C1CC0D111F4801F50
:100830000BD141EA00014FF000004FF0004CB6E749
:1008400011F4801F04BF01430020B4F1FD0C88BFE8
:10085000BCF5E06F3FF6AFAEB5EB030C04BFB6EBF3
:10086000020C5FEA500C50F1000041EB045170BDE6
:100870000EF0004E4EEA113114EB5C04C2BFD4EB13
:100880000C0541EA045170BD41F480114FF0000E97
:10089000013C90E645EA060E8DE60CEA135594EA13
:1008A0000C0F08BF95EA0C0F3FF43BAF94EA0C0F16
:1008B0000AD150EA01347FF434AF95EA0C0F7FF48B
:1008C00025AF104619462CE795EA0C0F06D152EADF
:1008D00003353FF4FDAE1046194622E750EA4106C3
:1008E00018BF52EA43067FF4C5AE50EA41047FF4D4
:1008F0000DAF52EA43057FF4EBAE12E74FF0FF3C39
:1009000006E000BF4FF0010C02E000BF4FF0010C09
:100910004DF804CD4FEA410C7FEA6C5C4FEA430C82
:1009200018BF7FEA6C5C1BD001B050EA410C0CBFD1
:1009300052EA430C91EA030F02BF90EA020F002033
:10094000704710F1000F91EA030F58BF994208BF9A
:1009500090422CBFD8176FEAE37040F00100704757
:100960004FEA410C7FEA6C5C02D150EA013C07D1AE
:100970004FEA430C7FEA6C5CD6D152EA033CD3D0F9
:100980005DF8040B704700BF8446104662468C46F3
:100990001946634600E000BF01B5FFF7B7FF002826
:1009A00048BF10F1000F01BD4DF808EDFFF7F4FF4F
:1009B0000CBF012000205DF808FB00BF4DF808EDDA
:1009C000FFF7EAFF34BF012000205DF808FB00BFFD
:1009D0004DF808EDFFF7E0FF94BF012000205DF81F
:1009E00008FB00BF4DF808EDFFF7CEFF94BF0120D4
:1009F00000205DF808FB00BF4DF808EDFFF7C4FFCD
:100A000034BF012000205DF808FB00BF4FEA410C15
:100A10007FEA6C5C02D150EA013C0AD14FEA430CF8
:100A20007FEA6C5C02D152EA033C02D14FF0000035
:100A300070474FF0010070474FEA410212F5001273
:100A400015D211D56FF47873B3EB625212D94FEA15
:100A5000C12343F0004343EA505311F0004F23FAFF
:100A600002F018BF404270474FF00000704750EA54
:100A7000013005D111F0004008BF6FF00040704711
:100A80004FF00000704700BF4A0011D212F500126B
:100A900011D20DD56FF47873B3EB62520ED44FEAD6
:100AA000C12343F0004343EA505323FA02F0704756
:100AB0004FF00000704750EA013002D14FF0FF3094
:100AC00070474FF0000070474FEA4102B2F1E04337
:100AD00024BFB3F5001CDCF1FE5C0DD901F0004C25
:100AE0004FEAC0024CEA5070B2F1004F40EB830075
:100AF00008BF20F00100704711F0804F21D113F1A1
:100B00003872BCBF01F00040704741F480114FEAD9
:100B10005252C2F11802C2F1200C10FA0CF320FA62
:100B200002F018BF40F001004FEAC1234FEAD3237F
:100B300003FA0CFC40EA0C0023FA02F34FEA4303E9
:100B4000CCE77FEA625307D150EA01331EBF4FF072
:100B5000FE4040F44000704701F0004040F0FE408D
:100B600040F40000704700BF38B50022002304465F
:100B70000D46FFF723FF28B920462946BDE8384037
:100B800000F00AB8204605F1004100F005F84042A7
:100B900061EB410138BD00BFD0B500220B4B0646CA
:100BA0000F46FFF799FCFFF76FFF0446FFF71AFCAB
:100BB0000022074BFFF790FC02460B4630463946B1
:100BC000FFF7D2FAFFF760FF2146D0BD0000F03DED
:100BD0000000F04180B485B000AF78600B46FB7038
:100BE0000023FB607B68BB6007E0BB68FB60FB78B1
:100BF000BA689B0013445B68BB60BB68002BF4D1F0
:100C0000FB6818461437BD4680BC704780B584B079
:100C100000AF78600B46FB707B68002B14D0FB782C
:100C200083F00103DBB27A689B0013445B68002BFE
:100C30000AD07B6893F90C30B3F1FF3F04DB7B688B
:100C400093F90C30012B05DD2A4B2B4A62212B48EE
:100C500005F0C4FBFB7883F00103DBB27A689B00EC
:100C600013445B68FB607B681B68002B0ED07B68BD
:100C70001A687B681B689B68796899420CBF0123DE
:100C80000023DBB29B001344FA685A607B681A6841
:100C9000FB681A607B68FA681A60FB78FA7882F061
:100CA0000102D2B21046FA689B0013445A68796870
:100CB00083000B445A60FB7883F00103DBB27A684F
:100CC0009B0013445B68002B09D0FB7883F0010381
:100CD000DBB27A689B0013445B687A681A60FB7821
:100CE000FA689B0013447A685A6000BF1037BD460B
:100CF00080BD00BFE0AA0008D4B9000838AB0008E6
:100D000080B586B000AF78600B46FB707B68002B27
:100D10000AD07B6893F90C30B3F1FF3F04DB7B68AA
:100D200093F90C30012B05DD614B624A7721624853
:100D300005F054FB7B687B617B6893F90C30DBB278
:100D4000FA78002A01D0012200E0FF221344DBB22E
:100D5000FB7497F91330B3F1FF3F04DB97F91330BD
:100D6000012B40F39C80FB7CDB09BB74BB7C002B1C
:100D700001D0012301E04FF0FF337B74BB7C83F093
:100D80000103DBB27A689B0013445B68FB60FB687D
:100D9000002B05D1494B474A7F21474805F01EFBF0
:100DA000FB6893F90C301A4697F9113002FB03F3F4
:100DB000002B1CDCFB687B61BB7C19467868FFF765
:100DC00025FFFB6893F90C30002B09D17B7C5B423B
:100DD000DBB25AB27B681A73FB687A7C1A7361E0E3
:100DE0007B6800221A73FB6800221A735AE0BB7CEE
:100DF000FA689B0013445B68BB60BB68002B05D19D
:100E00002F4B2C4A92212C4805F0E8FABB687B61F5
:100E1000BB7C002B14BF01230023DBB283F0010352
:100E2000DBB203F00103DBB21946F868FFF7EEFE10
:100E3000BB7C19467868FFF7E9FEBB6893F90C3074
:100E40001A4697F9113002FB03F3002B09DA7B688D
:100E50007A7C1A73BB6800221A73FB6800221A732B
:100E600020E0BB6893F90C301A4697F9113002FB69
:100E700003F3002B0CDD7B6800221A73BB68002291
:100E80001A737B7C5B42DBB25AB2FB681A7309E0CF
:100E90007B6800221A73FB6800221A7302E07B68E9
:100EA000FA7C1A737B6918461837BD4680BD00BFAF
:100EB00054AB0008B8B9000838AB00088CAB000888
:100EC000A0AB000880B586B000AF78607B68002BCF
:100ED00004D07B6893F90C30002B05D0234B244AB7
:100EE000B521244805F07AFA7B687B617B681B6832
:100EF0003B6123E03B699B687A699A420CBF0123FE
:100F00000023FB73FB7B3A699B0013445B687A699F
:100F10009A4205D0184B164ABB21164805F05EFAD6
:100F2000FB7B19463869FFF7EBFE78617B691B682C
:100F30003B617B6993F90C30002B03D03B69002B9C
:100F4000D8D100E000BF7B69002B05D10B4B084ACC
:100F5000C321084805F042FA3B69002B01D17B69A7
:100F600000E0002318461837BD4680BDB4AB00082A
:100F70009CB9000838AB0008E0AB0008F0AB0008F3
:100F800080B58AB000AFF860B9607A603B6000233A
:100F90007B62FB68002B65D07B68002B62D0FB680E
:100FA0001B683B62FB68FB612FE0FB691A687B688A
:100FB0001146B86898470346FB7697F91B30002B1B
:100FC00003D1FB691B687B6223E0FB691B683B6202
:100FD000FB691A6897F91B30002BCCBF0123002353
:100FE000DBB29B0013440433FB61FB691B68002BDD
:100FF0000BD0FB691B681B683A6A9A4205D01C4BF0
:101000001C4ADB211C4805F0E9F9FB691B68002B31
:10101000CBD17B6A002B25D13B68002B04D03B68E9
:10102000B8689847034600E000237B627B6A002B88
:1010300018D0FB697A6A1A607B6A00225A607B6A60
:1010400000229A607B6A3A6A1A607B6A00221A73ED
:10105000786AFFF737FF78617B69002B02D0FB6865
:101060007A691A607B6A18462837BD4680BD00BF82
:1010700004AC000890B9000838AB000880B588B00F
:1010800000AF786039607B68002B00F016813B6808
:10109000002B00F012817B681B68002B05D1894B67
:1010A000894AF621894805F099F93B681B68002BAD
:1010B0000AD17B681B683A689A4205D0844B824A01
:1010C000F721824805F08AF90023FB610023FB76B3
:1010D0003B685B68002B73D03B689B68002B6FD02C
:1010E0003B689B6800211846FFF774FD78617B69B7
:1010F000002B07D07B695B68002B03D17B691B68E1
:10110000002B05D1734B704AFF21704805F066F93A
:101110003B6893F90C207B691A733B685A687B69BA
:101120005A607B695B687A691A607B691B683A68F8
:101130009A4225D07B691B68FB61FB695B687A6911
:101140009A4206D0644B604A4FF483715F4805F0C1
:1011500045F97B699A68FB695A60FB695B68002BFB
:1011600003D0FB695B68FA691A603B689A687B691F
:101170009A607B699B687A691A600023FB7603E0BA
:101180007B69FB610123FB763B681A687B691A6007
:101190007B691B68002B0FD07B691A687B691B6811
:1011A0009B68396899420CBF01230023DBB29B0086
:1011B00013447A695A6046E07B687A691A6042E0B3
:1011C0003B681B68FB613B689B68002B14BF0123D5
:1011D0000023FB74FB7C3A689B0013445B68002B84
:1011E00006D0FB7C3A689B0013445B68FA691A607E
:1011F000FB69002B20D0FB699B683A689A420CBFC0
:1012000001230023FB76FB7CF87E3A689B001344A5
:101210005A68F96983000B445A60FB7EFA699B00A7
:1012200013445B68002B0ED0FB7EFA699B001344CD
:101230005B68FA691A6006E0FB7C3A689B0013441D
:101240005A687B681A60FB69002B36D00023FB606C
:10125000FB7E002B14BF01230023DBB283F00103CC
:10126000DBB203F00103DBB21946F869FFF748FD72
:10127000F860FB681B68FB61FB6893F90C30002B7E
:101280000BD1FB69002B08D0FB699B68FA689A4276
:101290000CBF01230023FB76DAE7FB69002B0CD19E
:1012A000FB68002B06D10D4B074A4FF4A471074889
:1012B00005F094F87B68FA681A6000BF2037BD46D5
:1012C00080BD00BF2CAC000818BA000838AB00087D
:1012D00044AC000874AC0008C4AC0008F0AB0008D3
:1012E00080B483B000AF78607B6818460C37BD4689
:1012F00080BC704780B483B000AF03460A46FB80D1
:1013000013467B71FB881B029AB2FB881B0A99B2B9
:101310007B799BB24B409BB2DBB2054931F813306D
:1013200053409BB218460C37BD4680BC704700BF87
:1013300068B6000880B588B000AF0346B9607A602F
:10134000FB817B68002B08D1BB68002B05D0124BBA
:10135000124A8921124805F041F8FB89FB837B681A
:10136000BB6100237B610EE0BB691A78FB8B1146E1
:101370001846FFF7BFFF0346FB83BB690133BB6120
:101380007B6901337B617A69BB689A42ECD3FB8B42
:1013900018462037BD4680BDD4AC0008E4B800082C
:1013A000FCAC000880B584B000AF03460A46FB8061
:1013B00013467B7197F90530002B05DA0E4B0F4A67
:1013C000AB210F4805F00AF8FB88B3F5005F05D3A1
:1013D0000C4B0A4AAC210A4805F000F8FB8843F49C
:1013E000C0439BB2FB607A79FB681B02134318462B
:1013F0001037BD4680BD00BF14AD0008ECB8000832
:10140000FCAC000828AD000890B583B000AF0446DE
:10141000084611461A462346FB8003467B710B465D
:101420003B711346FB7097F90430002B05DA174B1C
:10143000174AB621174804F0D1FF97F90330002B63
:1014400005DA154B124AB721124804F0C7FFFB8892
:10145000B3F5007F05D3114B0D4AB8210D4804F0B8
:10146000BDFF3A79FB78DB011A43FB889B031343EA
:101470007A79002A02D04FF0807200E000221343F4
:1014800043F0007318460C37BD4690BD14AD0008FC
:101490000CB90008FCAC00083CAD000850AD0008D9
:1014A00080B485B000AF78604023BB600023FB6050
:1014B0007B68072B02D80823FB6014E07A68BB68BE
:1014C0009A4208D80B4A7B6813441B781A460A4B89
:1014D0009B5CFB6007E0074ABB6813441B781A4615
:1014E000054B9B5CFB60FB68013B18461437BD460F
:1014F00080BC704778B8000868B8000880B58AB02A
:1015000000AFF860B9607A60FB70FB68002B05D112
:10151000604B614AD821614804F060FF3B6B002BAF
:1015200005D15F4B5C4AD9215C4804F057FF6FF04E
:1015300001037B62FB685B78002B57D1FB681B794A
:10154000FF2B53D1FB685B88B3F5005F4ED297F950
:101550000330002B11DBFB685B88FA7811461846D4
:10156000FFF720FF03467B627B6A002B75DA4D4B49
:10157000494AE121494804F031FFBA683B6B9A427D
:1015800030D87B68002B08D1BB68002B05D0464BB8
:10159000414AE521414804F021FF7A68B9684FF6D5
:1015A000FF70FFF7C7FE0346DBB203F07F0387F847
:1015B0002330FB685B8897F8232011461846FFF715
:1015C000F1FE034643F08073FB61FB69B3F1005FFA
:1015D00005D3364B304AE821304804F0FFFEFB6962
:1015E0007B623AE06FF001037B6236E0FB685B7878
:1015F000022B03D0FB685B78012B2AD1FB681B7997
:101600005BB2002B25DBFB685B88B3F5007F20D243
:1016100097F90330002B18DBFB685888FB685B7870
:10162000022B0CBF01230023D9B2FB681B79FA7887
:10163000FFF7EAFE03467B627B6A002B0FDA194B49
:10164000154AF921154804F0C9FE6FF001037B62C9
:1016500005E06FF001037B6202E000BF00E000BF25
:101660007B6A002B10DBFB681B78BB61BB69072B17
:1016700007D8BB699A067B6A13437B617B697B62EF
:1016800002E06FF001037B627B6A18462837BD4693
:1016900080BD00BF64AD0008D8B80008FCAC0008ED
:1016A00078AD000894AD0008A0AD0008D4AD0008E6
:1016B00090B583B000AF0446084611461A4623464B
:1016C000FB710346BB710B467B7113463B71FB7983
:1016D000002B09D07B79012B06D0134B134A4FF412
:1016E0008D71134804F07AFEFB79002B01D0802223
:1016F00000E00022BB79002B01D0402300E0002352
:101700001343DBB27A79002A01D0202200E00022C4
:101710001343DAB23B7903F01F03DBB21343DBB2AE
:1017200018460C37BD4690BDF0AD000880B90008E2
:10173000FCAC000880B584B000AF78607B68402BBB
:1017400006D90F4B0F4A40F223110F4804F046FE12
:101750000E4A7B6813441B78FB60FB680F2B06D98D
:101760000B4B084A4FF49371074804F037FE094ABF
:10177000FB6813441B7818461037BD4680BD00BF78
:1017800018AE000850B90008FCAC000878B8000892
:1017900060AE000868B8000880B586B000AFF86099
:1017A000B960C7E90023FB68002B06D11F4B204A14
:1017B0004FF498711F4804F011FE3B6A002B06D1CC
:1017C0001D4B1B4A40F231111A4804F007FEFB681A
:1017D0009B683A6A30321146F868984778617B69AD
:1017E000002B1ED07B6900221A607B6900225A60A0
:1017F0007B6900229A607B6900221A737B69002250
:101800001A617969D7E90023C1E906237B693A6A3D
:101810005A627B6903F130027B699A627B69BA681C
:101820001A627B6918461837BD4680BDA8AE00080D
:101830006CB90008FCAC0008BCAE000880B584B0F0
:1018400000AF786039607B68FB603B68BB60FB6819
:10185000002B02D0BB68002B06D10A4B0A4A4FF47A
:10186000A6710A4804F0BAFDFB681A6ABB681B6AD5
:101870009A4201D3012301E04FF0FF33184610379D
:10188000BD4680BDD0AE000840B90008FCAC0008E1
:1018900090B58DB002AFF860B960C7E90023BB68AE
:1018A000002B06D15C4B5D4A40F259115C4804F0B4
:1018B00095FD7B6C002B09D13B6C002B06D0594B5E
:1018C000564A4FF4AD71564804F088FD3B6C013325
:1018D0001846FFF72FFF38623A6A3B6C9A4206D8E7
:1018E000514B4E4A4FF4AE714D4804F077FD3A6AC1
:1018F0003B6CD31A013BFB61FA693B6C1344013327
:101900003A6A9A4206D0494B444A4FF4AF71444870
:1019100004F064FD00237B62FB689A68FB681B6827
:101920009A4209D23B6A0093D7E90023B96BB868A1
:10193000FFF732FF034600E00023BB61BB69002BC9
:1019400054D03B6C002B10D07B6C002B06D1384B55
:10195000324A4FF4B371324804F040FDBB69303372
:101960003A6C796C184605F066FE3B6C3033BA6908
:101970001344FA690021184605F0BFFD3B6A5C1E5E
:1019800097F83C30012201210120FFF791FE034628
:101990001A46BB69234483F83020FB6803F10C002E
:1019A000B969244B244AFFF7EBFA7861BB697A697D
:1019B0009A4206D0214B194A4FF4B971184804F0E5
:1019C0000DFDFB689B685A1CFB689A60FB689A686F
:1019D000FB681B689A4206D9194B104A4FF4BA713A
:1019E0000F4804F0FBFC01237B6202E06FF002036E
:1019F0007B627B6A002B09DB7B6A012B06D0114BD3
:101A0000064A40F27B11064804F0E8FC7B6A18465F
:101A10002C37BD4690BD00BFA8AE00082CB9000809
:101A2000FCAC000804AF000834AF000858AF000851
:101A300094AF0008E11200083D180008ACAF0008A0
:101A4000C4AF0008E0AF000890B593B002AFF860F3
:101A5000B9607A60BB68002B06D1934B934A4FF470
:101A6000C471934804F0BAFC7B68002B06D1914BFB
:101A70008E4A40F289118E4804F0B0FC3A6E7B68C1
:101A80009A4206D88C4B894A4FF4C571884804F0B5
:101A9000A5FC7B6E002B06D1884B844A40F28B114B
:101AA000834804F09BFC00233B6100237B610023FF
:101AB000BB613B6E0233BB620023FB637A6E396EFF
:101AC0004FF6FF70FFF736FC03467B87012387F84C
:101AD00039307B6E7B63D4E0BB690133BB61BA6A8A
:101AE000FB6BD31A7A689A4208D9BA6AFB6BD31A8D
:101AF00001331846FFF71EFE034601E07B68013301
:101B00007B627B6A0093D7E91423B96DB868FFF74D
:101B100043FE38623B69002B02D13B6A3B6102E025
:101B20007B693A6A1A613B6A7B617B69002B00F032
:101B3000AE807B6A013BFB6100233B63FA6B3B6E2B
:101B40009A421CD23A6EFB6BD31AFB62FA6AFB69AB
:101B50009A4201D9FB69FB627B693033FA6A796B7F
:101B6000184605F068FD3A6BFB6A13443B63FA6B59
:101B7000FB6A1344FB637A6BFB6A13447B63FA6B67
:101B80003B6E9A4243D30FE07A693B6B1344303388
:101B900000221A703B6B01333B637B8F0021184698
:101BA000FFF7A8FB03467B873B6B0233FA699A4237
:101BB000EAD83A6BFB699A4213D2FA6B3B6E9A42AF
:101BC0000FD17B8F1B0A9BB27A69D9B23B6B13444E
:101BD00030330A461A703B6B01333B63FB6B0133B6
:101BE000FB633A6BFB699A4211D2FA6B3B6E9A42E5
:101BF0000DD97A697B8FD9B23B6B134430330A46D7
:101C00001A703B6B01333B63FB6B0133FB633B6B34
:101C10005A1C7B695B6A9A4206D0294B234A4FF4CF
:101C2000ED71234804F0DAFB3A697B699A420CBFF4
:101C300001230023D8B2FA6BBB6A9A422CBF01235E
:101C40000023D9B27C6997F85C3097F83920FFF708
:101C50002FFD03461A463B6B234430331A7097F826
:101C60003930002B14BF01230023DBB283F00103C2
:101C7000DBB287F8393097F8393003F0010387F881
:101C80003930FA6BBB6A9A42FFF426AF00E000BF1E
:101C9000FB681C4607F1100393E8070084E807007F
:101CA000F8684437BD4690BDA8AE0008FCB90008EE
:101CB000FCAC0008F8AF000814B0000894AF0008AE
:101CC0003CB0000880B594B006AFF860B9607A60A7
:101CD000BB68002B02D0FB68002B06D1654B664A1F
:101CE00040F2ED11654804F079FB7B68002B06D1CA
:101CF000634B614A4FF4F771604804F06FFB3A6D33
:101D00007B689A4206D85F4B5B4A40F2EF115B4812
:101D100004F064FB00237B633B6D0233BB62BA6A51
:101D20007B6813445A1E7B68B2FBF3F37B627B6AC9
:101D3000012B06D8544B504A4FF4FA714F4804F027
:101D40004DFBFB689A687B6A1A44FB681B689A42E1
:101D50007BD807F110007B6D05933B6D049397F8DA
:101D60004C300393BB6C0293D7E91023CDE90023D9
:101D70007A68B968FFF768FE7B69002B51D03B6930
:101D80003B63FB6803F10C00396B404B404AFFF7A3
:101D9000F7F8F8613B6BFA699A4206D03D4B364A38
:101DA00040F20621354804F019FBFB68DB68002B84
:101DB00006D1394B304A40F20721304804F00EFB7F
:101DC0003B6B1B693B633B6B002BDAD1BB697A6AC7
:101DD0009A4206D0314B284A40F20A21274804F0A3
:101DE000FDFAFB689A68BB691A44FB689A60FB6855
:101DF0009A68FB681B689A4206D9294B1E4A4FF421
:101E000003711E4804F0EAFABB69002B06DA254B81
:101E1000194A40F20D21194804F0E0FABB697B63CE
:101E200016E06FF002037B633B69FB6209E0FB6A2B
:101E30001B693B62BB68DB68F96AB86898473B6A14
:101E4000FB62FB6A002BF2D102E06FF002037B63BE
:101E50007B6B002B09DB7B6B012B06DC124B064AEC
:101E60004FF40871054804F0B9FA7B6B184638370F
:101E7000BD4680BD78B00008E8B90008FCAC000899
:101E8000F8AF000814B00008A8B00008E11200087C
:101E90003D180008B8B00008CCB00008E8B0000851
:101EA000C4AF000800B1000824B1000880B485B0B8
:101EB00000AF786039607B681B88FB813B689B8B37
:101EC000BB81FA89BB899A420AD0FA89BB899A42B6
:101ED0008CBF01230023DBB21A46044B9B5600E063
:101EE000002318461437BD4680BC704724BA00084A
:101EF00080B582B000AF786039607B681C33396888
:101F00001846FFF7D3FF034618460837BD4680BD85
:101F1000B0B58CB000AFF860B9607A60BB68002BD8
:101F200006D1164B164A40F2F931164804F056FA1B
:101F30007B68002B06D1144B114A40F2FA3111484C
:101F400004F04CFA00237B61FF233B76BB68FB6106
:101F50007B683B6200237B620023BB620023FB6241
:101F6000FB681D4607F114040FCC0FC594E8070069
:101F700085E80700F8683037BD46B0BD8CB400086E
:101F8000BCB80008FCAC0008ACB40008B0B48BB01E
:101F900000AFF860B9607A60BB687B617B68BB6149
:101FA0000023FB6100233B6200237B62FB681D462C
:101FB00007F114040FCC0FC523682B60F8682C3789
:101FC000BD46B0BC7047000080B58EB006AFF8606B
:101FD000B960C7E900236FF00103FB61BB68002B08
:101FE00062D0FB68002B5FD0BB6A002B5CD03B6BE0
:101FF000002B02D1FB6A002B56D1FB685B681846A8
:10200000FFF74EFAB861BB681A79BB6900931346B3
:102010003A6BF96AB86AFFF771FA78617B69002B4D
:1020200040DBFA6ABB699A421CD87B69BA6A52796A
:10203000396B0391F96A029101920093D7E9002369
:10204000B968F868FFF724FCF861FB69002B2BDB0B
:10205000FB69012B28D01C4B1C4A4FF485611C489E
:1020600004F0BCF97B69BA6A5279396B0591F96A57
:10207000049103920293D7E90023CDE90023BA69C2
:10208000B968F868FFF71EFEF861FB69002B0BDBEF
:10209000FB69012B08DC0F4B0C4A40F234410C4821
:1020A00004F09CF97B69FB61FB69002B06D10A4BAC
:1020B000064A40F23C41064804F090F9FB69184694
:1020C0002037BD4680BD00BFE0AF0008C8B800089B
:1020D000FCAC000824B10008C8B4000880B584B086
:1020E00000AF78600023FB607B68002B06D07B6824
:1020F000DB6800211846FEF76DFDF860FB681846A6
:102100001037BD4680BD80B584B000AF78603960BF
:102110000023FB607B68002B10D03B68002B0DD0A8
:102120003B68FB607B680C333A6811461846FEF743
:10213000A5FF7B689B685A1E7B689A60FB681846FF
:102140001037BD4680BD000080B588B000AFF86094
:102150007B600B46FB7213463B81FE23FB77FB7AC9
:102160007B61FB68002B4AD03B6B002B47D07B691F
:10217000022B44D83A89FB7A1946F86800F050F8E7
:102180000346FB7797F91F30002B38DB396BD7E913
:102190000A23C1E904233B6B7A689A613B6B3A8955
:1021A0009A830023BB6109E03A6BBB6908339B004B
:1021B000134400225A60BB690133BB61BB697F2BAA
:1021C000F2D97B6904339B00FA68D0180F4B104A90
:1021D000396BFEF7D5FE38613B6B3A699A4206D0FF
:1021E0000C4B0D4A40F2B3410C4804F0F7F897F954
:1021F0001F30002BD4BF01230023DBB2FB7797F9FC
:102200001F3018462037BD4680BD00BFE1120008D0
:10221000F11E000800B5000828BA0008FCAC000850
:1022200080B588B000AF78600B46FB7013463B80EA
:10223000FE23FB77FB787B617B68002B5FD07B699B
:10224000022B5CD83B88FB817B6904339B007A6856
:10225000D01807F10E0100232C4AFEF791FE3861D9
:102260003B69002B49D07B6904339B007A68134497
:102270003A6911461846FEF701FF3B699B8B3A8885
:102280009A4206D0224B234A4FF49961224804F027
:10229000A5F80123FB770023BB612AE07B68DA689D
:1022A0003969BB6908339B000B445B68002B07D07E
:1022B0003969BB6908339B000B445B681B6900E00C
:1022C00000231946786890477B68DA683969BB69EA
:1022D00008339B000B445B681946786890473A695D
:1022E000BB6908339B00134400225A60BB69013369
:1022F000BB61BB697F2BD1D901E00023FB7797F944
:102300001F3018462037BD4680BD00BFAD1E0008F7
:1023100020B500083CBA0008FCAC000880B485B0C9
:1023200000AF0346FB80FB884FF47A7203FB02F296
:10233000074BA3FB0213D21A52081344DB0AFB819A
:10234000044AFB89536300BF1437BD4680BC704705
:1023500001011000002C014080B485B000AF03469D
:10236000FB80FB884FF47A7203FB02F2074BA3FB5E
:102370000213D21A52081344DB0AFB81044AFB8978
:10238000936300BF1437BD4680BC70470101100045
:10239000002C014080B485B000AF0346FB80FB8871
:1023A0004FF47A7203FB02F2074BA3FB0213D21A1B
:1023B00052081344DB0AFB81044AFB89D36300BF44
:1023C0001437BD4680BC704701011000002C01404D
:1023D00080B582B000AF78603960386804F01CF8CE
:1023E000034618460837BD4680BD80B582B000AFB1
:1023F00078603960386804F017F800BF0837BD46C8
:1024000080BD00002DE9B04F8CB004AFF860B9601A
:102410007A60FB7004233B7500237B75BB689BB21D
:10242000FB82FF233B76394B1B787B7601F06CF8FF
:10243000034600229846914642464B464FF0000024
:102440004FF00001590141EAD261500102460B46AA
:10245000B2EB080463EB09054FF000024FF00003F4
:10246000AB0043EA9473A20014461D4614EB080A1D
:1024700045EB090B4FF000024FF000034FEACB038E
:1024800043EA5A734FEACA0292469B46504659465F
:10249000FB787A680292019307F1140300930246D5
:1024A0000B46F9681A48FFF78FFDF861FB69002BAE
:1024B0000FDAFA691749184804F0ACFF1648FDF71F
:1024C00047FE03469AB264231349144803F007FEFB
:1024D00010E00E4B1B781A4611490F4804F09AFF82
:1024E0000D48FDF735FE03469AB264230A490B48AE
:1024F00003F0F5FD054B1B780133DAB2034B1A707C
:1025000000BF2037BD46BDE8B08F00BF8402002069
:102510007002002038B500080C020020C40300201F
:1025200058B5000880B588B000AF2C48FFF7D6FD3D
:10253000F8614BE02A4801F0FDFC0346002B31D046
:10254000FB695B6A3B610023BB600023FB6040F2D8
:1025500023133B60FB699A6A07F118033946204848
:1025600001F019FC0346002B0DD1F9691B48FFF758
:10257000CAFDF861BB691946194801F00FFD034611
:10258000002B1ED026E01749174804F043FF1648D9
:10259000FDF7DEFD03469AB264231349134803F0A6
:1025A0009EFD17E01249104804F034FF0E48FDF775
:1025B000CFFD03469AB264230B490C4803F08FFD0C
:1025C00008E0F9690548FFF79EFDF861FB69002BFB
:1025D000B0D1FFE700BF2037BD4680BD70020020AC
:1025E000B802002078B500080C020020C4030020C7
:1025F00094B5000880B584B000AF0B4BBB600B4AAC
:102600003B4692E803001860043319800523FB73EE
:10261000FB7B3A464FF47A710548FFF7F3FE00BFA3
:102620001037BD4680BD00BF01020304C0B50008DD
:10263000F001002080B582B000AF284801F017FEFD
:102640001021274802F00BFB3B46264A0021234875
:1026500001F0C7FC0346002B10D13B461A46224925
:10266000224804F0D7FE2148FDF772FD03469AB2D6
:1026700064231E491E4803F032FD2AE0194B1B69F2
:10268000052B17D13B4605221A49184604F025FFB1
:102690000346002B0ED11849144804F0BBFE134822
:1026A000FDF756FD03469AB264231049104803F023
:1026B00016FD0EE0002211490C4804F0ABFE0B4859
:1026C000FDF746FD03469AB264230849084803F023
:1026D00006FD00BF0837BD4680BD00BFB802002020
:1026E00000080140BC040020C8B5000858040020C0
:1026F000C4030020C0B50008DCB50008F4B500082C
:10270000B0B58CB004AF00F0A7FE00F0D3F800F035
:10271000EDFA00F069F900F029F900F0C9F900F0CC
:10272000BBFA00F097F900F05FFA00224FF4005175
:10273000514802F07CFA514801F0E9FA504B01226D
:102740001A614F4B00229A604D4B0022DA604C4BCD
:102750004FF4AB721A604B4B01221A62494B0022B4
:102760005A61484B00221A61464B00221A60454BC1
:1027700000225A60434B00229A60424B0022DA60EA
:10278000404B00229A613F4B0122DA613D493B48B0
:1027900001F0F4F93C4C3B463C4A3D491846FFF7F2
:1027A000B7FB25463C460FCC0FC594E8070085E8EB
:1027B0000700354B0A221A71364C3B460822642129
:1027C0001846FFF7E3FB25463C460FCC0FC52368B0
:1027D0002B60002302934FF47A724FF00003CDE98F
:1027E000002308234FF47A7200212748FFF7ACFC3E
:1027F0000221224801F016FD0346002B14D01F4889
:1028000001F061FF03461A462349244804F002FE02
:102810002248FDF79DFC03469AB264231F492048D5
:1028200003F05DFC00F0E4FA1E491C4804F0F2FDE0
:102830001A48FDF78DFC03469AB2642317491848DD
:1028400003F04DFCFFF7D6FEFFF76CFE4FF47A70F5
:1028500000F064FE144B1B881846FFF75FFD134B16
:102860001B881846FFF778FD114B1B881846FFF7A9
:1028700091FD00BFE6E700BF00100140B802002054
:102880000C04002024040020F0010020EB230008A9
:10289000D12300087002002018B600085804002058
:1028A000C40300204CB60008520400205404002049
:1028B0005604002080B594B000AF07F12803282209
:1028C0000021184604F019FE07F1140300221A60D3
:1028D0005A609A60DA601A613B1D00221A605A60E1
:1028E0009A60DA600123BB624FF48033FB620023FD
:1028F0003B630123BB6302237B644FF48033BB64DF
:102900004FF4E013FB6407F12803184602F026FB9E
:102910000346002B01D000F06BFA0F237B610223EA
:10292000BB610023FB614FF480633B6200237B6249
:1029300007F114030221184602F092FD0346002B12
:1029400001D000F055FA02237B604FF40043FB6096
:102950003B1D184602F012FF0346002B01D000F089
:1029600047FA00BF5037BD4680BD000080B584B037
:1029700000AF3B1D00221A605A609A60184B194A3A
:102980001A60174B00229A60154B01221A73144BE0
:1029900000221A75124B4FF46022DA61104B0022AC
:1029A0005A600F4B01221A610D4800F0DBFD03460F
:1029B000002B01D000F01CFA01237B600123BB60D7
:1029C0000023FB603B1D1946054800F0A3FE0346AB
:1029D000002B01D000F00CFA00BF1037BD4680BDBF
:1029E000880200200024014080B500AF174B184A30
:1029F0001A60164B09225A60144B00229A60134B3E
:102A00000022DA60114B4FF430221A610F4B4FF461
:102A100040125A610D4B00221A760C4B00225A7656
:102A20000A4B00229A76094B0122DA76074B0022E4
:102A30001A77064B00225A77044800F0A4FF034699
:102A4000002B01D000F0D4F900BF80BDB8020020F7
:102A50000064004080B500AF124B134A1A60114B5E
:102A6000124A5A600F4B00229A600E4B0022DA6025
:102A70000C4B4FF480421A610A4B00225A61094BF9
:102A800000229A61074B0022DA61064B00221A628B
:102A9000044802F01FF90346002B01D000F0A8F90A
:102AA00000BF80BDE002002000540040A08601006D
:102AB00080B592B000AF07F1400300221A605A605F
:102AC00007F1240300221A605A609A60DA601A61E2
:102AD0005A619A613B1D20220021184604F00DFD29
:102AE0003F4B404A1A603E4B47225A603C4B002203
:102AF0009A603B4B40F2E732DA60394B00221A61B0
:102B0000374B00225A61364B00229A61344802F05A
:102B1000EBFE0346002B01D000F06AF900233B6472
:102B200000237B6407F1400319462D4803F0D8F9D0
:102B30000346002B01D000F05BF960237B62002389
:102B4000BB620023FB6200233B6300237B63002303
:102B5000BB630023FB6307F12403002219462048CE
:102B600002F012FF0346002B01D000F041F907F1FB
:102B70002403042219461A4802F006FF0346002BDC
:102B800001D000F035F907F1240308221946144852
:102B900002F0FAFE0346002B01D000F029F90023D1
:102BA0007B600023BB600023FB6000233B610023AC
:102BB0007B614FF40053BB6100233B623B1D194610
:102BC000074803F0EBF90346002B01D000F010F9A1
:102BD000034800F045FA00BF4837BD4680BD00BF3E
:102BE00034030020002C014080B58AB000AF07F10B
:102BF000200300221A605A603B1D00221A605A60AE
:102C00009A60DA601A615A619A61224B4FF08042F1
:102C10001A60204B00225A601E4B00229A601D4B06
:102C20004FF6FF72DA601B4B00221A61194B00222B
:102C30009A61184802F058FE0346002B01D000F0BC
:102C4000D7F800233B6200237B6207F1200319467B
:102C5000104803F045F90346002B01D000F0C8F8F6
:102C600060237B600023BB600023FB6000237B614B
:102C70003B1D00221946074802F086FE0346002B42
:102C800001D000F0B5F8034800F0EAF900BF28379A
:102C9000BD4680BD7C03002080B500AF114B124AB9
:102CA0001A60104B4FF416525A600E4B00229A6075
:102CB0000C4B0022DA600B4B00221A61094B0C22EC
:102CC0005A61084B00229A61064B0022DA610548DE
:102CD00003F0B5F90346002B01D000F089F800BFDE
:102CE00080BD00BFC40300200044004080B588B010
:102CF00000AF07F1100300221A605A609A60DA6090
:102D0000374B9B69364A43F010039361344B9B6900
:102D100003F01003FB60FB68314B9B69304A43F0C2
:102D2000200393612E4B9B6903F02003BB60BB68BB
:102D30002B4B9B692A4A43F004039361284B9B6900
:102D400003F004037B607B68254B9B69244A43F0B6
:102D500008039361224B9B6903F008033B603B68C7
:102D600000224FF400511F4801F061FF0022702142
:102D70001D4801F05CFF4FF400533B6101237B6170
:102D80000023BB610223FB6107F1100319461548BC
:102D900001F0B2FD01233B61144B7B610023BB6159
:102DA00007F110031946104801F0A6FD70233B619E
:102DB00001237B610023BB610223FB6107F1100348
:102DC0001946094801F098FD00220021062001F073
:102DD0005CFD062001F075FD00BF2037BD4680BDBB
:102DE00000100240001001400008014000001110D6
:102DF00080B400AF72B600BF00BFFDE780B584B0FD
:102E000000AF164B9B69154A43F001039361134BC6
:102E10009B6903F00103BB60BB68104BDB690F4A81
:102E200043F08053D3610D4BDB6903F080537B602B
:102E30007B68072001F01EFD094B5B68FB60FB68A7
:102E400023F0E063FB60FB6843F00073FB60044A1F
:102E5000FB68536000BF1037BD4680BD00100240C4
:102E60000000014080B588B000AF786007F1100322
:102E700000221A605A609A60DA607B681B68144A04
:102E8000934221D1134B9B69124A43F4007393611F
:102E9000104B9B6903F40073FB60FB680D4B9B694F
:102EA0000C4A43F0040393610A4B9B6903F004034B
:102EB000BB60BB6802233B6103237B6107F1100306
:102EC0001946054801F018FD00BF2037BD4680BDFA
:102ED00000240140001002400008014080B588B085
:102EE00000AF786007F1100300221A605A609A6000
:102EF000DA607B681B68204A934239D11F4BDB693B
:102F00001E4A43F00073D3611C4BDB6903F000736E
:102F1000FB60FB68194B9B69184A43F004039361FB
:102F2000164B9B6903F00403BB60BB684FF400635E
:102F30003B6100237B610023BB6107F1100319464D
:102F40000F4801F0D9FC4FF480533B6102237B61B1
:102F50000323FB6107F110031946094801F0CCFC7B
:102F600001220021142001F090FC142001F0A9FCA2
:102F700000BF2037BD4680BD006400400010024005
:102F80000008014080B588B000AF786007F11003F9
:102F900000221A605A609A60DA607B681B68154AE2
:102FA000934223D1144B9B69134A43F00803936166
:102FB000114B9B6903F00803FB60FB68C0233B6176
:102FC00012237B610323FB6107F1100319460B48B1
:102FD00001F092FC084BDB69074A43F40013D3610C
:102FE000054BDB6903F40013BB60BB6800BF2037EF
:102FF000BD4680BD0054004000100240000C01405E
:1030000080B485B000AF78607B681B68124A934239
:103010000CD1124B9B69114A43F4006393610F4B2F
:103020009B6903F40063FB60FB6810E07B681B682E
:10303000B3F1804F0BD1094BDB69084A43F0010320
:10304000D361064BDB6903F00103BB60BB6800BFC3
:103050001437BD4680BC7047002C01400010024070
:1030600080B58AB000AF786007F1140300221A60BF
:103070005A609A60DA607B681B68284A934219D1CB
:10308000274B9B69264A43F004039361244B9B69B9
:1030900003F004033B613B694FF4E0637B6102236F
:1030A000BB6102233B6207F1140319461D4801F07E
:1030B00023FC2FE07B681B68B3F1804F2AD1184BAB
:1030C0009B69174A43F004039361154B9B6903F016
:1030D0000403FB60FB684FF400437B610223BB6188
:1030E00002233B6207F1140319460E4801F004FC69
:1030F0000D4B5B687B627B6A23F440737B627B6A67
:1031000043F0E0637B627B6A43F480737B62064A30
:103110007B6A536000BF2837BD4680BD002C01404C
:1031200000100240000801400000014080B588B056
:1031300000AF786007F1100300221A605A609A60AD
:10314000DA607B681B681B4A93422FD11A4BDB69FC
:10315000194A43F40033D361174BDB6903F400339E
:10316000FB60FB68144B9B69134A43F004039361B3
:10317000114B9B6903F00403BB60BB6804233B61F4
:1031800002237B610323FB6107F1100319460B48FF
:1031900001F0B2FB08233B6100237B610023BB618C
:1031A00007F110031946054801F0A6FB00BF2037C0
:1031B000BD4680BD004400400010024000080140B0
:1031C00080B400AF00BFFDE780B400AF00BFFDE7F3
:1031D00080B400AF00BFFDE780B400AF00BFFDE7E3
:1031E00080B400AF00BFFDE780B400AF00BFBD46B4
:1031F00080BC704780B400AF00BFBD4680BC704744
:1032000080B400AF00BFBD4680BC704780B500AF42
:1032100000F068F900BF80BD80B582B000AF002328
:103220007B6002E07B6801337B607B68B3F57A7F6B
:10323000F8DB012001F02CFD01210B4801F0E0FC3E
:103240000346002B0BD0094B1B780133DAB2074B36
:103250001A70074B054A0749074800F09CFD00BF5C
:103260000837BD4680BD00BF000801405004002063
:103270004C0400200C040020B802002080B400AFF1
:1032800001231846BD4680BC704780B582B000AFB0
:103290007860396004F094F9034616221A604FF002
:1032A000FF3318460837BD4680BD80B582B000AFF9
:1032B00078604FF0FF317868FFF7E7FF00BFFDE768
:1032C00080B586B000AFF860B9607A6000237B619A
:1032D0000AE0AFF300800146BB685A1CBA60CAB26C
:1032E0001A707B6901337B617A697B689A42F0DBF3
:1032F0007B6818461837BD4680BD80B586B000AFE4
:10330000F860B9607A6000237B6109E0BB685A1CF1
:10331000BA601B781846AFF300807B6901337B618C
:103320007A697B689A42F1DB7B6818461837BD469C
:1033300080BD80B483B000AF78604FF0FF33184693
:103340000C37BD4680BC704780B483B000AF786056
:1033500039603B684FF400525A60002318460C371E
:10336000BD4680BC704780B483B000AF7860012355
:1033700018460C37BD4680BC704780B485B000AF9E
:10338000F860B9607A60002318461437BD4680BCE7
:103390007047000080B586B000AF7860144A154BC6
:1033A000D31A7B617B693B61134B1B68002B02D1F5
:1033B000114B124A1A60104B1A687B6813443A6921
:1033C0009A4207D204F0FCF803460C221A604FF030
:1033D000FF3309E0084B1B68FB60074B1A687B68EA
:1033E0001344054A1360FB6818461837BD4680BD74
:1033F0000050002000040000D80400203006002007
:1034000080B400AF00BFBD4680BC7047FFF7F8FF37
:103410000B480C490C4A002302E0D458C450043332
:10342000C4188C42F9D3094A094C002301E0136007
:103430000432A242FBD304F0C9F8FFF761F97047E8
:1034400000000020D4010020BCBE0008D4010020F0
:103450002C060020FEE7000080B500AF084B1B687B
:10346000074A43F010031360032001F003FA002021
:1034700000F008F8FFF7C2FC0023184680BD00BF2B
:103480000020024080B582B000AF7860124B1A680D
:10349000124B1B7819464FF47A73B3FBF1F3B2FB6E
:1034A000F3F3184601F01BFA0346002B01D0012369
:1034B0000EE07B680F2B0AD8002279684FF0FF30AE
:1034C00001F0E3F9064A7B681360002300E0012362
:1034D00018460837BD4680BD0000002008000020C7
:1034E0000400002080B400AF054B1B781A46054B42
:1034F0001B681344034A136000BFBD4680BC70477D
:1035000008000020DC04002080B400AF024B1B68E0
:103510001846BD4680BC7047DC04002080B584B0EE
:1035200000AF7860FFF7F0FFB8607B68FB60FB6876
:10353000B3F1FF3F05D00A4B1B781A46FB681344D2
:10354000FB6000BFFFF7E0FF0246BB68D31AFA68D2
:103550009A42F7D800BF00BF1037BD4680BD00BFFC
:103560000800002080B586B000AF78600023FB75AE
:1035700000233B610023BB600023FB607B68002BC2
:1035800001D10123BEE07B689B68002B7B689B6AAE
:10359000002B09D17B680022DA627B68002283F865
:1035A00024207868FFF75EFC786800F0ABF90346EA
:1035B000FB757B689B6A03F01003002B40F0998039
:1035C000FB7D002B40F095807B689B6A23F4885339
:1035D00023F0020343F002027B689A627B685A6818
:1035E0007B68DB691A437B681B7B5B001343BA680B
:1035F0001343BB607B689B68B3F5807F03D07B6817
:103600009B68012B02D14FF4807300E000233A69DC
:1036100013433B617B681B7D012B19D17B681B7BAE
:10362000002B09D17B689B69013B5A033B6913431B
:1036300043F400633B610BE07B689B6A43F020022C
:103640007B689A627B68DB6A43F001027B68DA621E
:103650007B681B685B6823F469417B681B683A6977
:103660000A435A607B681B689A68284B13407A6843
:103670001268B9680B4393607B689B68B3F5807FE1
:1036800003D07B689B68012B04D17B681B69013BDD
:103690001B05FB607B681B68DB6A23F470017B6899
:1036A0001B68FA680A43DA627B681B689A68184BE1
:1036B0001340BA689A420BD17B680022DA627B68B9
:1036C0009B6A23F0030343F001027B689A6218E0CF
:1036D0007B689B6A23F0120343F010027B689A62B6
:1036E0007B68DB6A43F001027B68DA620123FB75C9
:1036F00007E07B689B6A43F010027B689A620123B3
:10370000FB75FB7D18461837BD4680BDFDF7E1FF10
:10371000FE0E1FFF80B485B000AF786039600023D3
:10372000FB730023BB607B6893F82430012B01D12D
:103730000223DCE07B68012283F824203B685B687D
:10374000062B1CD87B681B68596B3B685A6813466C
:103750009B001344053B1F2202FA03F3DB4319408D
:103760003B6818683B685A6813469B001344053B46
:1037700000FA03F27B681B680A435A633CE03B682B
:103780005B680C2B1CD87B681B68196B3B685A68FC
:1037900013469B001344233B1F2202FA03F3DB432F
:1037A00019403B6818683B685A6813469B001344ED
:1037B000233B00FA03F27B681B680A431A631BE091
:1037C0007B681B68D96A3B685A6813469B001344A0
:1037D000413B1F2202FA03F3DB4319403B681868A0
:1037E0003B685A6813469B001344413B00FA03F2BE
:1037F0007B681B680A43DA623B681B68092B1CD98B
:103800007B681B68D9683B681A6813465B001344E1
:103810001E3B072202FA03F3DB4319403B6898681A
:103820003B681A6813465B0013441E3B00FA03F220
:103830007B681B680A43DA6019E07B681B681969BA
:103840003B681A6813465B001344072202FA03F32D
:10385000DB4319403B6898683B681A6813465B0075
:10386000134400FA03F27B681B680A431A613B6841
:103870001B68102B03D03B681B68112B32D17B686F
:103880001B681D4A934225D17B681B689B6803F423
:103890000003002B26D17B681B689A687B681B6835
:1038A00042F400029A603B681B68102B1AD1134B3C
:1038B0001B68134AA2FB03239A0C13469B00134474
:1038C0005B00BB6002E0BB68013BBB60BB68002BD8
:1038D000F9D107E07B689B6A43F020027B689A621B
:1038E0000123FB737B68002283F82420FB7B1846AE
:1038F0001437BD4680BC7047002401400000002002
:1039000083DE1B4380B584B000AF78600023FB608A
:103910007B681B689B6803F00103012B2ED17B6839
:103920001B689A687B681B6822F001029A60FFF7A7
:10393000EBFDF8601BE0FFF7E7FD0246FB68D31ADA
:10394000022B14D97B681B689B6803F00103012BD1
:103950000DD17B689B6A43F010027B689A627B689A
:10396000DB6A43F001027B68DA62012307E07B68CF
:103970001B689B6803F00103012BDCD00023184671
:103980001037BD4680BD80B584B000AF78607B68DD
:10399000002B01D10123EDE07B6893F82030DBB2EE
:1039A000002B02D17868FFF799FA7B681B681A68C8
:1039B0007B681B6842F001021A60FFF7A5FDF86002
:1039C00012E0FFF7A1FD0246FB68D31A0A2B0BD9C0
:1039D0007B685B6A43F400327B685A627B6805222D
:1039E00083F820200123C5E07B681B685B6803F037
:1039F0000103002BE5D07B681B681A687B681B6895
:103A000022F002021A60FFF77FFDF86012E0FFF774
:103A10007BFD0246FB68D31A0A2B0BD97B685B6AD5
:103A200043F400327B685A627B68052283F82020C9
:103A300001239FE07B681B685B6803F00203002B97
:103A4000E5D17B681B7E012B08D17B681B681A6857
:103A50007B681B6842F080021A6007E07B681B6885
:103A60001A687B681B6822F080021A607B685B7EA4
:103A7000012B08D17B681B681A687B681B6842F0C1
:103A800040021A6007E07B681B681A687B681B6845
:103A900022F040021A607B689B7E012B08D17B6874
:103AA0001B681A687B681B6842F020021A6007E0F6
:103AB0007B681B681A687B681B6822F020021A600A
:103AC0007B68DB7E012B08D17B681B681A687B68EA
:103AD0001B6822F010021A6007E07B681B681A68F6
:103AE0007B681B6842F010021A607B681B7F012B09
:103AF00008D17B681B681A687B681B6842F0080263
:103B00001A6007E07B681B681A687B681B6822F0F4
:103B100008021A607B685B7F012B08D17B681B68F9
:103B20001A687B681B6842F004021A6007E07B6831
:103B30001B681A687B681B6822F004021A607B68A5
:103B40009A687B68DB681A437B681B691A437B6849
:103B50005B6942EA03017B685B685A1E7B681B68ED
:103B60000A43DA617B6800225A627B68012283F88B
:103B70002020002318461037BD4680BD80B487B092
:103B800000AF786039607B681B687B617B6893F865
:103B90002030FB74FB7C012B03D0FB7C022B40F01C
:103BA000AA807B69D3F8003243F001027B69C3F835
:103BB00000223B685B6903F01F03012202FA03F352
:103BC000FB607B69D3F81C22FB68DB431A407B69EE
:103BD000C3F81C223B68DB69002B23D17B69D3F837
:103BE0000C22FB68DB431A407B69C3F80C223B685C
:103BF000DB6819043B685B689BB23A6852691943F9
:103C00007B69483243F832103B689B6819043B6873
:103C10001B689AB23B685B690A4379694833DB00E9
:103C20000B445A603B68DB69012B22D17B69D3F8D6
:103C30000C22FB681A437B69C3F80C223B681B68A3
:103C400019043B685B689BB23A68526919437B6907
:103C5000483243F832103B689B6819043B68DB68C4
:103C60009AB23B685B690A4379694833DB000B44CD
:103C70005A603B689B69002B09D17B69D3F8042209
:103C8000FB68DB431A407B69C3F8042207E07B69C9
:103C9000D3F80422FB681A437B69C3F804223B680B
:103CA0001B69002B09D17B69D3F81422FB68DB4325
:103CB0001A407B69C3F8142207E07B69D3F8142209
:103CC000FB681A437B69C3F814223B681B6A012B0B
:103CD00007D17B69D3F81C22FB681A437B69C3F8C0
:103CE0001C227B69D3F8003223F001027B69C3F800
:103CF0000022002306E07B685B6A43F480227B6835
:103D00005A62012318461C37BD4680BC704780B5F7
:103D100084B000AF78607B6893F82030DBB2012B71
:103D20002ED17B68022283F820207B681B681A68EA
:103D30007B681B6822F001021A60FFF7E5FBF86060
:103D400012E0FFF7E1FB0246FB68D31A0A2B0BD9FE
:103D50007B685B6A43F400327B685A627B680522A9
:103D600083F82020012312E07B681B685B6803F066
:103D70000103002BE5D17B6800225A62002306E094
:103D80007B685B6A43F400227B685A620123184611
:103D90001037BD4680BD80B489B000AFF860B9600F
:103DA0007A603B60FB6893F82030FB77FB681B6808
:103DB0009B68BB61FB7F012B03D0FB7F022B40F094
:103DC000AD80BB6903F08063002B0AD1BB6903F0AF
:103DD0000063002B05D1BB6903F08053002B00F07A
:103DE0009580BB691B0E03F003037B6101227B6995
:103DF0009A403B681A60BB689B68002B0DD1BB687A
:103E00001B685A05BB68DB68F96809681A437B6957
:103E100018331B010B441A600FE0BB685B68DA00C3
:103E2000BB689B681A43BB68DB68F96809681A437A
:103E30007B6918331B010B441A60FB681968BB6867
:103E40001A697B6918331B010B4404331A60BB6881
:103E50001B7D012B11D1FB681A687B6918331B018C
:103E6000134404331B68FA68116843F480727B6959
:103E700018331B010B4404331A607B6807331B782B
:103E80001A067B6806331B781B041A437B680533CC
:103E90001B781B0213437A68043212781046FA68C2
:103EA000116843EA00027B691B010B4403F5C673EA
:103EB0001A607B6803331B781A067B6802331B7811
:103EC0001B041A437B6801331B781B0213437A6877
:103ED00012781046FA68116843EA00027B691B01F8
:103EE0000B4403F5C4731A60FB681A687B691833C6
:103EF0001B0113441B68FA68116843F001027B69D7
:103F000018331B010B441A6000230EE0FB685B6A48
:103F100043F40012FB685A62012306E0FB685B6A07
:103F200043F48022FB685A62012318462437BD46B9
:103F300080BC704780B485B000AF78600023FB6020
:103F40007B6893F82030FB72FB7A012B02D0FB7A5E
:103F5000022B1DD17B681B689B6803F08063002BDC
:103F600002D0FB680133FB607B681B689B6803F031
:103F70000063002B02D0FB680133FB607B681B6889
:103F80009B6803F08053002B02D0FB680133FB6079
:103F9000FB6818461437BD4680BC704780B485B0B6
:103FA00000AF786039600023FB607B6893F82030B5
:103FB000FB72FB7A012B02D0FB7A022B0BD17B68C0
:103FC0001B689A683B689B061A403B689B069A42AE
:103FD00001D00123FB60FB6818461437BD4680BC46
:103FE000704780B487B000AFF860B9607A603B601A
:103FF000FB6893F82030FB75FB7D012B03D0FB7D24
:10400000022B40F00381BB68002B0ED1FB681B68BC
:10401000DB6803F00303002B16D1FB685B6A43F4F3
:104020000012FB685A620123F7E0FB681B681B69FA
:1040300003F00303002B07D1FB685B6A43F4001213
:10404000FB685A620123E8E0FB681A68BB681B330F
:104050001B0113441B6803F004027B689A607B68B1
:104060009B68002B0CD1FB681A68BB681B331B01D3
:1040700013441B685B0DC3F30A027B681A600BE0F4
:10408000FB681A68BB681B331B0113441B68DB0801
:1040900023F060427B685A60FB681A68BB681B3378
:1040A0001B0113441B6803F002027B68DA60FB68A3
:1040B0001A68BB681B331B01134404331B6803F0ED
:1040C0000803002B03D07B6808221A610BE0FB6811
:1040D0001A68BB681B331B01134404331B6803F0CD
:1040E0000F027B681A61FB681A68BB681B331B01EF
:1040F000134404331B681B0ADAB27B689A61FB68BD
:104100001A68BB681B331B01134404331B681B0C68
:104110009AB27B685A61FB681A68BB681B0113443A
:1041200003F5DC731B68DAB23B681A70FB681A6827
:10413000BB681B01134403F5DC731B681A0A3B6858
:104140000133D2B21A70FB681A68BB681B011344B2
:1041500003F5DC731B681A0C3B680233D2B21A7089
:10416000FB681A68BB681B01134403F5DC731B680A
:104170001A0E3B680333D2B21A70FB681A68BB6828
:104180001B01134403F5DE731A683B680433D2B293
:104190001A70FB681A68BB681B01134403F5DE73D1
:1041A0001B681A0A3B680533D2B21A70FB681A689A
:1041B000BB681B01134403F5DE731B681A0C3B68D4
:1041C0000633D2B21A70FB681A68BB681B0113442D
:1041D00003F5DE731B681A0E3B680733D2B21A7000
:1041E000BB68002B08D1FB681B68DA68FB681B689A
:1041F00042F02002DA6007E0FB681B681A69FB687E
:104200001B6842F020021A61002306E0FB685B6A2B
:1042100043F48022FB685A62012318461C37BD46CE
:1042200080BC704780B485B000AF786039607B682F
:1042300093F82030FB73FB7B012B02D0FB7B022B1E
:1042400009D17B681B6859697B681B683A680A4317
:104250005A61002306E07B685B6A43F480227B6836
:104260005A62012318461437BD4680BC704780B59A
:104270008AB000AF786000237B627B681B685B6953
:104280003B627B681B685B68FB617B681B689B68A3
:10429000BB617B681B68DB687B617B681B681B6993
:1042A0003B617B681B689B69FB603B6A03F0010311
:1042B000002B7CD0BB6903F00103002B23D07B686B
:1042C0001B6801229A60BB6903F00203002B03D034
:1042D000786800F083F916E0BB6903F00403002B53
:1042E00004D07B6A43F400637B620CE0BB6903F09B
:1042F0000803002B04D07B6A43F480537B6202E006
:10430000786800F086F9BB6903F48073002B24D031
:104310007B681B684FF480729A60BB6903F400737A
:10432000002B03D0786800F062F916E0BB6903F453
:104330008063002B04D07B6A43F400537B620CE063
:10434000BB6903F40063002B04D07B6A43F4804311
:104350007B6202E0786800F065F9BB6903F48033A2
:10436000002B24D07B681B684FF480329A60BB69B5
:1043700003F40033002B03D0786800F041F916E015
:10438000BB6903F48023002B04D07B6A43F4004311
:104390007B620CE0BB6903F40023002B04D07B6A32
:1043A00043F480337B6202E0786800F044F93B6AB2
:1043B00003F00803002B0CD07B6903F01003002BE3
:1043C00007D07B6A43F400737B627B681B68102212
:1043D000DA603B6A03F00403002B0BD07B6903F027
:1043E0000803002B06D07B681B680822DA60786817
:1043F00000F033F93B6A03F00203002B09D07B681D
:104400001B68DB6803F00303002B02D0786800F020
:104410001BF93B6A03F04003002B0CD03B6903F00F
:104420001003002B07D07B6A43F480637B627B68B8
:104430001B6810221A613B6A03F02003002B0BD08B
:104440003B6903F00803002B06D07B681B68082239
:104450001A61786800F013F93B6A03F01003002B2F
:1044600009D07B681B681B6903F00303002B02D093
:10447000786800F0FBF83B6A03F40033002B0BD0A4
:10448000FB6903F01003002B06D07B681B68102229
:104490005A60786800F0FCF83B6A03F48033002B24
:1044A0000BD0FB6903F00803002B06D07B681B6868
:1044B00008225A60786800F0F4F83B6A03F400437D
:1044C000002B7BD0FB6903F00403002B72D03B6A06
:1044D00003F48073002B08D0FB6803F00103002B6A
:1044E00003D07B6A43F001037B623B6A03F40073F1
:1044F000002B08D0FB6803F00203002B03D07B6A7B
:1045000043F002037B623B6A03F48063002B08D014
:10451000FB6803F00403002B03D07B6A43F0040321
:104520007B623B6A03F40063002B43D0FB6803F01B
:104530007003002B3ED0FB6803F07003602B2BD080
:10454000602B2ED8502B22D0502B2AD8402B19D09C
:10455000402B26D8302B10D0302B22D8102B02D055
:10456000202B05D01DE07B6A43F008037B6219E035
:104570007B6A43F010037B6214E07B6A43F0200304
:104580007B620FE07B6A43F040037B620AE07B6A58
:1045900043F080037B6205E07B6A43F480737B62B7
:1045A00000E000BF7B681B689A697B681B6822F08B
:1045B00070029A617B681B6804225A607B6A002B38
:1045C00008D07B685A6A7B6A1A437B685A627868AB
:1045D00000F070F800BF2837BD4680BD80B483B0BE
:1045E00000AF786000BF0C37BD4680BC704780B418
:1045F00083B000AF786000BF0C37BD4680BC704709
:1046000080B483B000AF786000BF0C37BD4680BC7B
:10461000704780B483B000AF786000BF0C37BD46F0
:1046200080BC704780B483B000AF786000BF0C37A7
:10463000BD4680BC704780B483B000AF786000BFD7
:104640000C37BD4680BC704780B483B000AF786043
:1046500000BF0C37BD4680BC704780B483B000AF4C
:10466000786000BF0C37BD4680BC704780B483B013
:1046700000AF786000BF0C37BD4680BC704780B487
:1046800083B000AF786000BF0C37BD4680BC704778
:1046900080B483B000AF786000BF0C37BD4680BCEB
:1046A000704780B483B000AF786000BF0C37BD4660
:1046B00080BC704780B483B000AF786000BF0C3717
:1046C000BD4680BC704780B483B000AF78607B6823
:1046D0005B6A18460C37BD4680BC704780B485B015
:1046E00000AF78607B6803F00703FB600C4BDB686E
:1046F000BB60BA684FF6FF031340BB60FB681A0249
:10470000BB68134343F0BF6343F40033BB60044A08
:10471000BB68D36000BF1437BD4680BC704700BF84
:1047200000ED00E080B400AF044BDB681B0A03F02F
:1047300007031846BD4680BC704700BF00ED00E08F
:1047400080B483B000AF0346FB7197F90730002BAC
:104750000BDBFB7903F01F02064997F907305B0971
:10476000012000FA02F241F8232000BF0C37BD46B9
:1047700080BC704700E100E080B483B000AF034626
:104780003960FB7197F90730002B0ADB3B68DAB21E
:104790000C4997F907301201D2B20B4483F8002379
:1047A0000AE03B68DAB20849FB7903F00F03043BE7
:1047B0001201D2B20B441A7600BF0C37BD4680BC42
:1047C000704700BF00E100E000ED00E080B489B078
:1047D00000AFF860B9607A60FB6803F00703FB6123
:1047E000FB69C3F10703042B28BF0423BB61FB69EA
:1047F0000433062B02D9FB69033B00E000237B61F5
:104800004FF0FF32BB6902FA03F3DA43BB681A4088
:104810007B699A404FF0FF317B6901FA03F3D9437A
:104820007B680B40134318462437BD4680BC704755
:1048300080B582B000AF78607B68013BB3F1807FC8
:1048400001D301230FE00A4A7B68013B53600F212B
:104850004FF0FF30FFF790FF054B00229A60044BAA
:1048600007221A60002318460837BD4680BD00BFE6
:1048700010E000E080B582B000AF78607868FFF7A4
:104880002DFF00BF0837BD4680BD80B586B000AFA4
:104890000346B9607A60FB7300237B61FFF742FF38
:1048A00078617A68B9687869FFF790FF024697F9EE
:1048B0000F3011461846FFF75FFF00BF1837BD469F
:1048C00080BD80B582B000AF0346FB7197F9073019
:1048D0001846FFF735FF00BF0837BD4680BD80B5DD
:1048E00082B000AF78607868FFF7A2FF03461846F1
:1048F0000837BD4680BD000080B48BB000AF786043
:10490000396000237B6200233B6269E101227B6AFC
:1049100002FA03F3FB613B681B68FA691340BB6151
:10492000BA69FB699A4240F058813B685B689A4AD1
:1049300093425ED0984A934275D8984A934258D091
:10494000964A93426FD8964A934252D0944A9342E1
:1049500069D8944A93424CD0924A934263D8924A7F
:10496000934246D0904A93425DD8122B2AD8122BFC
:1049700059D801A252F823F0F3490008CD490008A4
:10498000DF490008214A0008274A0008274A000892
:10499000274A0008274A0008274A0008274A000833
:1049A000274A0008274A0008274A0008274A000823
:1049B000274A0008274A0008274A0008D549000866
:1049C000E9490008794A934213D02CE03B68DB6840
:1049D0003B6229E03B68DB6804333B6224E03B68D0
:1049E000DB6808333B621FE03B68DB680C333B62EB
:1049F0001AE03B689B68002B02D104233B6213E062
:104A00003B689B68012B05D108233B627B68FA69F0
:104A10001A6109E008233B627B68FA695A6103E086
:104A200000233B6200E000BFBB69FF2B01D87B681D
:104A300001E07B6804337B61BB69FF2B02D87B6A92
:104A40009B0002E07B6A083B9B003B617B691A6824
:104A50000F213B6901FA03F3DB431A40396A3B69D2
:104A600001FA03F31A437B691A603B685B6803F041
:104A70008053002B00F0B1804D4B9B694C4A43F0B2
:104A8000010393614A4B9B6903F00103BB60BB6860
:104A9000484A7B6A9B08023352F82330FB607B6AEA
:104AA00003F003039B000F2202FA03F3DB43FA68CF
:104AB0001340FB607B68404A934213D07B683F4AB7
:104AC00093420DD07B683E4A934207D07B683D4AB3
:104AD000934201D1032306E0042304E0022302E011
:104AE000012300E000237A6A02F00302920093405F
:104AF000FA681343FB602F497B6A9B080233FA680C
:104B000041F823203B685B6803F48013002B06D038
:104B10002D4B9A682C49BB6913438B6006E02A4BE6
:104B20009A68BB69DB43284913408B603B685B682C
:104B300003F40013002B06D0234BDA682249BB692B
:104B40001343CB6006E0204BDA68BB69DB431E49A8
:104B50001340CB603B685B6803F40033002B06D046
:104B6000194B5A681849BB6913434B6006E0164B52
:104B70005A68BB69DB43144913404B603B685B6870
:104B800003F48033002B21D00F4B1A680E49BB6908
:104B900013430B6021E000BF000032100000311011
:104BA000000022100000211000001210000011105F
:104BB000001002400000014000080140000C0140CC
:104BC0000010014000140140000401400B4B1A6822
:104BD000BB69DB43094913400B607B6A01337B628D
:104BE0003B681A687B6A22FA03F3002B7FF48EAECF
:104BF00000BF00BF2C37BD4680BC70470004014099
:104C000080B485B000AF78600B467B807B689A6883
:104C10007B881340002B02D00123FB7301E00023AB
:104C2000FB73FB7B18461437BD4680BC704780B4CD
:104C300083B000AF78600B467B8013467B707B7837
:104C4000002B03D07A887B681A6103E07B881A0402
:104C50007B681A6100BF0C37BD4680BC704780B4CA
:104C600085B000AF78600B467B807B68DB68FB60BB
:104C70007A88FB6813401A04FB68D9437B880B4091
:104C80001A437B681A6100BF1437BD4680BC704769
:104C900080B582B000AF0346FB80084B5A69FB88A1
:104CA0001340002B06D0054AFB885361FB88184649
:104CB00000F006F800BF0837BD4680BD0004014083
:104CC00080B483B000AF0346FB8000BF0C37BD4605
:104CD00080BC704780B584B000AF78607B68002BE3
:104CE00001D101232BE17B6893F83D30DBB2002B2F
:104CF00006D17B68002283F83C207868FEF742F9F1
:104D00007B68242283F83D207B681B681A687B68D7
:104D10001B6822F001021A607B681B681A687B68B6
:104D20001B6842F400421A607B681B681A687B6843
:104D30001B6822F400421A6000F0DAFCF8607B681D
:104D40005B68814A934207D8FB68804A934294BFCC
:104D500001230023DBB206E0FB687D4A934294BF47
:104D600001230023DBB2002B01D00123E7E0FB6825
:104D7000784AA2FB03239B0CBB607B681B685B68C3
:104D800023F03F017B681B68BA680A435A607B685E
:104D90001B681B6A23F03F017B685B686A4A934289
:104DA00002D8BB68013309E0BB684FF4967202FB7E
:104DB00003F3694AA2FB03239B0901337A68126853
:104DC0000B4313627B681B68DB6923F44F4222F0BC
:104DD000FF027B685B685C498B4219D8FB68591EEF
:104DE0007B685B685B00B1FBF3F3591C40F6FC7316
:104DF0000B40002B0AD0FB68591E7B685B685B0088
:104E0000B1FBF3F30133C3F30B0351E004234FE091
:104E10007B689B68002B11D1FB68581E7B68596822
:104E20000B465B000B44B0FBF3F30133C3F30B03FE
:104E3000002B0CBF01230023DBB212E0FB68581EDD
:104E40007B6859680B469B000B4499000B44B0FBF0
:104E5000F3F30133C3F30B03002B0CBF0123002337
:104E6000DBB2002B01D0012322E07B689B68002B82
:104E70000ED1FB68581E7B6859680B465B000B44DB
:104E8000B0FBF3F30133C3F30B0343F400430FE030
:104E9000FB68581E7B6859680B469B000B449900C1
:104EA0000B44B0FBF3F30133C3F30B0343F4404370
:104EB000796809681343CB617B681B681B6823F022
:104EC000C0017B68DA697B681B6A1A437B681B68D0
:104ED0000A431A607B681B689B6823F4034323F032
:104EE000FF037A6811697A68D26811437A68126898
:104EF0000B4393607B681B68DB6823F0FF017B68D2
:104F00005A697B689B691A437B681B680A43DA60AD
:104F10007B681B681A687B681B6842F001021A6094
:104F20007B6800221A647B68202283F83D207B681E
:104F300000221A637B68002283F83E200023184673
:104F40001037BD4680BD00BFA08601007F841E00D3
:104F5000FF083D0083DE1B43D34D621080B586B051
:104F600000AF78607B68002B01D1012372E27B687F
:104F70001B6803F00103002B00F08780924B5B68F5
:104F800003F00C03042B0CD08F4B5B6803F00C0375
:104F9000082B12D18C4B5B6803F48033B3F5803F50
:104FA0000BD1894B1B6803F40033002B6CD07B685A
:104FB0005B68002B68D101234CE27B685B68B3F52A
:104FC000803F06D1804B1B687F4A43F480331360D7
:104FD0002EE07B685B68002B0CD17B4B1B687A4A08
:104FE00023F480331360784B1B68774A23F48023C3
:104FF00013601DE07B685B68B3F5A02F0CD1724B8A
:105000001B68714A43F4802313606F4B1B686E4A20
:1050100043F4803313600BE06B4B1B686A4A23F444
:1050200080331360684B1B68674A23F48023136046
:105030007B685B68002B13D0FEF766FA386108E0E6
:10504000FEF762FA02463B69D31A642B01D90323A7
:1050500000E25D4B1B6803F40033002BF0D014E03A
:10506000FEF752FA386108E0FEF74EFA02463B6955
:10507000D31A642B01D90323ECE1534B1B6803F4CF
:105080000033002BF0D100E000BF7B681B6803F009
:105090000203002B63D04C4B5B6803F00C03002B26
:1050A0000BD0494B5B6803F00C03082B1CD1464B1B
:1050B0005B6803F48033002B16D1434B1B6803F06D
:1050C0000203002B05D07B681B69012B01D0012353
:1050D000C0E13D4B1B6823F0F8027B685B69DB0095
:1050E000394913430B603AE07B681B69002B20D0E1
:1050F000364B01221A60FEF707FA386108E0FEF726
:1051000003FA02463B69D31A022B01D90323A1E11A
:105110002D4B1B6803F00203002BF0D02A4B1B68B9
:1051200023F0F8027B685B69DB00274913430B60BF
:1051300015E0264B00221A60FEF7E6F9386108E018
:10514000FEF7E2F902463B69D31A022B01D9032389
:1051500080E11D4B1B6803F00203002BF0D17B683C
:105160001B6803F00803002B3AD07B689B69002B77
:1051700019D0174B01221A60FEF7C6F9386108E012
:10518000FEF7C2F902463B69D31A022B01D9032369
:1051900060E10D4B5B6A03F00203002BF0D00120AD
:1051A00000F0CEFA1CE00A4B00221A60FEF7ACF9C0
:1051B00038610FE0FEF7A8F902463B69D31A022BCB
:1051C00008D9032346E100BF00100240000042421C
:1051D00080044242924B5B6A03F00203002BE9D148
:1051E0007B681B6803F00403002B00F0A6800023FB
:1051F000FB758B4BDB6903F08053002B0DD1884B83
:10520000DB69874A43F08053D361854BDB6903F048
:105210008053BB60BB680123FB75824B1B6803F4A2
:105220008073002B18D17F4B1B687E4A43F4807338
:105230001360FEF769F9386108E0FEF765F9024688
:105240003B69D31A642B01D9032303E1754B1B6817
:1052500003F48073002BF0D07B68DB68012B06D150
:105260006F4B1B6A6E4A43F0010313622DE07B68AB
:10527000DB68002B0CD16A4B1B6A694A23F00103DF
:105280001362674B1B6A664A23F0040313621CE037
:105290007B68DB68052B0CD1614B1B6A604A43F0CD
:1052A000040313625E4B1B6A5D4A43F00103136201
:1052B0000BE05B4B1B6A5A4A23F001031362584B05
:1052C0001B6A574A23F0040313627B68DB68002BD8
:1052D00015D0FEF719F938610AE0FEF715F9024614
:1052E0003B69D31A41F28832934201D90323B1E0DA
:1052F0004B4B1B6A03F00203002BEED014E0FEF7C9
:1053000003F938610AE0FEF7FFF802463B69D31A59
:1053100041F28832934201D903239BE0404B1B6A40
:1053200003F00203002BEED1FB7D012B05D13C4B9A
:10533000DB693B4A23F08053D3617B68DB69002B38
:1053400000F08780364B5B6803F00C03082B61D0BC
:105350007B68DB69022B46D1334B00221A60FEF7D3
:10536000D3F8386108E0FEF7CFF802463B69D31A5C
:10537000022B01D903236DE0294B1B6803F0007356
:10538000002BF0D17B681B6AB3F5803F08D1244B1A
:105390005B6823F400327B689B68214913434B60B0
:1053A0001F4B5B6823F474127B68196A7B685B6A25
:1053B0000B431B4913434B601B4B01221A60FEF742
:1053C000A3F8386108E0FEF79FF802463B69D31A5C
:1053D000022B01D903233DE0114B1B6803F000733E
:1053E000002BF0D035E0104B00221A60FEF78CF84D
:1053F000386108E0FEF788F802463B69D31A022BB1
:1054000001D9032326E0064B1B6803F00073002B31
:10541000F0D11EE07B68DB69012B07D1012319E085
:105420000010024000700040600042420B4B5B687D
:10543000FB60FB6803F480327B681B6A9A4206D1EA
:10544000FB6803F470127B685B6A9A4201D0012307
:1054500000E0002318461837BD4680BD001002400A
:1054600080B584B000AF786039607B68002B01D1D3
:105470000123D0E06A4B1B6803F007033A689A42A5
:1054800010D9674B1B6823F0070265493B6813433B
:105490000B60634B1B6803F007033A689A4201D024
:1054A0000123B8E07B681B6803F00203002B20D0C7
:1054B0007B681B6803F00403002B05D0594B5B6825
:1054C000584A43F4E06353607B681B6803F00803A9
:1054D000002B05D0534B5B68524A43F46053536032
:1054E000504B5B6823F0F0027B689B684D49134387
:1054F0004B607B681B6803F00103002B40D07B6886
:105500005B68012B07D1474B1B6803F40033002B6A
:1055100015D101237FE07B685B68022B07D1414BEB
:105520001B6803F00073002B09D1012373E03D4B8E
:105530001B6803F00203002B01D101236BE0394B00
:105540005B6823F003027B685B68364913434B605A
:10555000FDF7DAFFF8600AE0FDF7D6FF0246FB68C8
:10556000D31A41F28832934201D9032353E02D4BE1
:105570005B6803F00C027B685B689B009A42EBD18E
:10558000274B1B6803F007033A689A4210D2244B5A
:105590001B6823F0070222493B6813430B60204B32
:1055A0001B6803F007033A689A4201D0012332E0F6
:1055B0007B681B6803F00403002B08D0194B5B6861
:1055C00023F4E0627B68DB68164913434B607B6819
:1055D0001B6803F00803002B09D0124B5B6823F40F
:1055E00060527B681B69DB000E4913434B6000F07F
:1055F00021F802460B4B5B681B0903F00F030A49B5
:10560000CB5C22FA03F3094A1360094B1B68184666
:10561000FDF738FF002318461037BD4680BD00BF98
:10562000002002400010024050BA00080000002094
:105630000400002080B487B000AF0023FB6000238B
:10564000BB6000237B6100237B6000233B611E4B1A
:105650005B68FB60FB6803F00C03042B02D0082B93
:1056600003D027E0194B3B6127E0FB689B0C03F05C
:105670000F03174AD35C7B60FB6803F48033002B75
:1056800010D0114B5B685B0C03F00103114AD35C33
:10569000BB607B680D4A03FB02F2BB68B2FBF3F30D
:1056A0007B6104E07B680C4A02FB03F37B617B694E
:1056B0003B6102E0054B3B6100BF3B6918461C376C
:1056C000BD4680BC704700BF0010024000127A0047
:1056D00068BA000878BA000800093D0080B400AF3D
:1056E000024B1B681846BD4680BC70470000002076
:1056F00080B500AFFFF7F2FF0246054B5B681B0A5F
:1057000003F007030349CB5C22FA03F3184680BD7C
:105710000010024060BA000880B500AFFFF7DEFF5E
:105720000246054B5B68DB0A03F007030349CB5CC9
:1057300022FA03F3184680BD0010024060BA000848
:1057400080B485B000AF78600A4B1B680A4AA2FBA0
:1057500003235B0A7A6802FB03F3FB6000BFFB686C
:105760005A1EFA60002BF9D100BF00BF1437BD46A6
:1057700080BC704700000020D34D621080B586B019
:1057800000AF786000233B610023FB607B681B68EF
:1057900003F00103002B7DD00023FB754F4BDB6929
:1057A00003F08053002B0DD14C4BDB694B4A43F087
:1057B0008053D361494BDB6903F08053BB60BB6806
:1057C0000123FB75464B1B6803F48073002B18D133
:1057D000434B1B68424A43F480731360FDF794FE09
:1057E000386108E0FDF790FE02463B69D31A642B4E
:1057F00001D903236DE03A4B1B6803F48073002B3F
:10580000F0D0364B1B6A03F44073FB60FB68002B3F
:105810002ED07B685B6803F44073FA689A4227D005
:105820002E4B1B6A23F44073FB602E4B01221A603F
:105830002C4B00221A60294AFB681362FB6803F0B4
:105840000103002B14D0FDF75FFE38610AE0FDF77D
:105850005BFE02463B69D31A41F28832934201D97A
:10586000032336E01D4B1B6A03F00203002BEED02E
:105870001A4B1B6A23F440727B685B681749134319
:105880000B62FB7D012B05D1144BDB69134A23F01E
:105890008053D3617B681B6803F00203002B08D0A0
:1058A0000E4B5B6823F440427B689B680B491343B3
:1058B0004B607B681B6803F01003002B08D0074B7C
:1058C0005B6823F480027B68DB68044913434B6008
:1058D000002318461837BD4680BD00BF00100240A7
:1058E000007000404004424280B582B000AF786052
:1058F0007B68002B01D1012341E07B6893F83D30A8
:10590000DBB2002B06D17B68002283F83C2078684C
:10591000FDF776FB7B68022283F83D207B681A68DE
:105920007B6804331946104600F0F0F87B680122CA
:1059300083F846207B68012283F83E207B680122A1
:1059400083F83F207B68012283F840207B68012296
:1059500083F841207B68012283F842207B68012282
:1059600083F843207B68012283F844207B6801226E
:1059700083F845207B68012283F83D2000231846E8
:105980000837BD4680BD000080B586B000AFF86026
:10599000B9607A600023FB75FB6893F83C30012BFB
:1059A00001D10223AEE0FB68012283F83C207B6832
:1059B0000C2B00F29F8001A252F823F0F15900084D
:1059C000F55A0008F55A0008F55A0008315A00083F
:1059D000F55A0008F55A0008F55A0008735A0008ED
:1059E000F55A0008F55A0008F55A0008B35A00089D
:1059F000FB681B68B968184600F0EAF8FB681B688A
:105A00009A69FB681B6842F008029A61FB681B6890
:105A10009A69FB681B6822F004029A61FB681B68A4
:105A20009969BB681A69FB681B680A439A6164E05C
:105A3000FB681B68B968184600F030F9FB681B6802
:105A40009A69FB681B6842F400629A61FB681B68F4
:105A50009A69FB681B6822F480629A61FB681B6884
:105A60009969BB681B691A02FB681B680A439A6143
:105A700043E0FB681B68B968184600F079F9FB68D9
:105A80001B68DA69FB681B6842F00802DA61FB6890
:105A90001B68DA69FB681B6822F00402DA61FB68A4
:105AA0001B68D969BB681A69FB681B680A43DA611D
:105AB00023E0FB681B68B968184600F0C3F9FB686F
:105AC0001B68DA69FB681B6842F40062DA61FB68F4
:105AD0001B68DA69FB681B6822F48062DA61FB6884
