:020000040800F2
:100000000050002081030008250300082B0300088E
:1000100031030008370300083D030008000000001A
:100020000000000000000000000000004303000882
:100030004F030008000000005B030008670300088E
:10004000C9030008C9030008C9030008C903000860
:10005000C9030008C9030008C9030008C903000850
:10006000C9030008C9030008C9030008C903000840
:10007000C9030008C9030008C9030008C903000830
:10008000C9030008C9030008C9030008C903000820
:10009000C9030008C9030008C9030008C903000810
:1000A000C9030008C9030008C9030008C903000800
:1000B000C9030008C9030008C9030008C9030008F0
:1000C000C9030008C9030008C9030008C9030008E0
:1000D000C9030008C9030008C9030008C9030008D0
:1000E000C9030008C9030008C90300080000000094
:1000F0000000000000000000000000000000000000
:0C01000000000000000000005FF808F1A3
:10010C0010B5054C237833B9044B13B10448AFF345
:10011C0000800123237010BD10000020000000009F
:10012C00C812000808B5034B1BB103490348AFF3D1
:10013C00008008BD0000000014000020C812000858
:10014C0080B485B000AF78607B68FB60FB681B886F
:10015C0018461437BD4680BC7047B0B588B000AFA8
:10016C007860396000233B617B68BB610123FB61D4
:10017C0000F000FB07F10C0207F1100311461846C2
:10018C0000F0E0FB3B681B889BB200221C46154626
:10019C0022462B467968012000F07CFA00F010FB17
:1001AC0000BF2037BD46B0BD80B500AF00F008F9E8
:1001BC0000F01CF800F056F8094B4FF42F721A801F
:1001CC0007490848FFF7C9FF4FF4FA6000F05AF9E5
:1001DC000448FFF7B5FF03461A46034B1A80FEE7A7
:1001EC002C00002000F800082E00002080B590B0F4
:1001FC0000AF07F1180328220021184601F056F829
:10020C003B1D00221A605A609A60DA601A61022360
:10021C00BB610123BB621023FB6200237B6307F1EC
:10022C001803184600F036FC0346002B01D000F0F2
:10023C003BF80F237B600023BB600023FB60002393
:10024C003B6100237B613B1D0021184600F0A4FE9E
:10025C000346002B01D000F027F800BF4037BD4605
:10026C0080BD000080B483B000AF0E4B9B690D4A7B
:10027C0043F0200393610B4B9B6903F020037B60DD
:10028C007B68084B9B69074A43F004039361054B59
:10029C009B6903F004033B603B6800BF0C37BD4611
:1002AC0080BC70470010024080B400AF72B600BF33
:1002BC00FEE7000080B485B000AF154B9B69144A73
:1002CC0043F001039361124B9B6903F00103BB6084
:1002DC00BB680F4BDB690E4A43F08053D3610C4B68
:1002EC00DB6903F080537B607B680A4B5B68FB60C7
:1002FC00FB6823F0E063FB60FB6843F00073FB607A
:10030C00044AFB68536000BF1437BD4680BC70477D
:10031C00001002400000014080B400AFFEE780B442
:10032C0000AFFEE780B400AFFEE780B400AFFEE79D
:10033C0080B400AFFEE780B400AF00BFBD4680BC08
:10034C00704780B400AF00BFBD4680BC704780B41E
:10035C0000AF00BFBD4680BC704780B500AF00F059
:10036C0075F800BF80BD80B400AF00BFBD4680BC37
:10037C00704700000C480D490D4A002302E0D45888
:10038C00C4500433C4188C42F9D30A4A0A4C0023D3
:10039C0001E013600432A242FBD3FFF7E4FF00F04C
:1003AC0061FFFFF701FF7047000000200C000020E8
:1003BC00081300081000002058000020FEE7000081
:1003CC0080B500AF084B1B68074A43F0100313605D
:1003DC00032000F02BF90F2000F008F8FFF76AFF5C
:1003EC000023184680BD00BF0020024080B582B0BB
:1003FC0000AF7860124B1A68124B1B7819464FF4F9
:10040C007A73B3FBF1F3B2FBF3F3184600F035F952
:10041C000346002B01D001230EE07B680F2B0AD87A
:10042C00002279684FF0FF3000F00BF9064A7B6828
:10043C001360002300E0012318460837BD4680BD39
:10044C0000000020080000200400002080B400AF51
:10045C00054B1B781A46054B1B681344034A136063
:10046C0000BFBD4680BC7047080000203000002053
:10047C0080B400AF024B1B681846BD4680BC704769
:10048C003000002080B584B000AF7860FFF7F0FF3B
:10049C00B8607B68FB60FB68B3F1FF3F05D00A4B8B
:1004AC001B781A46FB681344FB6000BFFFF7E0FFA4
:1004BC000246BB68D31AFA689A42F7D800BF00BF4D
:1004CC001037BD4680BD00BF0800002080B485B049
:1004DC0000AF78607B6803F00703FB600C4BDB68B4
:1004EC00BB60BA684FF6FF031340BB60FB681A028F
:1004FC00BB68134343F0BF6343F40033BB60044A4F
:10050C00BB68D36000BF1437BD4680BC704700BFCA
:10051C0000ED00E080B400AF044BDB681B0A03F075
:10052C0007031846BD4680BC704700BF00ED00E0D5
:10053C0080B483B000AF03463960FB7197F9073084
:10054C00002B0ADB3B68DAB20C4997F90730120131
:10055C00D2B20B4483F800230AE03B68DAB20849B4
:10056C00FB7903F00F03043B1201D2B20B441A7651
:10057C0000BF0C37BD4680BC704700BF00E100E0F7
:10058C0000ED00E080B489B000AFF860B9607A602B
:10059C00FB6803F00703FB61FB69C3F10703042B42
:1005AC0028BF0423BB61FB690433062B02D9FB690A
:1005BC00033B00E000237B614FF0FF32BB6902FA82
:1005CC0003F3DA43BB681A407B699A404FF0FF3162
:1005DC007B6901FA03F3D9437B680B40134318463C
:1005EC002437BD4680BC704780B582B000AF7860C0
:1005FC007B68013BB3F1807F01D301230FE00A4AF2
:10060C007B68013B53600F214FF0FF30FFF790FFE9
:10061C00054B00229A60044B07221A6000231846EF
:10062C000837BD4680BD00BF10E000E080B582B049
:10063C0000AF78607868FFF749FF00BF0837BD4608
:10064C0080BD80B586B000AF0346B9607A60FB739D
:10065C0000237B61FFF75EFF78617A68B96878697F
:10066C00FFF790FF024697F90F3011461846FFF737
:10067C005FFF00BF1837BD4680BD80B582B000AFAC
:10068C0078607868FFF7B0FF034618460837BD4618
:10069C0080BD0000F0B587B000AFF860B960C7E965
:1006AC0000230123FB750023BB7500237B752F4BA7
:1006BC001B7E012B01D1022354E02C4B01221A7614
:1006CC004CF2503000F0A8F80346FB75FB7D002B74
:1006DC0044D1FB68012B02D101237B7507E0FB6839
:1006EC00022B02D102237B7501E004237B750023CE
:1006FC00BB752DE0BB7D5A00BB6802EB030CBB7DC8
:10070C001901D7E90023C1F12006A1F1200022FA3A
:10071C0001F403FA06F6344323FA00F0044323FAF7
:10072C0001F5A3B21946604600F05AF84CF250306D
:10073C0000F072F80346FB750D4B1B690C4A23F055
:10074C0001031361FB7D002B07D1BB7D0133BB750E
:10075C00BA7D7B7D9A42CDD300E000BF034B0022D3
:10076C001A76FB7D18461C37BD46F0BD38000020BC
:10077C000020024080B483B000AF0023FB710D4B0E
:10078C001B6903F08003002B0DD00A4B0A4A5A60F8
:10079C00084B0A4A5A60074B1B6903F08003002B75
:1007AC0001D00123FB71FB7918460C37BD4680BC88
:1007BC00704700BF0020024023016745AB89EFCD95
:1007CC0080B400AF054B1B69044A43F080031361EE
:1007DC0000231846BD4680BC704700BF0020024075
:1007EC0080B483B000AF78600B467B80084B00224E
:1007FC00DA61084B1B69074A43F0010313617B68FC
:10080C007A881A8000BF0C37BD4680BC704700BF89
:10081C00380000200020024080B584B000AF786022
:10082C00FFF726FEF86010E07B68B3F1FF3F0CD0B9
:10083C007B68002B07D0FFF71BFE0246FB68D31A20
:10084C007A689A4201D2032325E0154BDB6803F04A
:10085C000103002BE8D1124BDB6803F02003002BC3
:10086C0002D00F4B2022DA600D4BDB6803F0100333
:10087C00002B0BD10A4BDB6903F00103002B05D1D4
:10088C00074BDB6803F00403002B03D000F00AF8DD
:10089C00012300E0002318461037BD4680BD00BF81
:1008AC000020024080B483B000AF00237B60234B58
:1008BC00DB6803F01003002B09D0214BDB6943F0FC
:1008CC0002031F4AD3617B6843F010037B601B4B10
:1008DC00DB6803F00403002B09D0194BDB6943F0F0
:1008EC000103174AD3617B6843F004037B60134B0D
:1008FC00DB6903F00103002B0BD0114BDB6943F0D8
:10090C0004030F4AD3610D4BDB690C4A23F001033E
:10091C00D3617B6840F20112934206D1074BDB692D
:10092C00064A23F00103D36102E0044A7B68D360DA
:10093C0000BF0C37BD4680BC704700BF0020024092
:10094C003800002080B584B000AF78603960012396
:10095C00FB730023BB602F4B1B7E012B01D10223A9
:10096C0053E02C4B01221A767B681B68022B16D1A4
:10097C004CF25030FFF750FF0346002B41D10120C1
:10098C0000F04CF84CF25030FFF746FF0346FB7377
:10099C00214B1B69204A23F00403136131E04CF214
:1009AC005030FFF739FF0346002B2AD13B684FF03C
:1009BC00FF321A607B689B68BB6019E0B86800F076
:1009CC0049F84CF25030FFF727FF0346FB73124BEC
:1009DC001B69114A23F002031361FB7B002B03D02C
:1009EC003B68BA681A600CE0BB6803F58063BB60B7
:1009FC007B68DB689A027B689B681344BA689A42EE
:100A0C00DCD3044B00221A76FB7B18461037BD460C
:100A1C0080BD00BF380000200020024080B483B0AD
:100A2C0000AF7860094B0022DA61094B1B69084A58
:100A3C0043F004031361064B1B69054A43F0400362
:100A4C00136100BF0C37BD4680BC704738000020D6
:100A5C000020024080B483B000AF78600B4B0022C2
:100A6C00DA610B4B1B690A4A43F002031361084A13
:100A7C007B685361064B1B69054A43F040031361C5
:100A8C0000BF0C37BD4680BC704700BF380000204B
:100A9C000020024080B586B000AF78607B68002BE8
:100AAC0001D1012372E27B681B6803F00103002B68
:100ABC0000F08780924B5B6803F00C03042B0CD086
:100ACC008F4B5B6803F00C03082B12D18C4B5B68CB
:100ADC0003F48033B3F5803F0BD1894B1B6803F4CF
:100AEC000033002B6CD07B685B68002B68D1012332
:100AFC004CE27B685B68B3F5803F06D1804B1B688A
:100B0C007F4A43F4803313602EE07B685B68002BD4
:100B1C000CD17B4B1B687A4A23F480331360784BDF
:100B2C001B68774A23F4802313601DE07B685B68A5
:100B3C00B3F5A02F0CD1724B1B68714A43F4802380
:100B4C0013606F4B1B686E4A43F4803313600BE0E9
:100B5C006B4B1B686A4A23F480331360684B1B6829
:100B6C00674A23F4802313607B685B68002B13D0E7
:100B7C00FFF77EFC386108E0FFF77AFC02463B6920
:100B8C00D31A642B01D9032300E25D4B1B6803F4D9
:100B9C000033002BF0D014E0FFF76AFC386108E05A
:100BAC00FFF766FC02463B69D31A642B01D9032379
:100BBC00ECE1534B1B6803F40033002BF0D100E045
:100BCC0000BF7B681B6803F00203002B63D04C4B07
:100BDC005B6803F00C03002B0BD0494B5B6803F0F4
:100BEC000C03082B1CD1464B5B6803F48033002BA1
:100BFC0016D1434B1B6803F00203002B05D07B6816
:100C0C001B69012B01D00123C0E13D4B1B6823F074
:100C1C00F8027B685B69DB00394913430B603AE0EF
:100C2C007B681B69002B20D0364B01221A60FFF722
:100C3C001FFC386108E0FFF71BFC02463B69D31A26
:100C4C00022B01D90323A1E12D4B1B6803F00203F6
:100C5C00002BF0D02A4B1B6823F0F8027B685B69F1
:100C6C00DB00274913430B6015E0264B00221A606A
:100C7C00FFF7FEFB386108E0FFF7FAFB02463B6921
:100C8C00D31A022B01D9032380E11D4B1B6803F0FF
:100C9C000203002BF0D17B681B6803F00803002BC8
:100CAC003AD07B689B69002B19D0174B01221A6034
:100CBC00FFF7DEFB386108E0FFF7DAFB02463B6921
:100CCC00D31A022B01D9032360E10D4B5B6A03F0AD
:100CDC000203002BF0D0012000F0A6FA1CE00A4B16
:100CEC0000221A60FFF7C4FB38610FE0FFF7C0FB6E
:100CFC0002463B69D31A022B08D9032346E100BFF5
:100D0C00001002400000424280044242924B5B6A57
:100D1C0003F00203002BE9D17B681B6803F004038A
:100D2C00002B00F0A6800023FB758B4BDB6903F0D6
:100D3C008053002B0DD1884BDB69874A43F08053DD
:100D4C00D361854BDB6903F08053BB60BB68012327
:100D5C00FB75824B1B6803F48073002B18D17F4BFF
:100D6C001B687E4A43F480731360FFF781FB386184
:100D7C0008E0FFF77DFB02463B69D31A642B01D9CF
:100D8C00032303E1754B1B6803F48073002BF0D035
:100D9C007B68DB68012B06D16F4B1B6A6E4A43F0F4
:100DAC00010313622DE07B68DB68002B0CD16A4BCE
:100DBC001B6A694A23F001031362674B1B6A664A7C
:100DCC0023F0040313621CE07B68DB68052B0CD159
:100DDC00614B1B6A604A43F0040313625E4B1B6A4F
:100DEC005D4A43F0010313620BE05B4B1B6A5A4AEA
:100DFC0023F001031362584B1B6A574A23F0040378
:100E0C0013627B68DB68002B15D0FFF731FB386170
:100E1C000AE0FFF72DFB02463B69D31A41F28832F8
:100E2C00934201D90323B1E04B4B1B6A03F002033D
:100E3C00002BEED014E0FFF71BFB38610AE0FFF744
:100E4C0017FB02463B69D31A41F28832934201D90F
:100E5C0003239BE0404B1B6A03F00203002BEED1F3
:100E6C00FB7D012B05D13C4BDB693B4A23F08053C6
:100E7C00D3617B68DB69002B00F08780364B5B68A5
:100E8C0003F00C03082B61D07B68DB69022B46D185
:100E9C00334B00221A60FFF7EBFA386108E0FFF7DA
:100EAC00E7FA02463B69D31A022B01D903236DE002
:100EBC00294B1B6803F00073002BF0D17B681B6A75
:100ECC00B3F5803F08D1244B5B6823F400327B6878
:100EDC009B68214913434B601F4B5B6823F47412CE
:100EEC007B68196A7B685B6A0B431B4913434B6035
:100EFC001B4B01221A60FFF7BBFA386108E0FFF7C1
:100F0C00B7FA02463B69D31A022B01D903233DE001
:100F1C00114B1B6803F00073002BF0D035E0104B25
:100F2C0000221A60FFF7A4FA386108E0FFF7A0FA74
:100F3C0002463B69D31A022B01D9032326E0064B48
:100F4C001B6803F00073002BF0D11EE07B68DB699B
:100F5C00012B07D1012319E0001002400070004062
:100F6C00600042420B4B5B68FB60FB6803F4803211
:100F7C007B681B6A9A4206D1FB6803F470127B688B
:100F8C005B6A9A4201D0012300E00023184618370F
:100F9C00BD4680BD0010024080B584B000AF7860C3
:100FAC0039607B68002B01D10123D0E06A4B1B68B0
:100FBC0003F007033A689A4210D9674B1B6823F079
:100FCC00070265493B6813430B60634B1B6803F0D6
:100FDC0007033A689A4201D00123B8E07B681B688A
:100FEC0003F00203002B20D07B681B6803F0040382
:100FFC00002B05D0594B5B68584A43F4E0635360AF
:10100C007B681B6803F00803002B05D0534B5B680F
:10101C00524A43F460535360504B5B6823F0F00228
:10102C007B689B684D4913434B607B681B6803F0DE
:10103C000103002B40D07B685B68012B07D1474B29
:10104C001B6803F40033002B15D101237FE07B6870
:10105C005B68022B07D1414B1B6803F00073002B1C
:10106C0009D1012373E03D4B1B6803F00203002BF5
:10107C0001D101236BE0394B5B6823F003027B68E1
:10108C005B68364913434B60FFF7F2F9F8600AE0EE
:10109C00FFF7EEF90246FB68D31A41F2883293420D
:1010AC0001D9032353E02D4B5B6803F00C027B68E2
:1010BC005B689B009A42EBD1274B1B6803F007033C
:1010CC003A689A4210D2244B1B6823F0070222493B
:1010DC003B6813430B60204B1B6803F007033A6813
:1010EC009A4201D0012332E07B681B6803F00403B1
:1010FC00002B08D0194B5B6823F4E0627B68DB683B
:10110C00164913434B607B681B6803F00803002BE4
:10111C0009D0124B5B6823F460527B681B69DB00BF
:10112C000E4913434B6000F021F802460B4B5B68F1
:10113C001B0903F00F030A49CB5C22FA03F3094A9B
:10114C001360094B1B681846FFF750F9002318462B
:10115C001037BD4680BD00BF002002400010024089
:10116C00F0120008000000200400002090B48AB0A7
:10117C0000AF294B3C1D0FCB84E80F0040F201233C
:10118C003B800023FB610023BB6100237B620023B7
:10119C007B6100233B62214B5B68FB61FB6903F0C5
:1011AC000C03042B02D0082B03D02BE01C4B3B620E
:1011BC002BE0FB699B0C03F00F0328333B4413F823
:1011CC00243C7B61FB6903F48033002B12D0134B5E
:1011DC005B685B0C03F0010328333B4413F8283C99
:1011EC00BB617B690E4A03FB02F2BB69B2FBF3F3F2
:1011FC007B6204E07B690B4A02FB03F37B627B6A34
:10120C003B6202E0064B3B6200BF3B6A1846283744
:10121C00BD4690BC704700BFE012000800100240B1
:10122C0000127A0000093D0080B485B000AF7860F0
:10123C000A4B1B680A4AA2FB03235B0A7A6802FB6F
:10124C0003F3FB6000BFFB685A1EFA60002BF9D158
:10125C0000BF00BF1437BD4680BC704700000020A3
:10126C00D34D621070B500260C4D0D4C641BA410B0
:10127C00A64209D100F022F800260A4D0A4C641B44
:10128C00A410A64205D170BD55F8043B9847013611
:10129C00EEE755F8043B98470136F2E700130008D7
:1012AC00001300080013000804130008034602444E
:1012BC00934200D1704703F8011BF9E7F8B500BF62
:1012CC00F8BC08BC9E467047F8B500BFF8BC08BC1B
:0412DC009E46704773
:1012E00002030405060708090A0B0C0D0E0F101067
:1012F00000000000000000000102030406070809C6
:0413000031010008AF
:041304000D010008CF
:0C1308000024F4001000000001000000B0
:04000005080003816B
:00000001FF
