:020000040800F2
:1000000000500020610A0008050A00080B0A0008D9
:10001000110A0008170A00081D0A00080000000065
:10002000000000000000000000000000230A00089B
:100030002F0A0008000000003B0A0008470A0008D9
:10004000A90A0008A90A0008A90A0008A90A0008C4
:10005000A90A0008A90A0008A90A0008A90A0008B4
:10006000A90A0008A90A0008A90A0008A90A0008A4
:10007000A90A0008A90A0008A90A0008A90A000894
:10008000A90A0008A90A0008A90A0008A90A000884
:10009000A90A0008A90A0008A90A0008A90A000874
:1000A000A90A0008A90A0008A90A0008A90A000864
:1000B000A90A0008A90A0008A90A0008A90A000854
:1000C000A90A0008A90A0008A90A0008A90A000844
:1000D000A90A0008A90A0008A90A0008A90A000834
:1000E000A90A0008A90A0008A90A000800000000DF
:1000F0000000000000000000000000000000000000
:0C01000000000000000000005FF808F1A3
:10010C0010B5054C237833B9044B13B10448AFF345
:10011C0000800123237010BD14000020000000009B
:10012C00C424000808B5034B1BB103490348AFF3C3
:10013C00008008BD0000000018000020C424000846
:10014C0080B500AF00F0ACFC00F04CF800F0B4F857
:10015C0000F084F800F024F900224FF400511B4801
:10016C0000F08CFF4FF47A7000F0FCFC01224FF48D
:10017C000051164800F082FF4FF47A7000F0F2FC48
:10018C0001224FF48071124800F078FF114B1B686C
:10019C000133104A13600A220F49642002F040F91F
:1001AC000021002000F064FA01220C490C4800F0F8
:1001BC00F5FA1E210A2000F05BFA012207490648D5
:1001CC0000F0ECFA00F0B0F9C6E700BF00100140F7
:1001DC000008014030000020340000200000002006
:1001EC00DC24000880B590B000AF07F1180328227A
:1001FC000021184602F016F93B1D00221A605A60C5
:10020C009A60DA601A610223BB610123BB6210237E
:10021C00FB6200237B6307F11803184601F0BEFC58
:10022C000346002B01D000F0B5F80F237B600023B0
:10023C00BB600023FB6000233B6100237B613B1D03
:10024C000021184601F02CFF0346002B01D000F0D2
:10025C00A1F800BF4037BD4680BD000080B500AF9F
:10026C00124B134A1A60114B124A5A600F4B002260
:10027C009A600E4B0022DA600C4B4FF480421A61EC
:10028C000A4B00225A61094B00229A61074B00224B
:10029C00DA61064B00221A62044800F007FF03469D
:1002AC00002B01D000F076F800BF80BD6800002064
:1002BC0000540040801A060080B588B000AF07F1EA
:1002CC00100300221A605A609A60DA602E4B9B6908
:1002DC002D4A43F0100393612B4B9B6903F01003E1
:1002EC00FB60FB68284B9B69274A43F02003936112
:1002FC00254B9B6903F02003BB60BB68224B9B69B9
:10030C00214A43F0040393611F4B9B6903F00403E0
:10031C007B607B681C4B9B691B4A43F00803936111
:10032C00194B9B6903F008033B603B6800224FF4B8
:10033C000051164800F0A2FE00224FF480711448C0
:10034C0000F09CFE4FF400533B6101237B610023C2
:10035C00BB610223FB6107F1100319460B4800F047
:10036C0009FD4FF480733B6101237B610023BB616A
:10037C000223FB6107F110031946054800F0FAFC53
:10038C0000BF2037BD4680BD001002400010014068
:10039C000008014080B400AF72B600BFFEE7000059
:1003AC0080B582B000AF00F01FFA44F62063012242
:1003BC0078215B4801F0BCF80346002B01D00023E8
:1003CC00A9E040F6C4137B6002E07B68013B7B60D4
:1003DC007B68002BF9D1AE220021782000F07EFA48
:1003EC0020220021782000F079FA102200217820B8
:1003FC0000F074FAB0220021782000F06FFAC822C5
:10040C000021782000F06AFA00220021782000F008
:10041C0065FA10220021782000F060FA40220021B9
:10042C00782000F05BFA81220021782000F056FA47
:10043C00FF220021782000F051FAA122002178201F
:10044C0000F04CFAA6220021782000F047FAA822EE
:10045C000021782000F042FA3F220021782000F0A1
:10046C003DFAA4220021782000F038FAD322002192
:10047C00782000F033FA00220021782000F02EFAC8
:10048C00D5220021782000F029FAF02200217820D2
:10049C0000F024FAD9220021782000F01FFA222241
:1004AC000021782000F01AFADA220021782000F0DE
:1004BC0015FA12220021782000F010FADB2200211C
:1004CC00782000F00BFA20220021782000F006FAA8
:1004DC008D220021782000F001FA142200217820CE
:1004EC0000F0FCF9AF220021782000F0F7F92E2261
:1004FC000021782000F0F2F9002000F043F800F021
:10050C0013F8084B00221A80064B00225A80054B28
:10051C0001225A71012318460837BD4680BD00BF21
:10052C0068000020BC04002080B582B000AF00231E
:10053C00FB711DE0FB79503BDBB21A4600217820A1
:10054C0000F0CCF900220021782000F0C7F910222D
:10055C000021782000F0C2F9FB79DB01084A1A442B
:10056C0080234021782000F053F9FB790133FB7193
:10057C00FB79072BDED900BF00BF0837BD4680BD15
:10058C00BC00002080B582B000AF0346FB71FB7944
:10059C00002B01D1002300E0FF234FF480621946A9
:1005AC00034801F03FFF00BF0837BD4680BD00BFC8
:1005BC00BC00002080B483B000AF0346FB800B4628
:1005CC00BB801346FB70FB887F2B48D8BB883F2B26
:1005DC0045D8254B1B79002B06D0FB78002B0CBF84
:1005EC0001230023DBB2FB70FB78012B1AD1FA88B4
:1005FC00BB88DB0898B20346DB0113441B4AD35C6F
:10060C005AB2BB8803F00703012101FA03F35BB272
:10061C00134359B2FA880346DB011344C9B2134A97
:10062C00D1541DE0FA88BB88DB0898B20346DB0185
:10063C0013440E4AD35C5AB2BB8803F00703012162
:10064C0001FA03F35BB2DB435BB2134059B2FA8895
:10065C000346DB011344C9B2044AD15400E000BF85
:10066C000C37BD4680BC7047BC040020BC00002089
:10067C0080B483B000AF03460A46FB801346BB80B0
:10068C00054AFB881380044ABB88538000BF0C3793
:10069C00BD4680BC704700BFBC04002080B586B04E
:1006AC0000AF03463960FB711346BB713A4B1B8894
:1006BC001A463B681B7813447F2B07DC364B5B8850
:1006CC001A463B685B7813443F2B01DD00235EE048
:1006DC0000237B614BE03B685A68FB79203B39680F
:1006EC00497801FB03F319467B690B445B00134407
:1006FC001B88FB6000233B6130E0FA683B6902FA1F
:10070C0003F303F40043002B10D0234B1A883B69EE
:10071C009BB2134498B2204B5A887B699BB213440A
:10072C009BB2BA791946FFF745FF14E01A4B1A88A9
:10073C003B699BB2134498B2174B5A887B699BB2A6
:10074C00134499B2BB79002B0CBF01230023DBB2FD
:10075C001A46FFF72FFF3B6901333B613B681B785F
:10076C001A463B699342C8D37B6901337B613B6872
:10077C005B781A467B699342ADD3074B1A883B686A
:10078C001B789BB213449AB2034B1A80FB79184620
:10079C001837BD4680BD00BFBC04002080B584B0B6
:1007AC0000AFF860B9601346FB7112E0FB681B7870
:1007BC00FA79B9681846FFF771FF03461A46FB68C9
:1007CC001B789A4202D0FB681B7808E0FB68013367
:1007DC00FB60FB681B78002BE8D1FB681B78184684
:1007EC001037BD4680BD000080B483B000AF074B0E
:1007FC007B6002E07B68013B7B607B68002BF9D15E
:10080C0000BF00BF0C37BD4680BC704790D00300C2
:10081C0090B5C7B002AF0446084607F58871A1F53C
:10082C0088710A60194607F58873A3F209132246EA
:10083C001A7007F58873A3F5857302461A7007F5CD
:10084C008873A3F586730A461A8007F58873A3F597
:10085C00827307F58872A2F5857212781A700023DC
:10086C0087F80F3115E097F80F3107F58872A2F56C
:10087C00887212681A4497F80F310133117807F512
:10088C008872A2F58272D15497F80F31013387F830
:10089C000F3197F80F319BB207F58872A2F586726B
:1008AC0012889A42DFD807F58873A3F209131B78D4
:1008BC0099B207F58873A3F586731B8801339BB235
:1008CC0007F10C020A200090034800F033FD00BF32
:1008DC0007F58A77BD4690BD6800002080B586B0CC
:1008EC0002AF0346FB710B46BB7113467B71BB79A0
:1008FC003B737B797B73FB7999B207F10C020A236A
:10090C0000930223034800F015FD00BF1037BD46CD
:10091C0080BD00BF6800002080B485B000AF154BCF
:10092C009B69144A43F001039361124B9B6903F0DA
:10093C000103BB60BB680F4BDB690E4A43F080536D
:10094C00D3610C4BDB6903F080537B607B680A4BF3
:10095C005B68FB60FB6823F0E063FB60FB6843F0C3
:10096C000073FB60044AFB68536000BF1437BD463C
:10097C0080BC7047001002400000014080B588B078
:10098C0000AF786007F1100300221A605A609A6079
:10099C00DA607B681B68154A934223D1144B9B6920
:1009AC00134A43F008039361114B9B6903F008034E
:1009BC00FB60FB68C0233B6112237B610323FB615B
:1009CC0007F1100319460B4800F0D4F9084BDB690A
:1009DC00074A43F40013D361054BDB6903F400139E
:1009EC00BB60BB6800BF2037BD4680BD00540040D3
:1009FC0000100240000C014080B400AFFEE780B450
:100A0C0000AFFEE780B400AFFEE780B400AFFEE7B6
:100A1C0080B400AFFEE780B400AF00BFBD4680BC21
:100A2C00704780B400AF00BFBD4680BC704780B437
:100A3C0000AF00BFBD4680BC704780B500AF00F072
:100A4C0075F800BF80BD80B400AF00BFBD4680BC50
:100A5C00704700000C480D490D4A002302E0D458A1
:100A6C00C4500433C4188C42F9D30A4A0A4C0023EC
:100A7C0001E013600432A242FBD3FFF7E4FF01F064
:100A8C0093FCFFF75DFB7047000000201400002072
:100A9C009832000814000020C8040020FEE7000073
:100AAC0080B500AF084B1B68074A43F01003136076
:100ABC00032000F02BF90F2000F008F8FFF72CFFB3
:100ACC000023184680BD00BF0020024080B582B0D4
:100ADC0000AF7860124B1A68124B1B7819464FF412
:100AEC007A73B3FBF1F3B2FBF3F3184600F035F96C
:100AFC000346002B01D001230EE07B680F2B0AD894
:100B0C00002279684FF0FF3000F00BF9064A7B6841
:100B1C001360002300E0012318460837BD4680BD52
:100B2C0008000020100000200C00002080B400AF52
:100B3C00054B1B781A46054B1B681344034A13607C
:100B4C0000BFBD4680BC704710000020C4040020CC
:100B5C0080B400AF024B1B681846BD4680BC704782
:100B6C00C404002080B584B000AF7860FFF7F0FFBC
:100B7C00B8607B68FB60FB68B3F1FF3F05D00A4BA4
:100B8C001B781A46FB681344FB6000BFFFF7E0FFBD
:100B9C000246BB68D31AFA689A42F7D800BF00BF66
:100BAC001037BD4680BD00BF1000002080B485B05A
:100BBC0000AF78607B6803F00703FB600C4BDB68CD
:100BCC00BB60BA684FF6FF031340BB60FB681A02A8
:100BDC00BB68134343F0BF6343F40033BB60044A68
:100BEC00BB68D36000BF1437BD4680BC704700BFE4
:100BFC0000ED00E080B400AF044BDB681B0A03F08F
:100C0C0007031846BD4680BC704700BF00ED00E0EE
:100C1C0080B483B000AF03463960FB7197F907309D
:100C2C00002B0ADB3B68DAB20C4997F9073012014A
:100C3C00D2B20B4483F800230AE03B68DAB20849CD
:100C4C00FB7903F00F03043B1201D2B20B441A766A
:100C5C0000BF0C37BD4680BC704700BF00E100E010
:100C6C0000ED00E080B489B000AFF860B9607A6044
:100C7C00FB6803F00703FB61FB69C3F10703042B5B
:100C8C0028BF0423BB61FB690433062B02D9FB6923
:100C9C00033B00E000237B614FF0FF32BB6902FA9B
:100CAC0003F3DA43BB681A407B699A404FF0FF317B
:100CBC007B6901FA03F3D9437B680B401343184655
:100CCC002437BD4680BC704780B582B000AF7860D9
:100CDC007B68013BB3F1807F01D301230FE00A4A0B
:100CEC007B68013B53600F214FF0FF30FFF790FF03
:100CFC00054B00229A60044B07221A600023184609
:100D0C000837BD4680BD00BF10E000E080B582B062
:100D1C0000AF78607868FFF749FF00BF0837BD4621
:100D2C0080BD80B586B000AF0346B9607A60FB73B6
:100D3C0000237B61FFF75EFF78617A68B968786998
:100D4C00FFF790FF024697F90F3011461846FFF750
:100D5C005FFF00BF1837BD4680BD80B582B000AFC5
:100D6C0078607868FFF7B0FF034618460837BD4631
:100D7C0080BD000080B48BB000AF78603960002378
:100D8C007B6200233B6269E101227B6A02FA03F376
:100D9C00FB613B681B68FA691340BB61BA69FB696C
:100DAC009A4240F058813B685B689A4A93425ED005
:100DBC00984A934275D8984A934258D0964A93428F
:100DCC006FD8964A934252D0944A934269D8944A27
:100DDC0093424CD0924A934263D8924A934246D063
:100DEC00904A93425DD8122B2AD8122B59D801A2C3
:100DFC0052F823F07B0E0008550E0008670E000811
:100E0C00A90E0008AF0E0008AF0E0008AF0E0008C8
:100E1C00AF0E0008AF0E0008AF0E0008AF0E0008B2
:100E2C00AF0E0008AF0E0008AF0E0008AF0E0008A2
:100E3C00AF0E0008AF0E00085D0E0008710E000822
:100E4C00794A934213D02CE03B68DB683B6229E083
:100E5C003B68DB6804333B6224E03B68DB680833A7
:100E6C003B621FE03B68DB680C333B621AE03B687B
:100E7C009B68002B02D104233B6213E03B689B6808
:100E8C00012B05D108233B627B68FA691A6109E0E2
:100E9C0008233B627B68FA695A6103E000233B62DA
:100EAC0000E000BFBB69FF2B01D87B6801E07B68C9
:100EBC0004337B61BB69FF2B02D87B6A9B0002E089
:100ECC007B6A083B9B003B617B691A680F213B697D
:100EDC0001FA03F3DB431A40396A3B6901FA03F365
:100EEC001A437B691A603B685B6803F08053002BE4
:100EFC0000F0B1804D4B9B694C4A43F00103936168
:100F0C004A4B9B6903F00103BB60BB68484A7B6A90
:100F1C009B08023352F82330FB607B6A03F0030317
:100F2C009B000F2202FA03F3DB43FA681340FB60C9
:100F3C007B68404A934213D07B683F4A93420DD062
:100F4C007B683E4A934207D07B683D4A934201D16D
:100F5C00032306E0042304E0022302E0012300E063
:100F6C0000237A6A02F0030292009340FA6813435A
:100F7C00FB602F497B6A9B080233FA6841F82320F7
:100F8C003B685B6803F48033002B06D02D4B1A684A
:100F9C002C49BB6913430B6006E02A4B1A68BB69EA
:100FAC00DB43284913400B603B685B6803F4003358
:100FBC00002B06D0234B5A682249BB6913434B6064
:100FCC0006E0204B5A68BB69DB431E4913404B605B
:100FDC003B685B6803F48013002B06D0194B9A68AE
:100FEC001849BB6913438B6006E0164B9A68BB69C2
:100FFC00DB43144913408B603B685B6803F40013BC
:10100C00002B21D00F4BDA680E49BB691343CB6020
:10101C0021E000BF0000321000003110000022104F
:10102C0000002110000012100000111000100240EE
:10103C000000014000080140000C0140001001407C
:10104C0000140140000401400B4BDA68BB69DB4320
:10105C0009491340CB607B6A01337B623B681A6899
:10106C007B6A22FA03F3002B7FF48EAE00BF00BF25
:10107C002C37BD4680BC70470004014080B483B05F
:10108C0000AF78600B467B8013467B707B78002B1F
:10109C0003D07A887B681A6103E07B881A047B682A
:1010AC001A6100BF0C37BD4680BC704780B584B058
:1010BC0000AF78607B68002B01D101232BE17B68AA
:1010CC0093F83D30DBB2002B06D17B68002283F80D
:1010DC003C207868FFF752FC7B68242283F83D2083
:1010EC007B681B681A687B681B6822F001021A6017
:1010FC007B681B681A687B681B6842F400421A60A4
:10110C007B681B681A687B681B6822F400421A60B3
:10111C0001F018F9F8607B685B68814A934207D844
:10112C00FB68804A934294BF01230023DBB206E0A4
:10113C00FB687D4A934294BF01230023DBB2002B52
:10114C0001D00123E7E0FB68784AA2FB03239B0C48
:10115C00BB607B681B685B6823F03F017B681B6886
:10116C00BA680A435A607B681B681B6A23F03F010C
:10117C007B685B686A4A934202D8BB68013309E01A
:10118C00BB684FF4967202FB03F3694AA2FB03237C
:10119C009B0901337A6812680B4313627B681B68E6
:1011AC00DB6923F44F4222F0FF027B685B685C49E9
:1011BC008B4219D8FB68591E7B685B685B00B1FBDE
:1011CC00F3F3591C40F6FC730B40002B0AD0FB6860
:1011DC00591E7B685B685B00B1FBF3F30133C3F30F
:1011EC000B0351E004234FE07B689B68002B11D16B
:1011FC00FB68581E7B6859680B465B000B44B0FBC0
:10120C00F3F30133C3F30B03002B0CBF01230023B7
:10121C00DBB212E0FB68581E7B6859680B469B00DA
:10122C000B4499000B44B0FBF3F30133C3F30B03F2
:10123C00002B0CBF01230023DBB2002B01D00123B8
:10124C0022E07B689B68002B0ED1FB68581E7B68E4
:10125C0059680B465B000B44B0FBF3F30133C3F34B
:10126C000B0343F400430FE0FB68581E7B6859687E
:10127C000B469B000B4499000B44B0FBF3F301337A
:10128C00C3F30B0343F44043796809681343CB6100
:10129C007B681B681B6823F0C0017B68DA697B687C
:1012AC001B6A1A437B681B680A431A607B681B68BD
:1012BC009B6823F4034323F0FF037A6811697A686F
:1012CC00D26811437A6812680B4393607B681B6881
:1012DC00DB6823F0FF017B685A697B689B691A43C2
:1012EC007B681B680A43DA607B681B681A687B683A
:1012FC001B6842F001021A607B6800221A647B684A
:10130C00202283F83D207B6800221A637B68002230
:10131C0083F83E20002318461037BD4680BD00BF21
:10132C00A08601007F841E00FF083D0083DE1B4366
:10133C00D34D621080B588B002AFF8607A601A465F
:10134C000B467B8113463B81FFF702FC7861FB68FF
:10135C0093F83D30DBB2202B40F0E0807B690093AA
:10136C00192301227049F86800F092FA0346002B09
:10137C0001D00223D3E0FB6893F83C30012B01D160
:10138C000223CCE0FB68012283F83C20FB681B683D
:10139C001B6803F00103012B07D0FB681B681A685C
:1013AC00FB681B6842F001021A60FB681B681A6834
:1013BC00FB681B6822F400621A60FB68212283F828
:1013CC003D20FB68102283F83E20FB6800221A6443
:1013DC00FB687A685A62FB683A895A85FB685B8DB0
:1013EC009AB2FB681A85FB68504ADA6279897B6984
:1013FC003A6AF86800F0CAF90346002B01D00123C1
:10140C008DE000233B61FB681B685B693B61FB68FB
:10141C001B689B693B613B6966E07A69396AF868CD
:10142C0000F00CFB0346002B0DD0FB681B6C042B4F
:10143C0007D1FB681B681A68FB681B6842F40072D2
:10144C001A6001236BE0FB685B6A1A78FB681B6807
:10145C001A61FB685B6A5A1CFB685A62FB685B8DFD
:10146C009BB2013B9AB2FB685A85FB681B8D013B12
:10147C009AB2FB681A85FB681B685B6903F004036E
:10148C00042B1BD1FB681B8D002B17D0FB685B6AF0
:10149C001A78FB681B681A61FB685B6A5A1CFB684C
:1014AC005A62FB685B8D9BB2013B9AB2FB685A8512
:1014BC00FB681B8D013B9AB2FB681A857A69396A05
:1014CC00F86800F0FCFA0346002B0DD0FB681B6C8F
:1014DC00042B07D1FB681B681A68FB681B6842F475
:1014EC0000721A6001231AE0FB681B8D002B94D14B
:1014FC00FB681B681A68FB681B6842F400721A6070
:10150C00FB68202283F83D20FB68002283F83E20F4
:10151C00FB68002283F83C20002300E002231846DD
:10152C001837BD4680BD00BF020010000000FFFF51
:10153C0080B58AB002AFF8607A603B600B467B8165
:10154C00FFF706FBF8610123BB61FB6893F83D30A4
:10155C00DBB2202B40F01181FB690093192301228F
:10156C008849F86800F094F90346002B01D0022357
:10157C0004E1FB6893F83C30012B01D10223FDE020
:10158C00FB68012283F83C20FB681B681B6803F096
:10159C000103012B07D0FB681B681A68FB681B68EA
:1015AC0042F001021A60FB681B681A68FB681B6832
:1015BC0022F400621A60FB68242283F83D20FB6849
:1015CC0000221A64FB68704ADA62FB681B681A68AE
:1015DC00FB681B6842F480721A60FB6900933B68DD
:1015EC0000224FF00111F86800F052F90346002B6D
:1015FC000DD0FB681B681B6803F48073B3F5807F08
:10160C0003D1FB684FF400721A640323B6E07B89A4
:10161C00DBB21A46FB681B6802F0FE021A61FFF788
:10162C0097FAF861FB681B685B6903F00203022BF5
:10163C000CBF01230023DBB2FB75FB681B685B69E5
:10164C0003F48063B3F5806F0CBF01230023DBB27E
:10165C00BB7525E0FFF77CFA0246FB69D31A3A68A2
:10166C009A4202D33B68002B03D1FB68A02283F87B
:10167C003D20FB681B685B6903F00203022B0CBF67
:10168C0001230023DBB2FB75FB681B685B6903F469
:10169C008063B3F5806F0CBF01230023DBB2BB75F5
:1016AC00FB6893F83D30DBB2A02B05D0FB7D002B03
:1016BC0002D1BB7D002BCDD0FB68202283F83D20CE
:1016CC00FB681B685B6903F00203022B29D1FB68E2
:1016DC001B681A68FB681B6842F400721A600023CE
:1016EC003B61FB681B685B693B61FB681B689B6922
:1016FC003B613B69FB690093192301222149F8687E
:10170C0000F0C6F80346002B01D0012336E0FB683D
:10171C00202283F83D20FB68002283F83C20002324
:10172C002CE0FB681B681A68FB681B6842F40072AB
:10173C001A60FB681B686FF480625A61FB69009346
:10174C00192301220F49F86800F0A2F80346002B78
:10175C0001D0012312E0BB690133BB61BA697B681C
:10176C009A42FFF432AFFB68202283F83D20FB68DD
:10177C00002283F83C20012300E002231846203786
:10178C00BD4680BD020010000000FFFF80B588B090
:10179C0002AFF8607A603B600B467B81FB68DB6ACA
:1017AC007B617B69082B06D07B69012B03D07B699D
:1017BC0013F5803F08D1FB681B681A68FB681B682F
:1017CC0042F480721A600BE0FB681B6B122B07D182
:1017DC00FB681B681A68FB681B6842F480721A600D
:1017EC003B6800937B6800224FF00111F86800F011
:1017FC004FF80346002B0DD0FB681B681B6803F4E5
:10180C008073B3F5807F03D1FB684FF400721A64C8
:10181C00032335E0FB681B69B3F5804F08D17B8946
:10182C00DBB21A46FB681B6802F0FE021A611BE071
:10183C007B89DB11DBB203F00603DBB263F00F0331
:10184C00DAB2FB681B681A613B687A680E49F86863
:10185C0000F075F80346002B01D0012310E07B89C2
:10186C00DAB2FB681B681A613B687A680749F8684A
:10187C0000F065F80346002B01D0012300E00023A3
:10188C0018461837BD4680BD080001000200010053
:10189C0080B584B000AFF860B9603B601346FB7153
:1018AC0025E03B68B3F1FF3F21D0FFF751F9024629
:1018BC00BB69D31A3A689A4202D33B68002B16D103
:1018CC00FB6800221A63FB68202283F83D20FB682A
:1018DC00002283F83E20FB681B6C43F02002FB685F
:1018EC001A64FB68002283F83C20012323E0BB68C8
:1018FC001B0CDBB2012B0DD1FB681B685B69DA4357
:10190C00BB6813409BB2002B0CBF01230023DBB23E
:10191C001A460CE0FB681B689B69DA43BB681340F2
:10192C009BB2002B0CBF01230023DBB21A46FB79C0
:10193C009A42B6D0002318461037BD4680BD80B5FC
:10194C0084B000AFF860B9607A603B6051E0FB682E
:10195C001B685B6903F48063B3F5806F23D1FB686C
:10196C001B681A68FB681B6842F400721A60FB68FB
:10197C001B686FF480625A61FB6800221A63FB6873
:10198C00202283F83D20FB68002283F83E20FB6870
:10199C001B6C43F00402FB681A64FB68002283F89A
:1019AC003C20012346E07B68B3F1FF3F21D0FFF7D9
:1019BC00CFF802463B68D31A7A689A4202D37B6806
:1019CC00002B16D1FB6800221A63FB68202283F8D7
:1019DC003D20FB68002283F83E20FB681B6C43F023
:1019EC002002FB681A64FB68002283F83C20012368
:1019FC0020E0BB681B0CDBB2012B0CD1FB681B6815
:101A0C005B69DA43BB6813409BB2002B14BF012304
:101A1C000023DBB20BE0FB681B689B69DA43BB68F5
:101A2C0013409BB2002B14BF01230023DBB2002B0D
:101A3C008DD1002318461037BD4680BD80B584B0CB
:101A4C0000AFF860B9607A602DE0F86800F078F8C3
:101A5C000346002B01D001232DE0BB68B3F1FF3FFF
:101A6C0021D0FFF775F802467B68D31ABA689A4200
:101A7C0002D3BB68002B16D1FB6800221A63FB68EB
:101A8C00202283F83D20FB68002283F83E20FB686F
:101A9C001B6C43F02002FB681A64FB68002283F87D
:101AAC003C20012307E0FB681B685B6903F08003A3
:101ABC00802BCAD1002318461037BD4680BD80B597
:101ACC0084B000AFF860B9607A602DE0F86800F07F
:101ADC0037F80346002B01D001232DE0BB68B3F18E
:101AEC00FF3F21D0FFF734F802467B68D31ABA685F
:101AFC009A4202D3BB68002B16D1FB6800221A63F2
:101B0C00FB68202283F83D20FB68002283F83E20EE
:101B1C00FB681B6C43F02002FB681A64FB68002214
:101B2C0083F83C20012307E0FB681B685B6903F02A
:101B3C000403042BCAD1002318461037BD4680BDC0
:101B4C0080B483B000AF78607B681B685B6903F47A
:101B5C008063B3F5806F1BD17B681B686FF4806268
:101B6C005A617B6800221A637B68202283F83D202F
:101B7C007B68002283F83E207B681B6C43F00402D8
:101B8C007B681A647B68002283F83C20012300E008
:101B9C00002318460C37BD4680BC704780B586B014
:101BAC0000AF78607B68002B01D1012372E27B6867
:101BBC001B6803F00103002B00F08780924B5B68DD
:101BCC0003F00C03042B0CD08F4B5B6803F00C035D
:101BDC00082B12D18C4B5B6803F48033B3F5803F38
:101BEC000BD1894B1B6803F40033002B6CD07B6842
:101BFC005B68002B68D101234CE27B685B68B3F512
:101C0C00803F06D1804B1B687F4A43F480331360BE
:101C1C002EE07B685B68002B0CD17B4B1B687A4AEF
:101C2C0023F480331360784B1B68774A23F48023AA
:101C3C0013601DE07B685B68B3F5A02F0CD1724B71
:101C4C001B68714A43F4802313606F4B1B686E4A08
:101C5C0043F4803313600BE06B4B1B686A4A23F42C
:101C6C0080331360684B1B68674A23F4802313602E
:101C7C007B685B68002B13D0FEF76AFF386108E0C5
:101C8C00FEF766FF02463B69D31A642B01D9032386
:101C9C0000E25D4B1B6803F40033002BF0D014E022
:101CAC00FEF756FF386108E0FEF752FF02463B692B
:101CBC00D31A642B01D90323ECE1534B1B6803F4B7
:101CCC000033002BF0D100E000BF7B681B6803F0F1
:101CDC000203002B63D04C4B5B6803F00C03002B0E
:101CEC000BD0494B5B6803F00C03082B1CD1464B03
:101CFC005B6803F48033002B16D1434B1B6803F055
:101D0C000203002B05D07B681B69012B01D001233A
:101D1C00C0E13D4B1B6823F0F8027B685B69DB007C
:101D2C00394913430B603AE07B681B69002B20D0C8
:101D3C00364B01221A60FEF70BFF386108E0FEF704
:101D4C0007FF02463B69D31A022B01D90323A1E1F9
:101D5C002D4B1B6803F00203002BF0D02A4B1B68A1
:101D6C0023F0F8027B685B69DB00274913430B60A7
:101D7C0015E0264B00221A60FEF7EAFE386108E0F7
:101D8C00FEF7E6FE02463B69D31A022B01D9032368
:101D9C0080E11D4B1B6803F00203002BF0D17B6824
:101DAC001B6803F00803002B3AD07B689B69002B5F
:101DBC0019D0174B01221A60FEF7CAFE386108E0F1
:101DCC00FEF7C6FE02463B69D31A022B01D9032348
:101DDC0060E10D4B5B6A03F00203002BF0D0012095
:101DEC0000F0C4FA1CE00A4B00221A60FEF7B0FEA9
:101DFC0038610FE0FEF7ACFE02463B69D31A022BAA
:101E0C0008D9032346E100BF001002400000424203
:101E1C0080044242924B5B6A03F00203002BE9D12F
:101E2C007B681B6803F00403002B00F0A6800023E2
:101E3C00FB758B4BDB6903F08053002B0DD1884B6A
:101E4C00DB69874A43F08053D361854BDB6903F030
:101E5C008053BB60BB680123FB75824B1B6803F48A
:101E6C008073002B18D17F4B1B687E4A43F4807320
:101E7C001360FEF76DFE386108E0FEF769FE02465E
:101E8C003B69D31A642B01D9032303E1754B1B68FF
:101E9C0003F48073002BF0D07B68DB68012B06D138
:101EAC006F4B1B6A6E4A43F0010313622DE07B6893
:101EBC00DB68002B0CD16A4B1B6A694A23F00103C7
:101ECC001362674B1B6A664A23F0040313621CE01F
:101EDC007B68DB68052B0CD1614B1B6A604A43F0B5
:101EEC00040313625E4B1B6A5D4A43F001031362E9
:101EFC000BE05B4B1B6A5A4A23F001031362584BED
:101F0C001B6A574A23F0040313627B68DB68002BBF
:101F1C0015D0FEF71DFE38610AE0FEF719FE0246E9
:101F2C003B69D31A41F28832934201D90323B1E0C1
:101F3C004B4B1B6A03F00203002BEED014E0FEF7B0
:101F4C0007FE38610AE0FEF703FE02463B69D31A2E
:101F5C0041F28832934201D903239BE0404B1B6A28
:101F6C0003F00203002BEED1FB7D012B05D13C4B82
:101F7C00DB693B4A23F08053D3617B68DB69002B20
:101F8C0000F08780364B5B6803F00C03082B61D0A4
:101F9C007B68DB69022B46D1334B00221A60FEF7BB
:101FAC00D7FD386108E0FEF7D3FD02463B69D31A32
:101FBC00022B01D903236DE0294B1B6803F000733E
:101FCC00002BF0D17B681B6AB3F5803F08D1244B02
:101FDC005B6823F400327B689B68214913434B6098
:101FEC001F4B5B6823F474127B68196A7B685B6A0D
:101FFC000B431B4913434B601B4B01221A60FEF72A
:10200C00A7FD386108E0FEF7A3FD02463B69D31A31
:10201C00022B01D903233DE0114B1B6803F0007325
:10202C00002BF0D035E0104B00221A60FEF790FD2B
:10203C00386108E0FEF78CFD02463B69D31A022B8F
:10204C0001D9032326E0064B1B6803F00073002B19
:10205C00F0D11EE07B68DB69012B07D1012319E06D
:10206C000010024000700040600042420B4B5B6865
:10207C00FB60FB6803F480327B681B6A9A4206D1D2
:10208C00FB6803F470127B685B6A9A4201D00123EF
:10209C0000E0002318461837BD4680BD00100240F2
:1020AC0080B584B000AF786039607B68002B01D1BB
:1020BC000123D0E06A4B1B6803F007033A689A428D
:1020CC0010D9674B1B6823F0070265493B68134323
:1020DC000B60634B1B6803F007033A689A4201D00C
:1020EC000123B8E07B681B6803F00203002B20D0AF
:1020FC007B681B6803F00403002B05D0594B5B680D
:10210C00584A43F4E06353607B681B6803F0080390
:10211C00002B05D0534B5B68524A43F46053536019
:10212C00504B5B6823F0F0027B689B684D4913436E
:10213C004B607B681B6803F00103002B40D07B686D
:10214C005B68012B07D1474B1B6803F40033002B52
:10215C0015D101237FE07B685B68022B07D1414BD3
:10216C001B6803F00073002B09D1012373E03D4B76
:10217C001B6803F00203002B01D101236BE0394BE8
:10218C005B6823F003027B685B68364913434B6042
:10219C00FEF7DEFCF8600AE0FEF7DAFC0246FB68AC
:1021AC00D31A41F28832934201D9032353E02D4BC9
:1021BC005B6803F00C027B685B689B009A42EBD176
:1021CC00274B1B6803F007033A689A4210D2244B42
:1021DC001B6823F0070222493B6813430B60204B1A
:1021EC001B6803F007033A689A4201D0012332E0DE
:1021FC007B681B6803F00403002B08D0194B5B6849
:10220C0023F4E0627B68DB68164913434B607B6800
:10221C001B6803F00803002B09D0124B5B6823F4F6
:10222C0060527B681B69DB000E4913434B6000F066
:10223C0021F802460B4B5B681B0903F00F030A499C
:10224C00CB5C22FA03F3094A1360094B1B6818464E
:10225C00FEF73CFC002318461037BD4680BD00BF7E
:10226C0000200240001002405032000808000020FC
:10227C000C00002090B48AB000AF294B3C1D0FCB52
:10228C0084E80F0040F201233B800023FB61002314
:10229C00BB6100237B6200237B6100233B62214BEB
:1022AC005B68FB61FB6903F00C03042B02D0082B69
:1022BC0003D02BE01C4B3B622BE0FB699B0C03F027
:1022CC000F0328333B4413F8243C7B61FB6903F474
:1022DC008033002B12D0134B5B685B0C03F00103B3
:1022EC0028333B4413F8283CBB617B690E4A03FB43
:1022FC0002F2BB69B2FBF3F37B6204E07B690B4A2D
:10230C0002FB03F37B627B6A3B6202E0064B3B629F
:10231C0000BF3B6A18462837BD4690BC704700BFCB
:10232C00E42400080010024000127A0000093D006D
:10233C0080B400AF024B1B681846BD4680BC70478A
:10234C000800002080B500AFFFF7F2FF0246054BF6
:10235C005B681B0A03F007030349CB5C22FA03F307
:10236C00184680BD001002406032000880B485B071
:10237C0000AF78600A4B1B680A4AA2FB03235B0A76
:10238C007A6802FB03F3FB6000BFFB685A1EFA601D
:10239C00002BF9D100BF00BF1437BD4680BC70477D
:1023AC0008000020D34D621070B500260C4D0D4C6A
:1023BC00641BA410A64209D100F07EF800260A4D39
:1023CC000A4C641BA410A64205D170BD55F8043B01
:1023DC0098470136EEE755F8043B98470136F2E78B
:1023EC0090320008903200089032000894320008B5
:1023FC00931E222B10B50C4604D900231C460B70DF
:10240C00204610BD0A2A09D1002807DA2D230B70AB
:10241C0001214042214400F00DF8F1E70021F9E7D9
:10242C00FFF7E6BF03460244934200D1704703F81E
:10243C00011BF9E7F0B58BB005460B466E461D4CFB
:10244C0004F1200C374620686168083403C76445E2
:10245C003E46F7D1217920683971911E22293860C6
:10246C004FF0000104D919700B4618460BB0F0BDA3
:10247C00581E8446B5FBF2F702FB175628366E44FD
:10248C0016F8286C0C460CF8016F2E46B2423D46ED
:10249C0001F10101EED900225A541919A51AAA42C8
:1024AC00E3DA10F8015F0E780132067001F8015979
:1024BC00F4E700BF68320008F8B500BFF8BC08BCF0
:1024CC009E467047F8B500BFF8BC08BC9E467047E6
:1024DC004769746D650000000203040506070809CE
:1024EC000A0B0C0D0E0F1010000000000000000075
:1024FC0000000000000000000000000000000000D0
:10250C000000000000000000000000000000000CB3
:10251C00000C000C000C000C000C000C000C000C4F
:10252C00000C000C0000000C000C0000000000006F
:10253C000000001B001B001B001B001B0000000008
:10254C00000000000000000000000000000000007F
:10255C000000000000008019801980198019C07FCC
:10256C00C07F80190033C07FC07F0033003300333D
:10257C0000330000000000000000001E003F8075CA
:10258C0080650074003C001E000780058065806536
:10259C008075003F001E0004000400000000007065
:1025AC0000D840D8C0D880D900730006000C801B1E
:1025BC00C036C066C046C0068003000000000000A4
:1025CC000000001E003F003300330033001E000CDF
:1025DC00C03CC066806380618063C03E801C00008C
:1025EC00000000000000000C000C000C000C000CA3
:1025FC0000000000000000000000000000000000CF
:10260C000000000000000000800000010003000634
:10261C0000060004000C000C000C000C000C000C5C
:10262C0000040006000600030001800000200010DA
:10263C000018000C000C0004000600060006000642
:10264C00000600060004000C000C0018001000200E
:10265C000000000C002D003F001E003300000000A5
:10266C00000000000000000000000000000000005E
:10267C0000000000000000000000000C000C000C2A
:10268C00000CC0FFC0FF000C000C000C000C000084
:10269C00000000000000000000000000000000002E
:1026AC00000000000000000000000000000000001E
:1026BC000000000C000C00040004000800000000E6
:1026CC000000000000000000000000000000001EE0
:1026DC00001E0000000000000000000000000000D0
:1026EC0000000000000000000000000000000000DE
:1026FC0000000000000000000000000C000C0000B6
:10270C0000000000000000030003000300060006A8
:10271C0000060006000C000C000C000C0018001841
:10272C0000180000000000000000001E003F0033F5
:10273C00806180618061806D806D8061806180616D
:10274C000033003F001E00000000000000000006E7
:10275C00000E001E003600260006000600060006CD
:10276C00000600060006000600060000000000003F
:10277C000000001E003F80738061806180010003B7
:10278C000006000C001800300060807F807F000085
:10279C00000000000000001C003E0063006300030A
:1027AC00000E000E00038001800180618073003FE9
:1027BC00001E00000000000000000006000E000ECD
:1027CC00001E001E0016003600360066807F807FDB
:1027DC000006000600060000000000000000007F5C
:1027EC00007F006000600060006E007F80638001ED
:1027FC00800180618073003F001E0000000000001B
:10280C000000001E003F803380610060006E007F7E
:10281C0080738061806180618033003F001E000006
:10282C00000000000000807F807F80010003000317
:10283C0000060006000C000C000C00080018001824
:10284C0000180000000000000000001E003F806324
:10285C00806180610021001E003F80618061806189
:10286C008061003F001E0000000000000000001E00
:10287C00003F00738061806180618073803F801DA8
:10288C00800180610073003F001E0000000000000A
:10289C0000000000000000000000000C000C000014
:1028AC0000000000000000000000000C000C000004
:1028BC00000000000000000000000000000000000C
:1028CC00000C000C00000000000000000000000CD8
:1028DC00000C0004000400080000000000000000D0
:1028EC0080008003000E003800600038000E80036A
:1028FC00800000000000000000000000000000004C
:10290C00000000000000807F807F00000000807FBE
:10291C00807F0000000000000000000000000000AC
:10292C00000000000000000000400070001C0007C8
:10293C0080010007001C0070004000000000000037
:10294C00000000000000001F803FC071C060C0008C
:10295C00C00180030007000E000C000C0000000CEE
:10296C00000C0000000000000000001E003F803141
:10297C0080718063806F806D806D806F8067006078
:10298C000032003E001C0000000000000000000EA1
:10299C00000E001B001B001B001B80318031803F90
:1029AC00803F8031C060C060C0600000000000004B
:1029BC000000007C007E0063006300630063007E07
:1029CC00007E0063806180618063007F007E000078
:1029DC00000000000000001E003F8031806100609C
:1029EC000060006000600060006080618031003F2A
:1029FC00001E0000000000000000007C007F00634F
:102A0C00806380618061806180618061806100632E
:102A1C000063007E007C0000000000000000807F4E
:102A2C00807F0060006000600060007F007F0060BD
:102A3C00006000600060807F807F0000000000006C
:102A4C000000807F807F0060006000600060007F7D
:102A5C00007F0060006000600060006000600000AB
:102A6C00000000000000001E003F8031806100600B
:102A7C000060006080638063806180618031803F92
:102A8C00001E000000000000000080618061806179
:102A9C00806180618061807F807F806180618061E6
:102AAC008061806180610000000000000000003F38
:102ABC00003F000C000C000C000C000C000C000C77
:102ACC00000C000C000C003F003F00000000000058
:102ADC000000800180018001800180018001800163
:102AEC0080018001806180618073003F001E0000C6
:102AFC00000000000000C06080610063006600669A
:102B0C00006C0078007C0066006600638061806168
:102B1C00C060000000000000000000600060006069
:102B2C000060006000600060006000600060006099
:102B3C000060807F807F0000000000000000C071FA
:102B4C00C071C07BC07AC06AC06AC06EC064C0600D
:102B5C00C060C060C060C060C060000000000000C9
:102B6C00000080718071807980798079806D806DB2
:102B7C00806D8065806780678067806380630000FC
:102B8C00000000000000001E003F003380618061E7
:102B9C008061806180618061806180610033003F71
:102BAC00001E0000000000000000007E007F80631B
:102BBC008061806180618063007F007E00600060C6
:102BCC000060006000600000000000000000001EBB
:102BDC00003F003380618061806180618061806131
:102BEC00806580670033803F401E000000000000BD
:102BFC000000007E007F8063806180618063007FC5
:102C0C00007E00660063006380618061C06000002C
:102C1C00000000000000000E001F803180310030E9
:102C2C000038001E00078003806180618031003F06
:102C3C00001E0000000000000000C0FFC0FF000CE0
:102C4C00000C000C000C000C000C000C000C000C18
:102C5C00000C000C000C0000000000000000806163
:102C6C008061806180618061806180618061806150
:102C7C00806180618073003F001E00000000000036
:102C8C000000C060C060C060803180318031001BAA
:102C9C00001B001B001B000E000E000E00040000A9
:102CAC00000000000000C0C0C0C0C0C0C0C0C0C098
:102CBC00C0CC804C804C805E80528052807380618E
:102CCC0080610000000000000000C0C080608061D6
:102CDC000033003B001E000C000C001E001F003BCC
:102CEC0080718061C0C00000000000000000C0C006
:102CFC008061806100330033001E001E000C000C4C
:102D0C00000C000C000C000C000C0000000000007B
:102D1C000000803F803F8001000300030006000C90
:102D2C00000C0018001800300060807F807F0000CD
:102D3C0000000000000F000F000C000C000C000C39
:102D4C00000C000C000C000C000C000C000C000C17
:102D5C00000C000C000F000F0000001800180018E9
:102D6C00000C000C000C000C00060006000600060F
:102D7C00000300030003000000000000001E001E02
:102D8C000006000600060006000600060006000607
:102D9C00000600060006000600060006001E001EC7
:102DAC000000000C000C001E001200330033806188
:102DBC008061000000000000000000000000000026
:102DCC0000000000000000000000000000000000F7
:102DDC0000000000000000000000000000000000E7
:102DEC0000000000E0FF0000000000380018000C9C
:102DFC0000000000000000000000000000000000C7
:102E0C0000000000000000000000000000000000B6
:102E1C00000000000000001F803F80618001801FC7
:102E2C00803F80618063807FC0380000000000001C
:102E3C0000000060006000600060006E007F807326
:102E4C0080618061806180618073007F006E000012
:102E5C000000000000000000000000000000001E48
:102E6C00003F807380610060006080618073003F70
:102E7C00001E0000000000000000800180018001A5
:102E8C008001801D803F80738061806180618061E2
:102E9C008073803F801D00000000000000000000D7
:102EAC00000000000000001E003F00738061807F66
:102EBC00807F00608071003F001E00000000000059
:102ECC000000C007C00F000C000C807F807F000C3E
:102EDC00000C000C000C000C000C000C000C000092
:102EEC00000000000000000000000000801D803F7A
:102EFC00807380618061806180618073803F801D00
:102F0C0080018063007F003E000000600060006074
:102F1C000060006F807F8071806180618061806162
:102F2C0080618061806100000000000000000006EC
:102F3C00000600000000003E003E000600060006F1
:102F4C000006000600060006000600000000000057
:102F5C000006000600000000003E003E00060006D1
:102F6C0000060006000600060006000600060046E5
:102F7C00007E003C0000006000600060006080612A
:102F8C0000630066006C007C007600630063806167
:102F9C00C0600000000000000000003E003E000683
:102FAC0000060006000600060006000600060006E5
:102FBC0000060006000600000000000000000000F3
:102FCC0000000000000080DDC0FFC0CEC0CCC0CC33
:102FDC00C0CCC0CCC0CCC0CCC0CC00000000000029
:102FEC0000000000000000000000006F807F807176
:102FFC00806180618061806180618061806100009E
:10300C000000000000000000000000000000001E96
:10301C00003F807380618061806180618073003FBC
:10302C00001E000000000000000000000000000076
:10303C00006E007F8073806180618061806180732D
:10304C00007F006E00600060006000600000000007
:10305C0000000000801D803F807380618061806172
:10306C0080618073803F801D800180018001800120
:10307C00000000000000000000000067803F0039E5
:10308C0000300030003000300030003000300000E4
:10309C000000000000000000000000000000001E06
:1030AC00803F80610060007F803F80018061007FF5
:1030BC00001E0000000000000000000000080018C6
:1030CC000018007F007F0018001800180018001866
:1030DC000018801F800F000000000000000000009E
:1030EC00000000000000806180618061806180616F
:1030FC00806180618063807F803D00000000000063
:10310C0000000000000000000000C0608031803131
:10311C008031001B001B001B000E000E000600007F
:10312C00000000000000000000000000000080DD36
:10313C0080DD80DD005500550055007700770022BA
:10314C000022000000000000000000000000000051
:10315C000000806100330033001E000C000C001EC8
:10316C00003300338061000000000000000000000C
:10317C000000000080618061803100330033001B4F
:10318C00001B001B000E000E000E001C007C0070CB
:10319C0000000000000000000000C07FC07F800124
:1031AC0000030006000C00180030C07FC07F000038
:1031BC0000000000800380070006000600060006E1
:1031CC000006000E001C001C000E00060006000687
:1031DC0000060006800780030006000600060006B5
:1031EC0000060006000600060006000600060006A3
:1031FC000006000600060006000600060038003C2B
:10320C00000C000C000C000C000C000E000700075A
:10321C00000E000C000C000C000C000C003C0038E4
:10322C0000000000000000000000000000008038DA
:10323C00807F00470000000000000000000000003C
:10324C000000000000000000000000000102030468
:10325C000607080900000000010203043031323374
:10326C003435363738396162636465666768696A14
:10327C006B6C6D6E6F707172737475767778797A1A
:04328C00000000003E
:043290003101000800
:043294000D01000820
:103298000B120000F42400080024F40010000000C1
:0432A8000100000021
:0400000508000A6184
:00000001FF
