:020000040800F2
:1000000000500020850B0008290B00082F0B00086A
:10001000350B00083B0B0008410B000800000000F6
:10002000000000000000000000000000470B000876
:10003000530B0008000000005F0B00086B0B00086A
:10004000CD0B0008CD0B0008CD0B0008CD0B000830
:10005000CD0B0008CD0B0008CD0B0008CD0B000820
:10006000CD0B0008CD0B0008CD0B0008CD0B000810
:10007000CD0B0008CD0B0008CD0B0008CD0B000800
:10008000CD0B0008CD0B0008CD0B0008CD0B0008F0
:10009000CD0B0008CD0B0008CD0B0008CD0B0008E0
:1000A000CD0B0008CD0B0008CD0B0008CD0B0008D0
:1000B000CD0B0008CD0B0008CD0B0008CD0B0008C0
:1000C000CD0B0008CD0B0008CD0B0008CD0B0008B0
:1000D000CD0B0008CD0B0008CD0B0008CD0B0008A0
:1000E000CD0B0008CD0B0008CD0B00080000000070
:1000F0000000000000000000000000000000000000
:0C01000000000000000000005FF808F1A3
:10010C0010B5054C237833B9044B13B10448AFF345
:10011C0000800123237010BD0C00002000000000A3
:10012C00081F000808B5034B1BB103490348AFF384
:10013C00008008BD0000000010000020081F00080F
:10014C0080F0004002E000BF81F0004142001FBF80
:10015C005FEA410392EA030F7FEA226C7FEA236C89
:10016C006AD04FEA1262D2EB1363C1BFD21841407E
:10017C0048404140B8BF5B42192B88BF704710F014
:10018C00004F40F4000020F07F4018BF404211F0B7
:10019C00004F41F4000121F07F4118BF494292EA1F
:1001AC00030F3FD0A2F1010241FA03FC10EB0C004B
:1001BC00C3F1200301FA03F100F0004302D54942D8
:1001CC0060EB4000B0F5000F13D3B0F1807F06D385
:1001DC0040084FEA310102F10102FE2A51D2B1F17D
:1001EC00004F40EBC25008BF20F0010040EA030072
:1001FC007047490040EB0000013A28BFB0F5000FF2
:10020C00EDD2B0FA80FCACF1080CB2EB0C0200FAA7
:10021C000CF0AABF00EBC25052421843BCBFD040F6
:10022C001843704792F0000F81F4000106BF80F470
:10023C0000000132013BB5E74FEA41037FEA226C33
:10024C0018BF7FEA236C21D092EA030F04D092F0FE
:10025C00000F08BF0846704790EA010F1CBF002032
:10026C00704712F07F4F04D1400028BF40F000408F
:10027C00704712F100723CBF00F50000704700F0AF
:10028C00004343F0FE4040F4000070477FEA2262D6
:10029C0016BF08467FEA23630146420206BF5FEAA7
:1002AC00412390EA010F40F4800070474FF00003A7
:1002BC0004E000BF10F0004348BF40425FEA000C6E
:1002CC0008BF704743F0964301464FF000001CE016
:1002DC0050EA010208BF70474FF000030AE000BF6C
:1002EC0050EA010208BF704711F0004302D54042AA
:1002FC0061EB41015FEA010C02BF8446014600201C
:10030C0043F0B64308BFA3F18053A3F50003BCFA36
:10031C008CF2083AA3EBC25310DB01FA02FC6344E3
:10032C0000FA02FCC2F12002BCF1004F20FA02F2EA
:10033C0043EB020008BF20F00100704702F12002DD
:10034C0001FA02FCC2F1200250EA4C0021FA02F23E
:10035C0043EB020008BF20EADC7070474FF0FF0C43
:10036C001CEAD0521EBF1CEAD15392EA0C0F93EA3E
:10037C000C0F6FD01A4480EA010C400218BF5FEAE0
:10038C0041211ED04FF0006343EA501043EA511153
:10039C00A0FB01310CF00040B1F5000F3EBF49004D
:1003AC0041EAD3715B0040EA010062F17F02FD2A51
:1003BC001DD8B3F1004F40EBC25008BF20F0010034
:1003CC00704790F0000F0CF0004C08BF49024CEA4B
:1003DC00502040EA51207F3AC2BFD2F1FF0340EADD
:1003EC00C250704740F400004FF00003013A5DDC4E
:1003FC0012F1190FDCBF00F000407047C2F100028F
:10040C00410021FA02F1C2F1200200FA02FC5FEA7B
:10041C00310040F1000053EA4C0308BF20EADC70C5
:10042C00704792F0000F00F0004C02BF400010F437
:10043C00000F013AF9D040EA0C0093F0000F01F0E4
:10044C00004C02BF490011F4000F013BF9D041EA06
:10045C000C018FE70CEAD15392EA0C0F18BF93EA08
:10046C000C0F0AD030F0004C18BF31F0004CD8D132
:10047C0080EA010000F00040704790F0000F17BFB9
:10048C0090F0004F084691F0000F91F0004F14D0FF
:10049C0092EA0C0F01D142020FD193EA0C0F03D157
:1004AC004B0218BF084608D180EA010000F000405A
:1004BC0040F0FE4040F40000704740F0FE4040F435
:1004CC00400070474FF0FF0C1CEAD0521EBF1CEAD4
:1004DC00D15392EA0C0F93EA0C0F69D0A2EB0302F2
:1004EC0080EA010C49024FEA402037D04FF080538C
:1004FC0043EA111143EA10130CF000408B4238BF51
:10050C005B0042F17D024FF4000C8B4224BF5B1A5E
:10051C0040EA0C00B3EB510F24BFA3EB510340EAAC
:10052C005C00B3EB910F24BFA3EB910340EA9C005A
:10053C00B3EBD10F24BFA3EBD10340EADC001B01CA
:10054C0018BF5FEA1C1CE0D1FD2A3FF650AF8B426E
:10055C0040EBC25008BF20F0010070470CF0004C7B
:10056C004CEA50207F32C2BFD2F1FF0340EAC250A6
:10057C00704740F400004FF00003013A37E792F067
:10058C00000F00F0004C02BF400010F4000F013AC5
:10059C00F9D040EA0C0093F0000F01F0004C02BFC0
:1005AC00490011F4000F013BF9D041EA0C0195E729
:1005BC000CEAD15392EA0C0F08D142027FF47DAFC2
:1005CC0093EA0C0F7FF470AF084676E793EA0C0FB2
:1005DC0004D14B023FF44CAF08466EE730F0004CB0
:1005EC0018BF31F0004CCAD130F000427FF45CAF40
:1005FC0031F000437FF43CAF5FE700BF80B483B0C1
:10060C0000AF7860084B1B6800225A6200BF064B93
:10061C001B685B6A7A689A42F9D800BF00BF0C3736
:10062C00BD4680BC704700BF3400002080B586B04A
:10063C0000AF78600B467B8007F1080300221A603C
:10064C005A609A60DA607B88BB600123FB600223EE
:10065C007B6107F108031946786800F01DFC00BFA8
:10066C001837BD4680BD80B586B000AF78600B46AC
:10067C007B8007F1080300221A605A609A60DA60E6
:10068C007B88BB600023FB6001233B6107F10803FF
:10069C001946786800F000FC00BF1837BD4680BDD5
:1006AC0080B582B000AF0023FB7102211348FFF725
:1006BC00BDFF00220221114800F089FD4FF4F070BB
:1006CC00FFF79CFF02210D48FFF7CDFF5020FFF7ED
:1006DC0095FF0221094800F063FD0346002B02D16F
:1006EC000123FB7101E0FF23FB714FF4C870FFF78E
:1006FC0085FFFB7918460837BD4680BD00080140D0
:10070C0080B584B000AF0346FB7102211E48FFF791
:10071C008DFF0023FB602EE0FA79FB6842FA03F3AD
:10072C0003F00103002B13D002211748FFF77EFFC3
:10073C0000220221144800F04AFD0120FFF75EFF61
:10074C0002211148FFF78FFF3220FFF757FF0FE010
:10075C0002210D48FFF76AFF002202210A4800F02F
:10076C0036FD3220FFF74AFF02210748FFF77BFFD7
:10077C00FB680133FB60FB68072BCDDD00BF00BFBE
:10078C001037BD4680BD00BF0008014080B582B067
:10079C0000AF0023FB7102211A48FFF764FF00230E
:1007AC003B6026E002211748FFF740FF00220221A0
:1007BC00144800F00CFD0120FFF720FF0221114826
:1007CC00FFF751FF02210F4800F0EAFC0346002B13
:1007DC0009D001223B6802FA03F35AB297F90730A9
:1007EC0013435BB2FB713220FFF708FF3B68013308
:1007FC003B603B68072BD5DDFB7918460837BD46B7
:10080C0080BD00BF0008014080B500AF00F0DAF9F0
:10081C0000F05CF800F0EEF800F09EF8FFF740FFF7
:10082C0003461A46244B1A70012000F02DFACC20F6
:10083C00FFF766FF4420FFF763FF4FF4487000F0AA
:10084C0023FAFFF72DFF03461A461B4B1A700120A3
:10085C0000F01AFACC20FFF753FFBE20FFF750FF31
:10086C00FFF794FF03461A46144B1A70FFF78EFFDE
:10087C0003461A46124B1A70114B1B781B021AB204
:10088C000E4B1B781BB213431BB29AB20D4B1A8042
:10089C000C4B1B881846FFF709FD03464FF08341AC
:1008AC001846FFF70FFE03461A46074B1A604FF423
:1008BC007A7000F0E9F9B1E7300000202800002040
:1008CC00290000202A0000202C00002080B590B0C8
:1008DC0000AF07F1180328220021184601F006FB8F
:1008EC003B1D00221A605A609A60DA601A6101237B
:1008FC00BB614FF48033FB6100233B620123BB627D
:10090C0002237B634FF48033BB634FF4E013FB6330
:10091C0007F11803184600F073FC0346002B01D0B6
:10092C0000F0A6F80F237B600223BB600023FB6062
:10093C004FF480633B6100237B613B1D0221184611
:10094C0000F0E0FE0346002B01D000F091F800BF50
:10095C004037BD4680BD000080B586B000AF07F1C2
:10096C00080300221A605A609A60DA603B46002243
:10097C001A605A601D4B1E4A1A601C4B00225A60AA
:10098C001A4B00229A60194B4FF6FF72DA60174B24
:10099C0000221A61154B00229A61144801F018F8D4
:1009AC000346002B01D000F063F84FF48053BB607A
:1009BC0007F1080319460D4801F059F80346002BBE
:1009CC0001D000F055F800233B6000237B603B46D0
:1009DC001946064801F008FA0346002B01D000F036
:1009EC0047F800BF1837BD4680BD00BF340000205B
:1009FC000008004080B586B000AF07F10803002264
:100A0C001A605A609A60DA60174B9B69164A43F079
:100A1C0020039361144B9B6903F020037B607B687C
:100A2C00114B9B69104A43F0040393610E4B9B6975
:100A3C0003F004033B603B68002202210B4800F0EA
:100A4C00C6FB0223BB600123FB6000233B61022336
:100A5C007B6107F108031946044800F01DFA00BF3A
:100A6C001837BD4680BD00BF001002400008014091
:100A7C0080B400AF72B600BFFEE7000080B485B052
:100A8C0000AF154B9B69144A43F001039361124B61
:100A9C009B6903F00103BB60BB680F4BDB690E4A1B
:100AAC0043F08053D3610C4BDB6903F080537B60C4
:100ABC007B680A4B5B68FB60FB6823F0E063FB60C0
:100ACC00FB6843F00073FB60044AFB68536000BF93
:100ADC001437BD4680BC7047001002400000014036
:100AEC0080B485B000AF78607B681B68094A93427C
:100AFC000BD1094BDB69084A43F00403D361064B65
:100B0C00DB6903F00403FB60FB6800BF1437BD46D0
:100B1C0080BC7047000800400010024080B400AF59
:100B2C00FEE780B400AFFEE780B400AFFEE780B410
:100B3C0000AFFEE780B400AFFEE780B400AF00BFAB
:100B4C00BD4680BC704780B400AF00BFBD4680BCC2
:100B5C00704780B400AF00BFBD4680BC704780B505
:100B6C0000AF00F075F800BF80BD80B400AF00BFCF
:100B7C00BD4680BC704700000C480D490D4A00234F
:100B8C0002E0D458C4500433C4188C42F9D30A4A36
:100B9C000A4C002301E013600432A242FBD3FFF79E
:100BAC00E4FF01F07FF9FFF72FFE704700000020F3
:100BBC000C000020481F00080C00002080000020C2
:100BCC00FEE7000080B500AF084B1B68074A43F0F6
:100BDC0010031360032000F02BF90F2000F008F82D
:100BEC00FFF74CFF0023184680BD00BF00200240D9
:100BFC0080B582B000AF7860124B1A68124B1B782C
:100C0C0019464FF47A73B3FBF1F3B2FBF3F31846C6
:100C1C0000F035F90346002B01D001230EE07B6870
:100C2C000F2B0AD8002279684FF0FF3000F00BF937
:100C3C00064A7B681360002300E00123184608373E
:100C4C00BD4680BD000000200800002004000020EC
:100C5C0080B400AF054B1B781A46054B1B68134438
:100C6C00034A136000BFBD4680BC704708000020DB
:100C7C007C00002080B400AF024B1B681846BD46B8
:100C8C0080BC70477C00002080B584B000AF7860D9
:100C9C00FFF7F0FFB8607B68FB60FB68B3F1FF3FC8
:100CAC0005D00A4B1B781A46FB681344FB6000BF47
:100CBC00FFF7E0FF0246BB68D31AFA689A42F7D8EE
:100CCC0000BF00BF1037BD4680BD00BF080000202C
:100CDC0080B485B000AF78607B6803F00703FB60DD
:100CEC000C4BDB68BB60BA684FF6FF031340BB606C
:100CFC00FB681A02BB68134343F0BF6343F4003331
:100D0C00BB60044ABB68D36000BF1437BD4680BCCF
:100D1C00704700BF00ED00E080B400AF044BDB680F
:100D2C001B0A03F007031846BD4680BC704700BF82
:100D3C0000ED00E080B483B000AF03463960FB7176
:100D4C0097F90730002B0ADB3B68DAB20C4997F9AC
:100D5C0007301201D2B20B4483F800230AE03B683F
:100D6C00DAB20849FB7903F00F03043B1201D2B24B
:100D7C000B441A7600BF0C37BD4680BC704700BFD1
:100D8C0000E100E000ED00E080B489B000AFF86055
:100D9C00B9607A60FB6803F00703FB61FB69C3F180
:100DAC000703042B28BF0423BB61FB690433062B08
:100DBC0002D9FB69033B00E000237B614FF0FF325B
:100DCC00BB6902FA03F3DA43BB681A407B699A40A9
:100DDC004FF0FF317B6901FA03F3D9437B680B4079
:100DEC00134318462437BD4680BC704780B582B08B
:100DFC0000AF78607B68013BB3F1807F01D30123A6
:100E0C000FE00A4A7B68013B53600F214FF0FF3023
:100E1C00FFF790FF054B00229A60044B07221A60E3
:100E2C00002318460837BD4680BD00BF10E000E027
:100E3C0080B582B000AF78607868FFF749FF00BFDB
:100E4C000837BD4680BD80B586B000AF0346B9609B
:100E5C007A60FB7300237B61FFF75EFF78617A6831
:100E6C00B9687869FFF790FF024697F90F30114681
:100E7C001846FFF75FFF00BF1837BD4680BD80B531
:100E8C0082B000AF78607868FFF7B0FF0346184671
:100E9C000837BD4680BD000080B48BB000AF7860D1
:100EAC00396000237B6200233B6269E101227B6A8B
:100EBC0002FA03F3FB613B681B68FA691340BB61E0
:100ECC00BA69FB699A4240F058813B685B689A4A60
:100EDC0093425ED0984A934275D8984A934258D020
:100EEC00964A93426FD8964A934252D0944A934270
:100EFC0069D8944A93424CD0924A934263D8924A0E
:100F0C00934246D0904A93425DD8122B2AD8122B8A
:100F1C0059D801A252F823F09F0F0008790F00084E
:100F2C008B0F0008CD0F0008D30F0008D30F00085B
:100F3C00D30F0008D30F0008D30F0008D30F0008FD
:100F4C00D30F0008D30F0008D30F0008D30F0008ED
:100F5C00D30F0008D30F0008D30F0008810F00082F
:100F6C00950F0008794A934213D02CE03B68DB685C
:100F7C003B6229E03B68DB6804333B6224E03B685E
:100F8C00DB6808333B621FE03B68DB680C333B6279
:100F9C001AE03B689B68002B02D104233B6213E0F0
:100FAC003B689B68012B05D108233B627B68FA697F
:100FBC001A6109E008233B627B68FA695A6103E015
:100FCC0000233B6200E000BFBB69FF2B01D87B68AC
:100FDC0001E07B6804337B61BB69FF2B02D87B6A21
:100FEC009B0002E07B6A083B9B003B617B691A68B3
:100FFC000F213B6901FA03F3DB431A40396A3B6961
:10100C0001FA03F31A437B691A603B685B6803F0CF
:10101C008053002B00F0B1804D4B9B694C4A43F040
:10102C00010393614A4B9B6903F00103BB60BB68EE
:10103C00484A7B6A9B08023352F82330FB607B6A78
:10104C0003F003039B000F2202FA03F3DB43FA685D
:10105C001340FB607B68404A934213D07B683F4A45
:10106C0093420DD07B683E4A934207D07B683D4A41
:10107C00934201D1032306E0042304E0022302E09F
:10108C00012300E000237A6A02F0030292009340ED
:10109C00FA681343FB602F497B6A9B080233FA689A
:1010AC0041F823203B685B6803F48033002B06D0A7
:1010BC002D4B1A682C49BB6913430B6006E02A4B75
:1010CC001A68BB69DB43284913400B603B685B68BB
:1010DC0003F40033002B06D0234B5A682249BB691A
:1010EC0013434B6006E0204B5A68BB69DB431E4937
:1010FC0013404B603B685B6803F48013002B06D0F5
:10110C00194B9A681849BB6913438B6006E0164B60
:10111C009A68BB69DB43144913408B603B685B687E
:10112C0003F40013002B21D00F4BDA680E49BB6976
:10113C001343CB6021E000BF0000321000003110DF
:10114C0000002210000021100000121000001110ED
:10115C00001002400000014000080140000C01405A
:10116C000010014000140140000401400B4BDA68F0
:10117C00BB69DB4309491340CB607B6A01337B625B
:10118C003B681A687B6A22FA03F3002B7FF48EAE5D
:10119C0000BF00BF2C37BD4680BC70470004014027
:1011AC0080B485B000AF78600B467B807B689A6812
:1011BC007B881340002B02D00123FB7301E000233A
:1011CC00FB73FB7B18461437BD4680BC704780B45C
:1011DC0083B000AF78600B467B8013467B707B78C6
:1011EC00002B03D07A887B681A6103E07B881A0491
:1011FC007B681A6100BF0C37BD4680BC704700008D
:10120C0080B586B000AF78607B68002B01D10123DC
:10121C0072E27B681B6803F00103002B00F08780EF
:10122C00924B5B6803F00C03042B0CD08F4B5B6868
:10123C0003F00C03082B12D18C4B5B6803F4803346
:10124C00B3F5803F0BD1894B1B6803F40033002BA3
:10125C006CD07B685B68002B68D101234CE27B6807
:10126C005B68B3F5803F06D1804B1B687F4A43F423
:10127C00803313602EE07B685B68002B0CD17B4BBA
:10128C001B687A4A23F480331360784B1B68774AC7
:10129C0023F4802313601DE07B685B68B3F5A02FFB
:1012AC000CD1724B1B68714A43F4802313606F4B53
:1012BC001B686E4A43F4803313600BE06B4B1B6866
:1012CC006A4A23F480331360684B1B68674A23F423
:1012DC00802313607B685B68002B13D0FFF7CAFC7C
:1012EC00386108E0FFF7C6FC02463B69D31A642B51
:1012FC0001D9032300E25D4B1B6803F40033002B80
:10130C00F0D014E0FFF7B6FC386108E0FFF7B2FC50
:10131C0002463B69D31A642B01D90323ECE1534BEE
:10132C001B6803F40033002BF0D100E000BF7B6896
:10133C001B6803F00203002B63D04C4B5B6803F07B
:10134C000C03002B0BD0494B5B6803F00C03082BF0
:10135C001CD1464B5B6803F48033002B16D1434BF6
:10136C001B6803F00203002B05D07B681B69012B63
:10137C0001D00123C0E13D4B1B6823F0F8027B68D0
:10138C005B69DB00394913430B603AE07B681B69EE
:10139C00002B20D0364B01221A60FFF76BFC386112
:1013AC0008E0FFF767FC02463B69D31A022B01D910
:1013BC000323A1E12D4B1B6803F00203002BF0D09B
:1013CC002A4B1B6823F0F8027B685B69DB0027491A
:1013DC0013430B6015E0264B00221A60FFF74AFC02
:1013EC00386108E0FFF746FC02463B69D31A022B32
:1013FC0001D9032380E11D4B1B6803F00203002B72
:10140C00F0D17B681B6803F00803002B3AD07B6893
:10141C009B69002B19D0174B01221A60FFF72AFC8D
:10142C00386108E0FFF726FC02463B69D31A022B11
:10143C0001D9032360E10D4B5B6A03F00203002B1F
:10144C00F0D0012000F0A6FA1CE00A4B00221A6032
:10145C00FFF710FC38610FE0FFF70CFC02463B690C
:10146C00D31A022B08D9032346E100BF0010024017
:10147C000000424280044242924B5B6A03F002033A
:10148C00002BE9D17B681B6803F00403002B00F0F0
:10149C00A6800023FB758B4BDB6903F08053002B7C
:1014AC000DD1884BDB69874A43F08053D361854B60
:1014BC00DB6903F08053BB60BB680123FB75824B77
:1014CC001B6803F48073002B18D17F4B1B687E4A7A
:1014DC0043F480731360FFF7CDFB386108E0FFF72E
:1014EC00C9FB02463B69D31A642B01D9032303E1E0
:1014FC00754B1B6803F48073002BF0D07B68DB68A2
:10150C00012B06D16F4B1B6A6E4A43F00103136229
:10151C002DE07B68DB68002B0CD16A4B1B6A694A97
:10152C0023F001031362674B1B6A664A23F0040322
:10153C0013621CE07B68DB68052B0CD1614B1B6ACA
:10154C00604A43F0040313625E4B1B6A5D4A43F02E
:10155C00010313620BE05B4B1B6A5A4A23F0010335
:10156C001362584B1B6A574A23F0040313627B68BF
:10157C00DB68002B15D0FFF77DFB38610AE0FFF725
:10158C0079FB02463B69D31A41F28832934201D966
:10159C000323B1E04B4B1B6A03F00203002BEED08C
:1015AC0014E0FFF767FB38610AE0FFF763FB0246C4
:1015BC003B69D31A41F28832934201D903239BE051
:1015CC00404B1B6A03F00203002BEED1FB7D012B79
:1015DC0005D13C4BDB693B4A23F08053D3617B68DC
:1015EC00DB69002B00F08780364B5B6803F00C0343
:1015FC00082B61D07B68DB69022B46D1334B002270
:10160C001A60FFF737FB386108E0FFF733FB02463F
:10161C003B69D31A022B01D903236DE0294B1B68BC
:10162C0003F00073002BF0D17B681B6AB3F5803F8D
:10163C0008D1244B5B6823F400327B689B682149FA
:10164C0013434B601F4B5B6823F474127B68196A5D
:10165C007B685B6A0B431B4913434B601B4B01229A
:10166C001A60FFF707FB386108E0FFF703FB02463F
:10167C003B69D31A022B01D903233DE0114B1B68A4
:10168C0003F00073002BF0D035E0104B00221A60F1
:10169C00FFF7F0FA386108E0FFF7ECFA02463B6915
:1016AC00D31A022B01D9032326E0064B1B6803F047
:1016BC000073002BF0D11EE07B68DB69012B07D196
:1016CC00012319E00010024000700040600042420B
:1016DC000B4B5B68FB60FB6803F480327B681B6A16
:1016EC009A4206D1FB6803F470127B685B6A9A42DB
:1016FC0001D0012300E0002318461837BD4680BDF9
:10170C000010024080B584B000AF786039607B680F
:10171C00002B01D10123D0E06A4B1B6803F00703B7
:10172C003A689A4210D9674B1B6823F00702654947
:10173C003B6813430B60634B1B6803F007033A6869
:10174C009A4201D00123B8E07B681B6803F00203C6
:10175C00002B20D07B681B6803F00403002B05D002
:10176C00594B5B68584A43F4E06353607B681B68D1
:10177C0003F00803002B05D0534B5B68524A43F42B
:10178C0060535360504B5B6823F0F0027B689B689E
:10179C004D4913434B607B681B6803F00103002B1E
:1017AC0040D07B685B68012B07D1474B1B6803F467
:1017BC000033002B15D101237FE07B685B68022B83
:1017CC0007D1414B1B6803F00073002B09D1012397
:1017DC0073E03D4B1B6803F00203002B01D1012386
:1017EC006BE0394B5B6823F003027B685B6836491E
:1017FC0013434B60FFF73EFAF8600AE0FFF73AFA42
:10180C000246FB68D31A41F28832934201D9032372
:10181C0053E02D4B5B6803F00C027B685B689B000C
:10182C009A42EBD1274B1B6803F007033A689A42A4
:10183C0010D2244B1B6823F0070222493B68134348
:10184C000B60204B1B6803F007033A689A4201D0E7
:10185C00012332E07B681B6803F00403002B08D0E3
:10186C00194B5B6823F4E0627B68DB681649134311
:10187C004B607B681B6803F00803002B09D0124BEC
:10188C005B6823F460527B681B69DB000E491343D1
:10189C004B6000F021F802460B4B5B681B0903F010
:1018AC000F030A49CB5C22FA03F3094A1360094B74
:1018BC001B681846FFF79CF9002318461037BD46E5
:1018CC0080BD00BF0020024000100240301F000805
:1018DC00000000200400002090B48AB000AF294B17
:1018EC003C1D0FCB84E80F0040F201233B8000230A
:1018FC00FB610023BB6100237B6200237B6100231F
:10190C003B62214B5B68FB61FB6903F00C03042B0E
:10191C0002D0082B03D02BE01C4B3B622BE0FB6965
:10192C009B0C03F00F0328333B4413F8243C7B61DE
:10193C00FB6903F48033002B12D0134B5B685B0CF8
:10194C0003F0010328333B4413F8283CBB617B694B
:10195C000E4A03FB02F2BB69B2FBF3F37B6204E0B9
:10196C007B690B4A02FB03F37B627B6A3B6202E0FE
:10197C00064B3B6200BF3B6A18462837BD4690BCFD
:10198C00704700BF201F00080010024000127A00B0
:10199C0000093D0080B485B000AF78600A4B1B682D
:1019AC000A4AA2FB03235B0A7A6802FB03F3FB607F
:1019BC0000BFFB685A1EFA60002BF9D100BF00BFB4
:1019CC001437BD4680BC704700000020D34D621018
:1019DC0080B582B000AF78607B68002B01D1012309
:1019EC0041E07B6893F83D30DBB2002B06D17B687D
:1019FC00002283F83C207868FFF772F87B6802229B
:101A0C0083F83D207B681A687B68043319461046BE
:101A1C0000F0F2F87B68012283F846207B680122F3
:101A2C0083F83E207B68012283F83F207B680122EB
:101A3C0083F840207B68012283F841207B680122D7
:101A4C0083F842207B68012283F843207B680122C3
:101A5C0083F844207B68012283F845207B680122AF
:101A6C0083F83D20002318460837BD4680BD80B55D
:101A7C0084B000AF786039607B6893F83C30012B00
:101A8C0001D10223B3E07B68012283F83C207B6800
:101A9C00022283F83D207B681B689B68FB60FB6817
:101AAC0023F07703FB60FB6823F47F43FB607B68C8
:101ABC001B68FA689A603B681B68B3F5005F3ED000
:101ACC00B3F5005F00F28780B3F5805F00F085808E
:101ADC00B3F5805F7FD8702B1AD0702B7BD8602B1E
:101AEC0050D0602B77D8502B3CD0502B73D8402B38
:101AFC0058D0402B6FD8302B64D0302B6BD8202B88
:101B0C0060D0202B67D8002B5CD0102B5AD062E011
:101B1C007B6818683B6899683B685A683B68DB6867
:101B2C0000F043F97B681B689B68FB60FB6843F023
:101B3C007703FB607B681B68FA689A604EE07B68F1
:101B4C0018683B6899683B685A683B68DB6800F02A
:101B5C002CF97B681B689A687B681B6842F480428E
:101B6C009A603BE07B6818683B6859683B68DB68A7
:101B7C001A4600F0A3F87B681B685021184600F049
:101B8C00FAF82BE07B6818683B6859683B68DB689F
:101B9C001A4600F0C1F87B681B686021184600F0FB
:101BAC00EAF81BE07B6818683B6859683B68DB689F
:101BBC001A4600F083F87B681B684021184600F039
:101BCC00DAF80BE07B681A683B681B68194610460C
:101BDC0000F0D1F802E000BF00E000BF7B680122FA
:101BEC0083F83D207B68002283F83C2000231846B4
:101BFC001037BD4680BD000080B485B000AF786062
:101C0C0039607B681B68FB607B68294A93420BD068
:101C1C007B68B3F1804F07D07B68264A934203D090
:101C2C007B68254A934208D1FB6823F07003FB6064
:101C3C003B685B68FA681343FB607B681C4A934201
:101C4C000BD07B68B3F1804F07D07B68194A934265
:101C5C0003D07B68184A934208D1FB6823F4407385
:101C6C00FB603B68DB68FA681343FB60FB6823F09E
:101C7C0080023B685B691343FB607B68FA681A60FF
:101C8C003B689A687B68DA623B681A687B689A6280
:101C9C007B68074A934203D13B681A697B681A63D5
:101CAC007B6801225A6100BF1437BD4680BC704767
:101CBC00002C0140000400400008004080B487B0B4
:101CCC0000AFF860B9607A60FB681B6A7B61FB68E7
:101CDC001B6A23F00102FB681A62FB689B693B617B
:101CEC003B6923F0F0033B617B681B013A691343AA
:101CFC003B617B6923F00A037B617A69BB68134300
:101D0C007B61FB683A699A61FB687A691A6200BF69
:101D1C001C37BD4680BC704780B487B000AFF860FC
:101D2C00B9607A60FB681B6A23F01002FB681A62C8
:101D3C00FB689B697B61FB681B6A3B617B6923F4D5
:101D4C0070437B617B681B037A6913437B613B693E
:101D5C0023F0A0033B61BB681B013A6913433B6151
:101D6C00FB687A699A61FB683A691A6200BF1C3792
:101D7C00BD4680BC704780B485B000AF78603960D8
:101D8C007B689B68FB60FB6823F07003FB603A6820
:101D9C00FB68134343F00703FB607B68FA689A60A7
:101DAC0000BF1437BD4680BC704780B487B000AF0D
:101DBC00F860B9607A603B60FB689B687B617B690B
:101DCC0023F47F437B613B681A027B681A43BB6830
:101DDC0013437A6913437B61FB687A699A6000BF8D
:101DEC001C37BD4680BC704780B485B000AF7860AE
:101DFC0039607B6893F83C30012B01D1022346E01B
:101E0C007B68012283F83C207B68022283F83D200A
:101E1C007B681B685B68FB607B681B689B68BB60AE
:101E2C00FB6823F07003FB603B681B68FA68134384
:101E3C00FB607B681B68FA685A607B681B68164AF3
:101E4C0093420ED07B681B68B3F1804F09D07B683E
:101E5C001B68124A934204D07B681B68104A934259
:101E6C000CD1BB6823F08003BB603B685B68BA682D
:101E7C001343BB607B681B68BA689A607B6801225D
:101E8C0083F83D207B68002283F83C200023184611
:101E9C001437BD4680BC7047002C01400004004044
:101EAC000008004070B500260C4D0D4C641BA410AE
:101EBC00A64209D100F022F800260A4D0A4C641BF8
:101ECC00A410A64205D170BD55F8043B98470136C5
:101EDC00EEE755F8043B98470136F2E7401F00083F
:101EEC00401F0008401F0008441F0008034602441E
:101EFC00934200D1704703F8011BF9E7F8B500BF16
:101F0C00F8BC08BC9E467047F8B500BFF8BC08BCCE
:041F1C009E46704726
:101F200002030405060708090A0B0C0D0E0F10101A
:101F30000000000000000000010203040607080979
:041F40003101000863
:041F44000D01000883
:0C1F48000024F400100000000100000064
:0400000508000B855F
:00000001FF
