:020000040800F2
:1000000000500020313700085134000859340008EE
:1000100061340008693400087134000800000000F1
:10002000000000000000000000000000793400081B
:100030008534000800000000913400089D34000859
:1000400079370008793700087937000879370008D0
:100050007937000879370008A93400087937000893
:1000600079370008793700087937000879370008B0
:1000700079370008793700087937000879370008A0
:100080007937000879370008793700087937000890
:100090000D350008793700087937000879370008EE
:1000A0007937000879370008793700087937000870
:1000B0007937000879370008793700087937000860
:1000C0007937000879370008793700087937000850
:1000D0007937000879370008793700087937000840
:1000E00079370008793700087937000800000000E8
:1000F0000000000000000000000000000000000000
:0C01000000000000000000005FF808F1A3
:1001100010B5054C237833B9044B13B10448AFF341
:1001200000800123237010BDD801002000000000D2
:10013000D4AF000808B5034B1BB103490348AFF324
:10014000008008BD00000000DC010020D4AF0008E2
:10015000034613F8012B002AFBD1181A0138704707
:1001600081F0004102E000BF83F0004330B54FEA68
:1001700041044FEA430594EA050F08BF90EA020FD5
:100180001FBF54EA000C55EA020C7FEA645C7FEA68
:10019000655C00F0E2804FEA5454D4EB5555B8BF8B
:1001A0006D420CDD2C4480EA020281EA030382EAFC
:1001B000000083EA010180EA020281EA0303362D8E
:1001C00088BF30BD11F0004F4FEA01314FF4801C61
:1001D0004CEA113102D0404261EB410113F0004F73
:1001E0004FEA03334CEA133302D0524263EB43032A
:1001F00094EA050F00F0A780A4F10104D5F1200EC8
:100200000DDB02FA0EFC22FA05F2801841F1000122
:1002100003FA0EF2801843FA05F359410EE0A5F1F6
:1002200020050EF1200E012A03FA0EFC28BF4CF027
:10023000020C43FA05F3C01851EBE37101F00045DD
:1002400007D54FF0000EDCF1000C7EEB00006EEBEA
:100250000101B1F5801F1BD3B1F5001F0CD3490874
:100260005FEA30004FEA3C0C04F101044FEA4452CB
:1002700012F5800F80F09A80BCF1004F08BF5FEA52
:10028000500C50F1000041EB045141EA050130BD32
:100290005FEA4C0C404141EB0101013C28BFB1F544
:1002A000801FE9D291F0000F04BF01460020B1FA8F
:1002B00081F308BF2033A3F10B03B3F120020CDA62
:1002C0000C3208DD02F1140CC2F10C0201FA0CF040
:1002D00021FA02F10CE002F11402D8BFC2F1200CA5
:1002E00001FA02F120FA0CFCDCBF41EA0C0190405B
:1002F000E41AA2BF01EB0451294330BD6FEA0404A4
:100300001F3C1CDA0C340EDC04F11404C4F120028E
:1003100020FA04F001FA02F340EA030021FA04F3A0
:1003200045EA030130BDC4F10C04C4F1200220FAF7
:1003300002F001FA04F340EA0300294630BD21FA35
:1003400004F0294630BD94F0000F83F4801306BFFB
:1003500081F480110134013D4EE77FEA645C18BFEF
:100360007FEA655C29D094EA050F08BF90EA020F86
:1003700005D054EA000C04BF1946104630BD91EA7E
:10038000030F1EBF0021002030BD5FEA545C05D181
:100390004000494128BF41F0004130BD14F58004C0
:1003A0003CBF01F5801130BD01F0004545F0FE4134
:1003B00041F470014FF0000030BD7FEA645C1ABF69
:1003C000194610467FEA655C1CBF0B46024650EAA0
:1003D000013406BF52EA033591EA030F41F40021CC
:1003E00030BD00BF90F0000F04BF0021704730B552
:1003F0004FF4806404F132044FF000054FF0000127
:1004000050E700BF90F0000F04BF0021704730B5E7
:100410004FF4806404F1320410F0004548BF4042BC
:100420004FF000013EE700BF42004FEAE2014FEA11
:1004300031014FEA02701FBF12F07F4393F07F4FEC
:1004400081F06051704732F07F4208BF704793F0EF
:100450007F4F04BF41F40021704730B54FF4607402
:1004600001F0004521F000411CE700BF50EA010205
:1004700008BF704730B54FF000050AE050EA0102AE
:1004800008BF704730B511F0004502D5404261EB1E
:1004900041014FF4806404F132045FEA915C3FF45F
:1004A000D8AE4FF003025FEADC0C18BF03325FEAFC
:1004B000DC0C18BF033202EBDC02C2F1200300FAAD
:1004C00003FC20FA02F001FA03FE40EA0E0021FAD2
:1004D00002F11444BDE600BF70B54FF0FF0C4CF4C0
:1004E000E06C1CEA11541DBF1CEA135594EA0C0F72
:1004F00095EA0C0F00F0DEF82C4481EA030621EAAD
:100500004C5123EA4C5350EA013518BF52EA0335E7
:1005100041F4801143F4801338D0A0FB02CE4FF099
:100520000005E1FB02E506F00042E0FB03E54FF0C9
:100530000006E1FB03569CF0000F18BF4EF0010EC1
:10054000A4F1FF04B6F5007F64F5407404D25FEABD
:100550004E0E6D4146EB060642EAC62141EA555170
:100560004FEAC52040EA5E504FEACE2EB4F1FD0CB2
:1005700088BFBCF5E06F1ED8BEF1004F08BF5FEA30
:10058000500E50F1000041EB045170BD06F00046E2
:1005900046EA010140EA020081EA0301B4EB5C048F
:1005A000C2BFD4EB0C0541EA045170BD41F4801187
:1005B0004FF0000E013C00F3AB8014F1360FDEBFAC
:1005C000002001F0004170BDC4F10004203C35DA88
:1005D0000C341BDC04F11404C4F1200500FA05F30B
:1005E00020FA04F001FA05F240EA020001F00042AC
:1005F00021F0004110EBD37021FA04F642EB060122
:100600005EEA430E08BF20EAD37070BDC4F10C044B
:10061000C4F1200500FA04F320FA05F001FA04F20F
:1006200040EA020001F0004110EBD37041F10001FB
:100630005EEA430E08BF20EAD37070BDC4F1200506
:1006400000FA05F24EEA020E20FA04F301FA05F26E
:1006500043EA020321FA04F001F0004121FA04F216
:1006600020EA020000EBD3705EEA430E08BF20EAE6
:10067000D37070BD94F0000F0FD101F00046400020
:1006800041EB010111F4801F08BF013CF7D041EAA2
:10069000060195F0000F18BF704703F000465200A6
:1006A00043EB030313F4801F08BF013DF7D043EA77
:1006B0000603704794EA0C0F0CEA135518BF95EA2D
:1006C0000C0F0CD050EA410618BF52EA4306D1D1B4
:1006D00081EA030101F000414FF0000070BD50EAD3
:1006E000410606BF1046194652EA430619D094EA5D
:1006F0000C0F02D150EA013613D195EA0C0F05D147
:1007000052EA03361CBF104619460AD181EA03019A
:1007100001F0004141F0FE4141F470014FF0000052
:1007200070BD41F0FE4141F4780170BD70B54FF0ED
:10073000FF0C4CF4E06C1CEA11541DBF1CEA13556D
:1007400094EA0C0F95EA0C0F00F0A7F8A4EB05044F
:1007500081EA030E52EA03354FEA013100F0888046
:100760004FEA03334FF0805545EA131343EA12630F
:100770004FEA022245EA111545EA10654FEA0026C4
:100780000EF000419D4208BF964244F1FD0404F57D
:10079000407402D25B084FEA3202B61A65EB0305D9
:1007A0005B084FEA32024FF480104FF4002CB6EB96
:1007B000020E75EB030E22BFB61A754640EA0C0016
:1007C0005B084FEA3202B6EB020E75EB030E22BF56
:1007D000B61A754640EA5C005B084FEA3202B6EB97
:1007E000020E75EB030E22BFB61A754640EA9C0056
:1007F0005B084FEA3202B6EB020E75EB030E22BF26
:10080000B61A754640EADC0055EA060E18D04FEAE3
:10081000051545EA16754FEA06164FEAC30343EA83
:1008200052734FEAC2025FEA1C1CC0D111F4801F50
:100830000BD141EA00014FF000004FF0004CB6E749
:1008400011F4801F04BF01430020B4F1FD0C88BFE8
:10085000BCF5E06F3FF6AFAEB5EB030C04BFB6EBF3
:10086000020C5FEA500C50F1000041EB045170BDE6
:100870000EF0004E4EEA113114EB5C04C2BFD4EB13
:100880000C0541EA045170BD41F480114FF0000E97
:10089000013C90E645EA060E8DE60CEA135594EA13
:1008A0000C0F08BF95EA0C0F3FF43BAF94EA0C0F16
:1008B0000AD150EA01347FF434AF95EA0C0F7FF48B
:1008C00025AF104619462CE795EA0C0F06D152EADF
:1008D00003353FF4FDAE1046194622E750EA4106C3
:1008E00018BF52EA43067FF4C5AE50EA41047FF4D4
:1008F0000DAF52EA43057FF4EBAE12E74FF0FF3C39
:1009000006E000BF4FF0010C02E000BF4FF0010C09
:100910004DF804CD4FEA410C7FEA6C5C4FEA430C82
:1009200018BF7FEA6C5C1BD001B050EA410C0CBFD1
:1009300052EA430C91EA030F02BF90EA020F002033
:10094000704710F1000F91EA030F58BF994208BF9A
:1009500090422CBFD8176FEAE37040F00100704757
:100960004FEA410C7FEA6C5C02D150EA013C07D1AE
:100970004FEA430C7FEA6C5CD6D152EA033CD3D0F9
:100980005DF8040B704700BF8446104662468C46F3
:100990001946634600E000BF01B5FFF7B7FF002826
:1009A00048BF10F1000F01BD4DF808EDFFF7F4FF4F
:1009B0000CBF012000205DF808FB00BF4DF808EDDA
:1009C000FFF7EAFF34BF012000205DF808FB00BFFD
:1009D0004DF808EDFFF7E0FF94BF012000205DF81F
:1009E00008FB00BF4DF808EDFFF7CEFF94BF0120D4
:1009F00000205DF808FB00BF4DF808EDFFF7C4FFCD
:100A000034BF012000205DF808FB00BF4FEA410C15
:100A10007FEA6C5C02D150EA013C0AD14FEA430CF8
:100A20007FEA6C5C02D152EA033C02D14FF0000035
:100A300070474FF0010070474FEA410212F5001273
:100A400015D211D56FF47873B3EB625212D94FEA15
:100A5000C12343F0004343EA505311F0004F23FAFF
:100A600002F018BF404270474FF00000704750EA54
:100A7000013005D111F0004008BF6FF00040704711
:100A80004FF00000704700BF4A0011D212F500126B
:100A900011D20DD56FF47873B3EB62520ED44FEAD6
:100AA000C12343F0004343EA505323FA02F0704756
:100AB0004FF00000704750EA013002D14FF0FF3094
:100AC00070474FF0000070474FEA4102B2F1E04337
:100AD00024BFB3F5001CDCF1FE5C0DD901F0004C25
:100AE0004FEAC0024CEA5070B2F1004F40EB830075
:100AF00008BF20F00100704711F0804F21D113F1A1
:100B00003872BCBF01F00040704741F480114FEAD9
:100B10005252C2F11802C2F1200C10FA0CF320FA62
:100B200002F018BF40F001004FEAC1234FEAD3237F
:100B300003FA0CFC40EA0C0023FA02F34FEA4303E9
:100B4000CCE77FEA625307D150EA01331EBF4FF072
:100B5000FE4040F44000704701F0004040F0FE408D
:100B600040F40000704700BF38B50022002304465F
:100B70000D46FFF723FF28B920462946BDE8384037
:100B800000F00AB8204605F1004100F005F84042A7
:100B900061EB410138BD00BFD0B500220B4B0646CA
:100BA0000F46FFF799FCFFF76FFF0446FFF71AFCAB
:100BB0000022074BFFF790FC02460B4630463946B1
:100BC000FFF7D2FAFFF760FF2146D0BD0000F03DED
:100BD0000000F04180B485B000AF78600B46FB7038
:100BE0000023FB607B68BB6007E0BB68FB60FB78B1
:100BF000BA689B0013445B68BB60BB68002BF4D1F0
:100C0000FB6818461437BD4680BC704780B584B079
:100C100000AF78600B46FB707B68002B14D0FB782C
:100C200083F00103DBB27A689B0013445B68002BFE
:100C30000AD07B6893F90C30B3F1FF3F04DB7B688B
:100C400093F90C30012B05DD2A4B2B4A62212B48EE
:100C500005F05EFEFB7883F00103DBB27A689B004F
:100C600013445B68FB607B681B68002B0ED07B68BD
:100C70001A687B681B689B68796899420CBF0123DE
:100C80000023DBB29B001344FA685A607B681A6841
:100C9000FB681A607B68FA681A60FB78FA7882F061
:100CA0000102D2B21046FA689B0013445A68796870
:100CB00083000B445A60FB7883F00103DBB27A684F
:100CC0009B0013445B68002B09D0FB7883F0010381
:100CD000DBB27A689B0013445B687A681A60FB7821
:100CE000FA689B0013447A685A6000BF1037BD460B
:100CF00080BD00BFF0AF000888BF000848B0000802
:100D000080B586B000AF78600B46FB707B68002B27
:100D10000AD07B6893F90C30B3F1FF3F04DB7B68AA
:100D200093F90C30012B05DD614B624A7721624853
:100D300005F0EEFD7B687B617B6893F90C30DBB2DC
:100D4000FA78002A01D0012200E0FF221344DBB22E
:100D5000FB7497F91330B3F1FF3F04DB97F91330BD
:100D6000012B40F39C80FB7CDB09BB74BB7C002B1C
:100D700001D0012301E04FF0FF337B74BB7C83F093
:100D80000103DBB27A689B0013445B68FB60FB687D
:100D9000002B05D1494B474A7F21474805F0B8FD54
:100DA000FB6893F90C301A4697F9113002FB03F3F4
:100DB000002B1CDCFB687B61BB7C19467868FFF765
:100DC00025FFFB6893F90C30002B09D17B7C5B423B
:100DD000DBB25AB27B681A73FB687A7C1A7361E0E3
:100DE0007B6800221A73FB6800221A735AE0BB7CEE
:100DF000FA689B0013445B68BB60BB68002B05D19D
:100E00002F4B2C4A92212C4805F082FDBB687B6158
:100E1000BB7C002B14BF01230023DBB283F0010352
:100E2000DBB203F00103DBB21946F868FFF7EEFE10
:100E3000BB7C19467868FFF7E9FEBB6893F90C3074
:100E40001A4697F9113002FB03F3002B09DA7B688D
:100E50007A7C1A73BB6800221A73FB6800221A732B
:100E600020E0BB6893F90C301A4697F9113002FB69
:100E700003F3002B0CDD7B6800221A73BB68002291
:100E80001A737B7C5B42DBB25AB2FB681A7309E0CF
:100E90007B6800221A73FB6800221A7302E07B68E9
:100EA000FA7C1A737B6918461837BD4680BD00BFAF
:100EB00064B000086CBF000848B000089CB000088F
:100EC000B0B0000880B586B000AF78607B68002BBA
:100ED00004D07B6893F90C30002B05D0234B244AB7
:100EE000B521244805F014FD7B687B617B681B6895
:100EF0003B6123E03B699B687A699A420CBF0123FE
:100F00000023FB73FB7B3A699B0013445B687A699F
:100F10009A4205D0184B164ABB21164805F0F8FC3A
:100F2000FB7B19463869FFF7EBFE78617B691B682C
:100F30003B617B6993F90C30002B03D03B69002B9C
:100F4000D8D100E000BF7B69002B05D10B4B084ACC
:100F5000C321084805F0DCFC3B69002B01D17B690B
:100F600000E0002318461837BD4680BDC4B0000815
:100F700050BF000848B00008F0B0000800B10008F9
:100F800080B58AB000AFF860B9607A603B6000233A
:100F90007B62FB68002B65D07B68002B62D0FB680E
:100FA0001B683B62FB68FB612FE0FB691A687B688A
:100FB0001146B86898470346FB7697F91B30002B1B
:100FC00003D1FB691B687B6223E0FB691B683B6202
:100FD000FB691A6897F91B30002BCCBF0123002353
:100FE000DBB29B0013440433FB61FB691B68002BDD
:100FF0000BD0FB691B681B683A6A9A4205D01C4BF0
:101000001C4ADB211C4805F083FCFB691B68002B94
:10101000CBD17B6A002B25D13B68002B04D03B68E9
:10102000B8689847034600E000237B627B6A002B88
:1010300018D0FB697A6A1A607B6A00225A607B6A60
:1010400000229A607B6A3A6A1A607B6A00221A73ED
:10105000786AFFF737FF78617B69002B02D0FB6865
:101060007A691A607B6A18462837BD4680BD00BF82
:1010700014B1000844BF000848B0000880B588B02B
:1010800000AF786039607B68002B00F016813B6808
:10109000002B00F012817B681B68002B05D1894B67
:1010A000894AF621894805F033FC3B681B68002B10
:1010B0000AD17B681B683A689A4205D0844B824A01
:1010C000F721824805F024FC0023FB610023FB7616
:1010D0003B685B68002B73D03B689B68002B6FD02C
:1010E0003B689B6800211846FFF774FD78617B69B7
:1010F000002B07D07B695B68002B03D17B691B68E1
:10110000002B05D1734B704AFF21704805F000FC9D
:101110003B6893F90C207B691A733B685A687B69BA
:101120005A607B695B687A691A607B691B683A68F8
:101130009A4225D07B691B68FB61FB695B687A6911
:101140009A4206D0644B604A4FF483715F4805F0C1
:10115000DFFB7B699A68FB695A60FB695B68002B5F
:1011600003D0FB695B68FA691A603B689A687B691F
:101170009A607B699B687A691A600023FB7603E0BA
:101180007B69FB610123FB763B681A687B691A6007
:101190007B691B68002B0FD07B691A687B691B6811
:1011A0009B68396899420CBF01230023DBB29B0086
:1011B00013447A695A6046E07B687A691A6042E0B3
:1011C0003B681B68FB613B689B68002B14BF0123D5
:1011D0000023FB74FB7C3A689B0013445B68002B84
:1011E00006D0FB7C3A689B0013445B68FA691A607E
:1011F000FB69002B20D0FB699B683A689A420CBFC0
:1012000001230023FB76FB7CF87E3A689B001344A5
:101210005A68F96983000B445A60FB7EFA699B00A7
:1012200013445B68002B0ED0FB7EFA699B001344CD
:101230005B68FA691A6006E0FB7C3A689B0013441D
:101240005A687B681A60FB69002B36D00023FB606C
:10125000FB7E002B14BF01230023DBB283F00103CC
:10126000DBB203F00103DBB21946F869FFF748FD72
:10127000F860FB681B68FB61FB6893F90C30002B7E
:101280000BD1FB69002B08D0FB699B68FA689A4276
:101290000CBF01230023FB76DAE7FB69002B0CD19E
:1012A000FB68002B06D10D4B074A4FF4A471074889
:1012B00005F02EFB7B68FA681A6000BF2037BD4638
:1012C00080BD00BF3CB10008CCBF000848B000089A
:1012D00054B1000884B10008D4B1000800B100087E
:1012E00080B483B000AF78607B6818460C37BD4689
:1012F00080BC704780B483B000AF03460A46FB80D1
:1013000013467B71FB881B029AB2FB881B0A99B2B9
:101310007B799BB24B409BB2DBB2054931F813306D
:1013200053409BB218460C37BD4680BC704700BF87
:101330001CBC000880B588B000AF0346B9607A6075
:10134000FB817B68002B08D1BB68002B05D0124BBA
:10135000124A8921124805F0DBFAFB89FB837B687E
:10136000BB6100237B610EE0BB691A78FB8B1146E1
:101370001846FFF7BFFF0346FB83BB690133BB6120
:101380007B6901337B617A69BB689A42ECD3FB8B42
:1013900018462037BD4680BDE4B1000898BE00085D
:1013A0000CB2000880B584B000AF03460A46FB804B
:1013B00013467B7197F90530002B05DA0E4B0F4A67
:1013C000AB210F4805F0A4FAFB88B3F5005F05D305
:1013D0000C4B0A4AAC210A4805F09AFAFB8843F400
:1013E000C0439BB2FB607A79FB681B02134318462B
:1013F0001037BD4680BD00BF24B20008A0BE000863
:101400000CB2000838B2000890B583B000AF0446B3
:10141000084611461A462346FB8003467B710B465D
:101420003B711346FB7097F90430002B05DA174B1C
:10143000174AB621174805F06BFA97F90330002BCD
:1014400005DA154B124AB721124805F061FAFB88FC
:10145000B3F5007F05D3114B0D4AB8210D4805F0B7
:1014600057FA3A79FB78DB011A43FB889B03134355
:101470007A79002A02D04FF0807200E000221343F4
:1014800043F0007318460C37BD4690BD24B20008E7
:10149000C0BE00080CB200084CB2000860B20008E0
:1014A00080B485B000AF78604023BB600023FB6050
:1014B0007B68072B02D80823FB6014E07A68BB68BE
:1014C0009A4208D80B4A7B6813441B781A460A4B89
:1014D0009B5CFB6007E0074ABB6813441B781A4615
:1014E000054B9B5CFB60FB68013B18461437BD460F
:1014F00080BC70472CBE00081CBE000880B58AB0B6
:1015000000AFF860B9607A60FB70FB68002B05D112
:10151000604B614AD821614805F0FAF93B6B002B1A
:1015200005D15F4B5C4AD9215C4805F0F1F96FF0B9
:1015300001037B62FB685B78002B57D1FB681B794A
:10154000FF2B53D1FB685B88B3F5005F4ED297F950
:101550000330002B11DBFB685B88FA7811461846D4
:10156000FFF720FF03467B627B6A002B75DA4D4B49
:10157000494AE121494805F0CBF9BA683B6B9A42E8
:1015800030D87B68002B08D1BB68002B05D0464BB8
:10159000414AE521414805F0BBF97A68B9684FF640
:1015A000FF70FFF7C7FE0346DBB203F07F0387F847
:1015B0002330FB685B8897F8232011461846FFF715
:1015C000F1FE034643F08073FB61FB69B3F1005FFA
:1015D00005D3364B304AE821304805F099F9FB69CC
:1015E0007B623AE06FF001037B6236E0FB685B7878
:1015F000022B03D0FB685B78012B2AD1FB681B7997
:101600005BB2002B25DBFB685B88B3F5007F20D243
:1016100097F90330002B18DBFB685888FB685B7870
:10162000022B0CBF01230023D9B2FB681B79FA7887
:10163000FFF7EAFE03467B627B6A002B0FDA194B49
:10164000154AF921154805F063F96FF001037B6233
:1016500005E06FF001037B6202E000BF00E000BF25
:101660007B6A002B10DBFB681B78BB61BB69072B17
:1016700007D8BB699A067B6A13437B617B697B62EF
:1016800002E06FF001037B627B6A18462837BD4693
:1016900080BD00BF74B200088CBE00080CB2000808
:1016A00088B20008A4B20008B0B20008E4B2000892
:1016B00090B583B000AF0446084611461A4623464B
:1016C000FB710346BB710B467B7113463B71FB7983
:1016D000002B09D07B79012B06D0134B134A4FF412
:1016E0008D71134805F014F9FB79002B01D080228D
:1016F00000E00022BB79002B01D0402300E0002352
:101700001343DBB27A79002A01D0202200E00022C4
:101710001343DAB23B7903F01F03DBB21343DBB2AE
:1017200018460C37BD4690BD00B3000834BF000812
:101730000CB2000880B584B000AF78607B68402BA5
:1017400006D90F4B0F4A40F223110F4805F0E0F87D
:101750000E4A7B6813441B78FB60FB680F2B06D98D
:101760000B4B084A4FF49371074805F0D1F8094A2A
:10177000FB6813441B7818461037BD4680BD00BF78
:1017800028B3000804BF00080CB200082CBE0008F3
:1017900070B300081CBE000880B586B000AFF860CA
:1017A000B960C7E90023FB68002B06D11F4B204A14
:1017B0004FF498711F4805F0ABF83B6A002B06D137
:1017C0001D4B1B4A40F231111A4805F0A1F8FB6885
:1017D0009B683A6A30321146F868984778617B69AD
:1017E000002B1ED07B6900221A607B6900225A60A0
:1017F0007B6900229A607B6900221A737B69002250
:101800001A617969D7E90023C1E906237B693A6A3D
:101810005A627B6903F130027B699A627B69BA681C
:101820001A627B6918461837BD4680BDB8B30008F8
:1018300020BF00080CB20008CCB3000880B584B00B
:1018400000AF786039607B68FB603B68BB60FB6819
:10185000002B02D0BB68002B06D10A4B0A4A4FF47A
:10186000A6710A4805F054F8FB681A6ABB681B6A3F
:101870009A4201D3012301E04FF0FF33184610379D
:10188000BD4680BDE0B30008F4BE00080CB20008FD
:1018900090B58DB002AFF860B960C7E90023BB68AE
:1018A000002B06D15C4B5D4A40F259115C4805F0B3
:1018B0002FF87B6C002B09D13B6C002B06D0594BC9
:1018C000564A4FF4AD71564805F022F83B6C01338F
:1018D0001846FFF72FFF38623A6A3B6C9A4206D8E7
:1018E000514B4E4A4FF4AE714D4805F011F83A6A2B
:1018F0003B6CD31A013BFB61FA693B6C1344013327
:101900003A6A9A4206D0494B444A4FF4AF71444870
:1019100004F0FEFF00237B62FB689A68FB681B688B
:101920009A4209D23B6A0093D7E90023B96BB868A1
:10193000FFF732FF034600E00023BB61BB69002BC9
:1019400054D03B6C002B10D07B6C002B06D1384B55
:10195000324A4FF4B371324804F0DAFFBB693033D6
:101960003A6C796C184606F0F0F83B6C3033BA6983
:101970001344FA690021184606F049F83B6A5C1ED8
:1019800097F83C30012201210120FFF791FE034628
:101990001A46BB69234483F83020FB6803F10C002E
:1019A000B969244B244AFFF7EBFA7861BB697A697D
:1019B0009A4206D0214B194A4FF4B971184804F0E5
:1019C000A7FFFB689B685A1CFB689A60FB689A68D3
:1019D000FB681B689A4206D9194B104A4FF4BA713A
:1019E0000F4804F095FF01237B6202E06FF00203D1
:1019F0007B627B6A002B09DB7B6A012B06D0114BD3
:101A0000064A40F27B11064804F082FF7B6A1846C2
:101A10002C37BD4690BD00BFB8B30008E0BE00083B
:101A20000CB2000814B4000844B4000868B40008FC
:101A3000A4B40008E11200083D180008BCB4000876
:101A4000D4B40008F0B4000890B593B002AFF860C9
:101A5000B9607A60BB68002B06D1934B934A4FF470
:101A6000C471934804F054FF7B68002B06D1914B5E
:101A70008E4A40F289118E4804F04AFF3A6E7B6824
:101A80009A4206D88C4B894A4FF4C571884804F0B5
:101A90003FFF7B6E002B06D1884B844A40F28B11AE
:101AA000834804F035FF00233B6100237B61002362
:101AB000BB613B6E0233BB620023FB637A6E396EFF
:101AC0004FF6FF70FFF736FC03467B87012387F84C
:101AD00039307B6E7B63D4E0BB690133BB61BA6A8A
:101AE000FB6BD31A7A689A4208D9BA6AFB6BD31A8D
:101AF00001331846FFF71EFE034601E07B68013301
:101B00007B627B6A0093D7E91423B96DB868FFF74D
:101B100043FE38623B69002B02D13B6A3B6102E025
:101B20007B693A6A1A613B6A7B617B69002B00F032
:101B3000AE807B6A013BFB6100233B63FA6B3B6E2B
:101B40009A421CD23A6EFB6BD31AFB62FA6AFB69AB
:101B50009A4201D9FB69FB627B693033FA6A796B7F
:101B6000184605F0F2FF3A6BFB6A13443B63FA6BCD
:101B7000FB6A1344FB637A6BFB6A13447B63FA6B67
:101B80003B6E9A4243D30FE07A693B6B1344303388
:101B900000221A703B6B01333B637B8F0021184698
:101BA000FFF7A8FB03467B873B6B0233FA699A4237
:101BB000EAD83A6BFB699A4213D2FA6B3B6E9A42AF
:101BC0000FD17B8F1B0A9BB27A69D9B23B6B13444E
:101BD00030330A461A703B6B01333B63FB6B0133B6
:101BE000FB633A6BFB699A4211D2FA6B3B6E9A42E5
:101BF0000DD97A697B8FD9B23B6B134430330A46D7
:101C00001A703B6B01333B63FB6B0133FB633B6B34
:101C10005A1C7B695B6A9A4206D0294B234A4FF4CF
:101C2000ED71234804F074FE3A697B699A420CBF57
:101C300001230023D8B2FA6BBB6A9A422CBF01235E
:101C40000023D9B27C6997F85C3097F83920FFF708
:101C50002FFD03461A463B6B234430331A7097F826
:101C60003930002B14BF01230023DBB283F00103C2
:101C7000DBB287F8393097F8393003F0010387F881
:101C80003930FA6BBB6A9A42FFF426AF00E000BF1E
:101C9000FB681C4607F1100393E8070084E807007F
:101CA000F8684437BD4690BDB8B30008B0BF00081F
:101CB0000CB2000808B5000824B50008A4B4000858
:101CC0004CB5000880B594B006AFF860B9607A6092
:101CD000BB68002B02D0FB68002B06D1654B664A1F
:101CE00040F2ED11654804F013FE7B68002B06D12D
:101CF000634B614A4FF4F771604804F009FE3A6D96
:101D00007B689A4206D85F4B5B4A40F2EF115B4812
:101D100004F0FEFD00237B633B6D0233BB62BA6AB5
:101D20007B6813445A1E7B68B2FBF3F37B627B6AC9
:101D3000012B06D8544B504A4FF4FA714F4804F027
:101D4000E7FDFB689A687B6A1A44FB681B689A4245
:101D50007BD807F110007B6D05933B6D049397F8DA
:101D60004C300393BB6C0293D7E91023CDE90023D9
:101D70007A68B968FFF768FE7B69002B51D03B6930
:101D80003B63FB6803F10C00396B404B404AFFF7A3
:101D9000F7F8F8613B6BFA699A4206D03D4B364A38
:101DA00040F20621354804F0B3FDFB68DB68002BE8
:101DB00006D1394B304A40F20721304804F0A8FDE3
:101DC0003B6B1B693B633B6B002BDAD1BB697A6AC7
:101DD0009A4206D0314B284A40F20A21274804F0A3
:101DE00097FDFB689A68BB691A44FB689A60FB68B8
:101DF0009A68FB681B689A4206D9294B1E4A4FF421
:101E000003711E4804F084FDBB69002B06DA254BE4
:101E1000194A40F20D21194804F07AFDBB697B6331
:101E200016E06FF002037B633B69FB6209E0FB6A2B
:101E30001B693B62BB68DB68F96AB86898473B6A14
:101E4000FB62FB6A002BF2D102E06FF002037B63BE
:101E50007B6B002B09DB7B6B012B06DC124B064AEC
:101E60004FF40871054804F053FD7B6B1846383772
:101E7000BD4680BD88B500089CBF00080CB20008B4
:101E800008B5000824B50008B8B50008E11200083C
:101E90003D180008C8B50008DCB50008F8B5000812
:101EA000D4B4000810B6000834B6000880B485B079
:101EB00000AF786039607B681B88FB813B689B8B37
:101EC000BB81FA89BB899A420AD0FA89BB899A42B6
:101ED0008CBF01230023DBB21A46044B9B5600E063
:101EE000002318461437BD4680BC7047D8BF000891
:101EF00080B582B000AF786039607B681C33396888
:101F00001846FFF7D3FF034618460837BD4680BD85
:101F1000B0B58CB000AFF860B9607A60BB68002BD8
:101F200006D1164B164A40F2F931164804F0F0FC7F
:101F30007B68002B06D1144B114A40F2FA3111484C
:101F400004F0E6FC00237B61FF233B76BB68FB616A
:101F50007B683B6200237B620023BB620023FB6241
:101F6000FB681D4607F114040FCC0FC594E8070069
:101F700085E80700F8683037BD46B0BD9CB9000859
:101F800070BE00080CB20008BCB90008B0B48BB039
:101F900000AFF860B9607A60BB687B617B68BB6149
:101FA0000023FB6100233B6200237B62FB681D462C
:101FB00007F114040FCC0FC523682B60F8682C3789
:101FC000BD46B0BC7047000080B58EB006AFF8606B
:101FD000B960C7E900236FF00103FB61BB68002B08
:101FE00062D0FB68002B5FD0BB6A002B5CD03B6BE0
:101FF000002B02D1FB6A002B56D1FB685B681846A8
:10200000FFF74EFAB861BB681A79BB6900931346B3
:102010003A6BF96AB86AFFF771FA78617B69002B4D
:1020200040DBFA6ABB699A421CD87B69BA6A52796A
:10203000396B0391F96A029101920093D7E9002369
:10204000B968F868FFF724FCF861FB69002B2BDB0B
:10205000FB69012B28D01C4B1C4A4FF485611C489E
:1020600004F056FC7B69BA6A5279396B0591F96ABA
:10207000049103920293D7E90023CDE90023BA69C2
:10208000B968F868FFF71EFEF861FB69002B0BDBEF
:10209000FB69012B08DC0F4B0C4A40F234410C4821
:1020A00004F036FC7B69FB61FB69002B06D10A4B0F
:1020B000064A40F23C41064804F02AFCFB691846F7
:1020C0002037BD4680BD00BFF0B400087CBE0008CC
:1020D0000CB2000834B60008D8B9000880B584B046
:1020E00000AF78600023FB607B68002B06D07B6824
:1020F000DB6800211846FEF76DFDF860FB681846A6
:102100001037BD4680BD80B584B000AF78603960BF
:102110000023FB607B68002B10D03B68002B0DD0A8
:102120003B68FB607B680C333A6811461846FEF743
:10213000A5FF7B689B685A1E7B689A60FB681846FF
:102140001037BD4680BD000080B588B000AFF86094
:102150007B600B46FB7213463B81FE23FB77FB7AC9
:102160007B61FB68002B4AD03B6B002B47D07B691F
:10217000022B44D83A89FB7A1946F86800F050F8E7
:102180000346FB7797F91F30002B38DB396BD7E913
:102190000A23C1E904233B6B7A689A613B6B3A8955
:1021A0009A830023BB6109E03A6BBB6908339B004B
:1021B000134400225A60BB690133BB61BB697F2BAA
:1021C000F2D97B6904339B00FA68D0180F4B104A90
:1021D000396BFEF7D5FE38613B6B3A699A4206D0FF
:1021E0000C4B0D4A40F2B3410C4804F091FB97F9B7
:1021F0001F30002BD4BF01230023DBB2FB7797F9FC
:102200001F3018462037BD4680BD00BFE1120008D0
:10221000F11E000810BA0008DCBF00080CB200086C
:1022200080B588B000AF78600B46FB7013463B80EA
:10223000FE23FB77FB787B617B68002B5FD07B699B
:10224000022B5CD83B88FB817B6904339B007A6856
:10225000D01807F10E0100232C4AFEF791FE3861D9
:102260003B69002B49D07B6904339B007A68134497
:102270003A6911461846FEF701FF3B699B8B3A8885
:102280009A4206D0224B234A4FF49961224804F027
:102290003FFB0123FB770023BB612AE07B68DA6800
:1022A0003969BB6908339B000B445B68002B07D07E
:1022B0003969BB6908339B000B445B681B6900E00C
:1022C00000231946786890477B68DA683969BB69EA
:1022D00008339B000B445B681946786890473A695D
:1022E000BB6908339B00134400225A60BB69013369
:1022F000BB61BB697F2BD1D901E00023FB7797F944
:102300001F3018462037BD4680BD00BFAD1E0008F7
:1023100030BA0008F0BF00080CB2000880B485B0E5
:1023200000AF0346FB80FB884FF47A7203FB02F296
:10233000074BA3FB0213D21A52081344DB0AFB819A
:10234000044AFB89536300BF1437BD4680BC704705
:1023500001011000002C014080B485B000AF03469D
:10236000FB80FB884FF47A7203FB02F2074BA3FB5E
:102370000213D21A52081344DB0AFB81044AFB8978
:10238000936300BF1437BD4680BC70470101100045
:10239000002C014080B485B000AF0346FB80FB8871
:1023A0004FF47A7203FB02F2074BA3FB0213D21A1B
:1023B00052081344DB0AFB81044AFB89D36300BF44
:1023C0001437BD4680BC704701011000002C01404D
:1023D00080B582B000AF78603960386804F0B6FA32
:1023E000034618460837BD4680BD80B582B000AFB1
:1023F00078603960386804F0B1FA00BF0837BD462C
:1024000080BD00002DE9B04F8CB004AFF860B9601A
:102410007A60FB7004233B7500237B75BB689BB21D
:10242000FB82FF233B76394B1B787B7601F0FEF96C
:10243000034600229846914642464B464FF0000024
:102440004FF00001590141EAD261500102460B46AA
:10245000B2EB080463EB09054FF000024FF00003F4
:10246000AB0043EA9473A20014461D4614EB080A1D
:1024700045EB090B4FF000024FF000034FEACB038E
:1024800043EA5A734FEACA0292469B46504659465F
:10249000FB787A680292019307F1140300930246D5
:1024A0000B46F9681A48FFF78FFDF861FB69002BAE
:1024B0000FDAFA691749184805F046FA1648FDF789
:1024C00047FE03469AB264231349144804F0A1F866
:1024D00010E00E4B1B781A4611490F4805F034FAEC
:1024E0000D48FDF735FE03469AB264230A490B48AE
:1024F00004F08FF8054B1B780133DAB2034B1A70E6
:1025000000BF2037BD46BDE8B08F00BF8802002065
:102510007402002094BA000810020020C8030020B2
:10252000B4BA000880B588B000AF2C48FFF7D6FDDC
:10253000F8614BE02A4801F097FF0346002B31D0A9
:10254000FB695B6A3B610023BB600023FB6040F2D8
:1025500023133B60FB699A6A07F118033946204848
:1025600001F0B3FE0346002B0DD1F9691B48FFF7BC
:10257000CAFDF861BB691946194801F0A9FF034675
:10258000002B1ED026E01749174805F0DDF9164844
:10259000FDF7DEFD03469AB264231349134804F0A5
:1025A00038F817E01249104805F0CEF90E48FDF74B
:1025B000CFFD03469AB264230B490C4804F029F876
:1025C00008E0F9690548FFF79EFDF861FB69002BFB
:1025D000B0D1FFE700BF2037BD4680BD74020020A8
:1025E000BC020020D4BA000810020020C80300205A
:1025F000F0BA000880B582B000AF064B7B603A1D90
:1026000004234FF47A710448FFF7FCFE00BF08373B
:10261000BD4680BD01020304F4010020B0B58CB0BA
:1026200004AF01F0ABF800F08DFA00F0A7FC00F069
:1026300023FB00F0E3FA00F083FB00F075FC00F0F0
:1026400051FB00F019FC01224FF40051A74802F0A1
:1026500088FDA74801F0F5FDA64B01221A61A54BA4
:1026600000229A60A34B0022DA60A24B4FF4AB72B7
:102670001A60A14B01221A619F4B00229A609E4B67
:102680000022DA609C4B4FF4AC721A609B4B012223
:102690001A619A4B00229A60984B0022DA60974B9D
:1026A0004FF4B0721A60964B01221A61944B0022CB
:1026B0009A60934B0022DA60914B4FF4B1721A602A
:1026C000904B01221A618F4B00229A608D4B0022A1
:1026D000DA608C4B40F263121A608B4B01221A6154
:1026E000894B00229A60884B0022DA60864B4FF4B7
:1026F000B2721A60854B01221A61844B00229A60E3
:10270000824B0022DA60814B40F265121A60804BE6
:1027100001221A617E4B00229A607D4B0022DA6012
:102720007B4B4FF4B3721A607A4B01221A61794BDA
:1027300000229A60774B0022DA60764B40F26712F3
:102740001A60754B01221A61734B00229A60724B1A
:102750000022DA60704B4FF4B4721A606F4B0122A2
:102760001A626E4B00225A616C4B00221A616B4B4D
:1027700000221A60694B00225A60684B00229A605E
:10278000664B0022DA60654B00229A61634B01229E
:10279000DA616249564801F08BFC614C3B46614A64
:1027A00061491846FFF7B4FB25463C460FCC0FC5E0
:1027B00094E8070085E80700594B0A221A715B4C20
:1027C0003B46082208211846FFF7E0FB25463C4619
:1027D0000FCC0FC523682B60002302934FF47A724D
:1027E0004FF00003CDE9002308234FF47A72002153
:1027F0004B48FFF7A9FC02213D4801F0ADFF03461D
:10280000002B14D03A4802F0F8F903461A4648491A
:10281000484805F099F84748FDF79AFC03469AB2F4
:1028200064234449444803F0F4FE00F029FC434982
:10283000404805F089F83F48FDF78AFC03469AB204
:1028400064233C493C4803F0E4FE3D4801F0F4F8C1
:102850003C4B1A783C4B1A703C4B1A783A4B5A70E6
:102860002F4C3B462F4A30491846FFF751FB25466F
:102870003C460FCC0FC594E8070085E80700FFF73A
:10288000B9FEFFF74FFE642000F0DAFF304B1B78F3
:10289000DBB2002B1FD02F4B1B7819462D4B5B78DA
:1028A00018462C4B9B781A462A4BDB7801930092F2
:1028B00003460A4628491F4805F046F81D48FDF71B
:1028C00047FC03469AB264231A491B4803F0A1FE51
:1028D0001F4B00221A700A2000F0B2FF1F4B1B781A
:1028E0006C2B75D11D4B5B78652B39E000100140D6
:1028F000BC02002010040020280400204004002016
:10290000580400207004002088040020A004002047
:10291000B8040020D0040020E804002000050020B6
:10292000F4010020EB230008D123000874020020EA
:1029300068BB000834050020C80300209CBB0008C9
:102940008C020020980500209C050020990500209D
:10295000DA050020F8050020B8BB0008A805002013
:1029600036D16C4B9B78642B32D16A4BDB78312BA0
:102970002ED1684B1B79202B2AD1664B5B796F2BAC
:1029800026D1644B9B796E2B07D1FFF733FEFFF7FF
:10299000C9FD642000F054FF1AE05E4B1B786C2BDD
:1029A00016D15C4B5B78652B12D15A4B9B78642B0C
:1029B0000ED1584BDB78312B0AD1564B1B79202B8B
:1029C00006D1544B5B796F2B02D1524B9B79662B0E
:1029D000504B1B786C2B1ED14E4B5B78652B1AD15C
:1029E0004C4B9B78642B16D14A4BDB78322B12D19F
:1029F000484B1B79202B0ED1464B5B796F2B0AD1AC
:102A0000444B9B796E2B06D1434B444A444945487D
:102A100001F05BFC25E03F4B1B786C2B21D13D4B3B
:102A20005B78652B1DD13B4B9B78642B19D1394BBF
:102A3000DB78322B15D1374B1B79202B11D1354B3D
:102A40005B796F2B0DD1334B9B79662B09D1314BC1
:102A5000DB79662B05D1304B334A3449314801F0DC
:102A600034FC2C4B1B786C2B1ED12A4B5B78652BCE
:102A70001AD1284B9B78642B16D1264BDB78332B4D
:102A800012D1244B1B79202B0ED1224B5B796F2B5B
:102A90000AD1204B9B796E2B06D11F4B1F4A24492C
:102AA000204801F012FC25E01A4B1B786C2B21D139
:102AB000184B5B78652B1DD1164B9B78642B19D175
:102AC000144BDB78332B15D1124B1B79202B11D1F2
:102AD000104B5B796F2B0DD10E4B9B79662B09D177
:102AE0000C4BDB79662B05D10B4B0F4A11490D4876
:102AF00001F0EBFB104B1B881846FFF70FFC0F4B48
:102B00001B881846FFF728FC0D4B1B881846FFF75B
:102B100041FC9AE6A80500202805002000000020BE
:102B200088040020BC020020A4050020A00400208E
:102B3000B8040020D00400202E050020300500201D
:102B40003205002080B594B000AF07F12803282299
:102B50000021184604F05BFF07F1140300221A60FD
:102B60005A609A60DA601A613B1D00221A605A604E
:102B70009A60DA600123BB624FF48033FB6200236A
:102B80003B630123BB6302237B644FF48033BB644C
:102B90004FF4E013FB6407F12803184602F078FCB9
:102BA0000346002B01D000F06BFA0F237B61022358
:102BB000BB610023FB614FF480633B6200237B62B7
:102BC00007F114030221184602F0E4FE0346002B2D
:102BD00001D000F055FA02237B604FF40043FB6004
:102BE0003B1D184603F064F80346002B01D000F0AB
:102BF00047FA00BF5037BD4680BD000080B584B0A5
:102C000000AF3B1D00221A605A609A60184B194AA7
:102C10001A60174B00229A60154B01221A73144B4D
:102C200000221A75124B4FF46022DA61104B002219
:102C30005A600F4B01221A610D4800F025FE034631
:102C4000002B01D000F01CFA01237B600123BB6044
:102C50000023FB603B1D1946054800F09BFF03461F
:102C6000002B01D000F00CFA00BF1037BD4680BD2C
:102C70008C0200200024014080B500AF174B184A99
:102C80001A60164B12225A60144B00229A60134BA2
:102C90000022DA60114B4FF480221A610F4B4FF47F
:102CA00080125A610D4B00221A760C4B00225A7684
:102CB0000A4B00229A76094B0022DA76074B002253
:102CC0001A77064B00225A77044801F0F6F80346BB
:102CD000002B01D000F0D4F900BF80BDBC02002061
:102CE0000064004080B500AF124B134A1A60114BCC
:102CF000124A5A600F4B00229A600E4B0022DA6093
:102D00000C4B4FF480421A610A4B00225A61094B66
:102D100000229A61074B0022DA61064B00221A62F8
:102D2000044802F071FA0346002B01D000F0A8F924
:102D300000BF80BDE402002000540040A0860100D6
:102D400080B592B000AF07F1400300221A605A60CC
:102D500007F1240300221A605A609A60DA601A614F
:102D60005A619A613B1D20220021184604F04FFE53
:102D70003F4B404A1A603E4B47225A603C4B002270
:102D80009A603B4B40F2E732DA60394B00221A611D
:102D9000374B00225A61364B00229A61344803F0C7
:102DA0003DF80346002B01D000F06AF900233B6494
:102DB00000237B6407F1400319462D4803F02AFBEA
:102DC0000346002B01D000F05BF960237B620023F7
:102DD000BB620023FB6200233B6300237B63002371
:102DE000BB630023FB6307F124030022194620483C
:102DF00003F064F80346002B01D000F041F907F11D
:102E00002403042219461A4803F058F80346002BFD
:102E100001D000F035F907F12403082219461448BF
:102E200003F04CF80346002B01D000F029F90023F1
:102E30007B600023BB600023FB6000233B61002319
:102E40007B614FF40053BB6100233B623B1D19467D
:102E5000074803F03DFB0346002B01D000F010F9BA
:102E6000034800F045FA00BF4837BD4680BD00BFAB
:102E700038030020002C014080B58AB000AF07F174
:102E8000200300221A605A603B1D00221A605A601B
:102E90009A60DA601A615A619A61224B4FF080425F
:102EA0001A60204B00225A601E4B00229A601D4B74
:102EB0004FF6FF72DA601B4B00221A61194B002299
:102EC0009A61184802F0AAFF0346002B01D000F0D7
:102ED000D7F800233B6200237B6207F120031946E9
:102EE000104803F097FA0346002B01D000F0C8F811
:102EF00060237B600023BB600023FB6000237B61B9
:102F00003B1D00221946074802F0D8FF0346002B5C
:102F100001D000F0B5F8034800F0EAF900BF283707
:102F2000BD4680BD8003002080B500AF114B124A22
:102F30001A60104B4FF416525A600E4B00229A60E2
:102F40000C4B0022DA600B4B00221A61094B0C2259
:102F50005A61084B00229A61064B0022DA6105484B
:102F600003F007FB0346002B01D000F089F800BFF7
:102F700080BD00BFC80300200044004080B588B079
:102F800000AF07F1100300221A605A609A60DA60FD
:102F9000374B9B69364A43F010039361344B9B696E
:102FA00003F01003FB60FB68314B9B69304A43F030
:102FB000200393612E4B9B6903F02003BB60BB6829
:102FC0002B4B9B692A4A43F004039361284B9B696E
:102FD00003F004037B607B68254B9B69244A43F024
:102FE00008039361224B9B6903F008033B603B6835
:102FF00000224FF400511F4802F0B3F80022702164
:103000001D4802F0AEF84FF400533B6101237B6191
:103010000023BB610223FB6107F110031946154829
:1030200001F004FF01233B61144B7B610023BB6172
:1030300007F110031946104801F0F8FE70233B61B8
:1030400001237B610023BB610223FB6107F11003B5
:103050001946094801F0EAFE00220021062001F08D
:10306000AEFE062001F0C7FE00BF2037BD4680BD82
:103070000010024000100140000801400000111043
:1030800080B400AF72B600BF00BFFDE780B584B06A
:1030900000AF164B9B69154A43F001039361134B34
:1030A0009B6903F00103BB60BB68104BDB690F4AEF
:1030B00043F08053D3610D4BDB6903F080537B6099
:1030C0007B68072001F070FE094B5B68FB60FB68C2
:1030D00023F0E063FB60FB6843F00073FB60044A8D
:1030E000FB68536000BF1037BD4680BD0010024032
:1030F0000000014080B588B000AF786007F1100390
:1031000000221A605A609A60DA607B681B68144A71
:10311000934221D1134B9B69124A43F4007393618C
:10312000104B9B6903F40073FB60FB680D4B9B69BC
:103130000C4A43F0040393610A4B9B6903F00403B8
:10314000BB60BB6802233B6103237B6107F1100373
:103150001946054801F06AFE00BF2037BD4680BD14
:1031600000240140001002400008014080B588B0F2
:1031700000AF786007F1100300221A605A609A606D
:10318000DA607B681B68204A934239D11F4BDB69A8
:103190001E4A43F00073D3611C4BDB6903F00073DC
:1031A000FB60FB68194B9B69184A43F00403936169
:1031B000164B9B6903F00403BB60BB684FF40063CC
:1031C0003B6100237B610023BB6107F110031946BB
:1031D0000F4801F02BFE4FF480533B6102237B61CB
:1031E0000323FB6107F110031946094801F01EFE95
:1031F00001220021142001F0E2FD142001F0FBFD6A
:1032000000BF2037BD4680BD006400400010024072
:103210000008014080B588B000AF786007F1100366
:1032200000221A605A609A60DA607B681B68154A4F
:10323000934223D1144B9B69134A43F008039361D3
:10324000114B9B6903F00803FB60FB68C0233B61E3
:1032500012237B610323FB6107F1100319460B481E
:1032600001F0E4FD084BDB69074A43F40013D36126
:10327000054BDB6903F40013BB60BB6800BF20375C
:10328000BD4680BD0054004000100240000C0140CB
:1032900080B485B000AF78607B681B68124A9342A7
:1032A0000CD1124B9B69114A43F4006393610F4B9D
:1032B0009B6903F40063FB60FB6810E07B681B689C
:1032C000B3F1804F0BD1094BDB69084A43F001038E
:1032D000D361064BDB6903F00103BB60BB6800BF31
:1032E0001437BD4680BC7047002C014000100240DE
:1032F00080B58AB000AF786007F1140300221A602D
:103300005A609A60DA607B681B68284A934219D138
:10331000274B9B69264A43F004039361244B9B6926
:1033200003F004033B613B694FF4E0637B610223DC
:10333000BB6102233B6207F1140319461D4801F0EB
:1033400075FD2FE07B681B68B3F1804F2AD1184BC5
:103350009B69174A43F004039361154B9B6903F083
:103360000403FB60FB684FF400437B610223BB61F5
:1033700002233B6207F1140319460E4801F056FD83
:103380000D4B5B687B627B6A23F440737B627B6AD4
:1033900043F0E0637B627B6A43F480737B62064A9E
:1033A0007B6A536000BF2837BD4680BD002C0140BA
:1033B00000100240000801400000014080B588B0C4
:1033C00000AF786007F1100300221A605A609A601B
:1033D000DA607B681B681B4A93422FD11A4BDB696A
:1033E000194A43F40033D361174BDB6903F400330C
:1033F000FB60FB68144B9B69134A43F00403936121
:10340000114B9B6903F00403BB60BB6804233B6161
:1034100002237B610323FB6107F1100319460B486C
:1034200001F004FD08233B6100237B610023BB61A5
:1034300007F110031946054801F0F8FC00BF2037DA
:10344000BD4680BD0044004000100240000801401D
:1034500080B400AF00BFFDE780B400AF00BFFDE760
:1034600080B400AF00BFFDE780B400AF00BFFDE750
:1034700080B400AF00BFFDE780B400AF00BFBD4621
:1034800080BC704780B400AF00BFBD4680BC7047B1
:1034900080B400AF00BFBD4680BC704780B500AFB0
:1034A00000F0B2F900BF80BD80B582B000AF00234C
:1034B0007B6002E07B6801337B607B68B3F57A7FD9
:1034C000F8DB012001F07EFE01210B4801F032FE05
:1034D0000346002B0BD0094B1B780133DAB2074BA4
:1034E0001A70074B054A0749074800F0EEFE00BF77
:1034F0000837BD4680BD00BF000801402C050020F4
:103500002805002010040020BC02002080B582B0F5
:1035100000AF1C4801F045F910211B4801F039FEAD
:103520003B461A4A0021174800F0F5FF0346002BDE
:1035300014D11021144801F02CFE3B461A461449C0
:10354000144804F001FA1348FCF702FE03469AB24D
:1035500064231049104803F05CF80EE000220F4984
:103560000C4804F0F1F90B48FCF7F2FD03469AB25F
:1035700064230849084803F04CF800BF0837BD46EB
:1035800080BD00BFBC02002000080140DC05002017
:10359000E4BB000834050020C8030020F8BB000885
:1035A00080B400AF01231846BD4680BC704780B58B
:1035B00082B000AF7860396004F08CFA03461622BE
:1035C0001A604FF0FF3318460837BD4680BD80B5FE
:1035D00082B000AF78604FF0FF317868FFF7E7FF07
:1035E00000BFFDE780B586B000AFF860B9607A60D3
:1035F00000237B610AE0AFF300800146BB685A1CE0
:10360000BA60CAB21A707B6901337B617A697B68E0
:103610009A42F0DB7B6818461837BD4680BD80B5FE
:1036200086B000AFF860B9607A6000237B6109E082
:10363000BB685A1CBA601B781846AFF300807B69E0
:1036400001337B617A697B689A42F1DB7B681846BB
:103650001837BD4680BD80B483B000AF78604FF0AE
:10366000FF3318460C37BD4680BC704780B483B02A
:1036700000AF786039603B684FF400525A60002315
:1036800018460C37BD4680BC704780B483B000AF8D
:103690007860012318460C37BD4680BC704780B463
:1036A00085B000AFF860B9607A600023184614371F
:1036B000BD4680BC7047000080B586B000AF786022
:1036C000144A154BD31A7B617B693B61134B1B6812
:1036D000002B02D1114B124A1A60104B1A687B68FA
:1036E00013443A699A4207D204F0F4F903460C22D3
:1036F0001A604FF0FF3309E0084B1B68FB60074B73
:103700001A687B681344054A1360FB68184618372B
:10371000BD4680BD005000200004000000060020CF
:103720005807002080B400AF00BFBD4680BC704782
:10373000FFF7F8FF0B480C490C4A002302E0D4586D
:10374000C4500433C4188C42F9D3094A094C0023ED
:1037500001E013600432A242FBD304F0C1F9FEF78A
:103760005DFF704700000020D80100206CC40008F5
:10377000D801002054070020FEE7000080B500AF0C
:10378000084B1B68074A43F010031360032001F045
:103790000BFB002000F008F8FFF778FC0023184628
:1037A00080BD00BF0020024080B582B000AF7860CD
:1037B000124B1A68124B1B7819464FF47A73B3FBFD
:1037C000F1F3B2FBF3F3184601F023FB0346002BA1
:1037D00001D001230EE07B680F2B0AD80022796804
:1037E0004FF0FF3001F0EBFA064A7B6813600023CC
:1037F00000E0012318460837BD4680BD04000020C4
:103800000C0000200800002080B400AF054B1B789E
:103810001A46054B1B681344034A136000BFBD469C
:1038200080BC70470C0000200406002080B400AF6C
:10383000024B1B681846BD4680BC7047040600203A
:1038400080B584B000AF7860FFF7F0FFB8607B68A8
:10385000FB60FB68B3F1FF3F05D00A4B1B781A46AB
:10386000FB681344FB6000BFFFF7E0FF0246BB6844
:10387000D31AFA689A42F7D800BF00BF1037BD4686
:1038800080BD00BF0C00002080B586B000AF78601E
:103890000023FB7500233B610023BB600023FB601A
:1038A0007B68002B01D10123BEE07B689B68002B65
:1038B0007B689B6A002B09D17B680022DA627B68F7
:1038C000002283F824207868FFF714FC786800F061
:1038D000B3FA0346FB757B689B6A03F01003002B69
:1038E00040F09980FB7D002B40F095807B689B6ABF
:1038F00023F4885323F0020343F002027B689A62A8
:103900007B685A687B68DB691A437B681B7B5B00BA
:103910001343BA681343BB607B689B68B3F5807F31
:1039200003D07B689B68012B02D14FF4807300E0C9
:1039300000233A6913433B617B681B7D012B19D13E
:103940007B681B7B002B09D17B689B69013B5A0379
:103950003B69134343F400633B610BE07B689B6A64
:1039600043F020027B689A627B68DB6A43F00102C5
:103970007B68DA627B681B685B6823F469417B685B
:103980001B683A690A435A607B681B689A68284B2F
:1039900013407A681268B9680B4393607B689B6830
:1039A000B3F5807F03D07B689B68012B04D17B68D3
:1039B0001B69013B1B05FB607B681B68DB6A23F40A
:1039C00070017B681B68FA680A43DA627B681B68CF
:1039D0009A68184B1340BA689A420BD17B68002250
:1039E000DA627B689B6A23F0030343F001027B6881
:1039F0009A6218E07B689B6A23F0120343F010027E
:103A00007B689A627B68DB6A43F001027B68DA625A
:103A10000123FB7507E07B689B6A43F010027B681B
:103A20009A620123FB75FB7D18461837BD4680BDA1
:103A3000FDF7E1FFFE0E1FFF80B584B000AF786098
:103A40000023FB737B6893F82430012B01D1022300
:103A500098E07B68012283F82420786800F092F9CE
:103A60000346FB73FB7B002B40F087807B689B6ADF
:103A700023F4407323F0010343F480727B689A625D
:103A80007B681B68414A934205D1414B5B6803F454
:103A90007023002B15D17B689B6A23F480127B680E
:103AA0009A627B681B685B6803F48063002B26D0F6
:103AB0007B689B6A23F4405343F480527B689A628C
:103AC0001DE07B689B6A43F480127B689A627B6886
:103AD0001B682F4A934204D07B681B682B4A934291
:103AE0000DD12B4B5B6803F48063002B07D07B6800
:103AF0009B6A23F4405343F480527B689A627B684C
:103B00009B6A03F48053002B06D07B68DB6A23F0AA
:103B100006027B68DA6202E07B680022DA627B6878
:103B2000002283F824207B681B686FF002021A6071
:103B30007B681B689B6803F46023B3F5602F13D187
:103B40007B681B68114A934205D1114B5B6803F4F3
:103B50007023002B08D17B681B689A687B681B6800
:103B600042F4A0029A600CE07B681B689A687B684C
:103B70001B6842F480129A6003E07B68002283F89D
:103B80002420FB7B18461037BD4680BD002801402D
:103B90000024014080B485B000AF78603960002314
:103BA000FB730023BB607B6893F82430012B01D1A9
:103BB0000223DCE07B68012283F824203B685B68F9
:103BC000062B1CD87B681B68596B3B685A681346E8
:103BD0009B001344053B1F2202FA03F3DB43194009
:103BE0003B6818683B685A6813469B001344053BC2
:103BF00000FA03F27B681B680A435A633CE03B68A7
:103C00005B680C2B1CD87B681B68196B3B685A6877
:103C100013469B001344233B1F2202FA03F3DB43AA
:103C200019403B6818683B685A6813469B00134468
:103C3000233B00FA03F27B681B680A431A631BE00C
:103C40007B681B68D96A3B685A6813469B0013441B
:103C5000413B1F2202FA03F3DB4319403B6818681B
:103C60003B685A6813469B001344413B00FA03F239
:103C70007B681B680A43DA623B681B68092B1CD906
:103C80007B681B68D9683B681A6813465B0013445D
:103C90001E3B072202FA03F3DB4319403B68986896
:103CA0003B681A6813465B0013441E3B00FA03F29C
:103CB0007B681B680A43DA6019E07B681B68196936
:103CC0003B681A6813465B001344072202FA03F3A9
:103CD000DB4319403B6898683B681A6813465B00F1
:103CE000134400FA03F27B681B680A431A613B68BD
:103CF0001B68102B03D03B681B68112B32D17B68EB
:103D00001B681D4A934225D17B681B689B6803F49E
:103D10000003002B26D17B681B689A687B681B68B0
:103D200042F400029A603B681B68102B1AD1134BB7
:103D30001B68134AA2FB03239A0C13469B001344EF
:103D40005B00BB6002E0BB68013BBB60BB68002B53
:103D5000F9D107E07B689B6A43F020027B689A6296
:103D60000123FB737B68002283F82420FB7B184629
:103D70001437BD4680BC7047002401400400002079
:103D800083DE1B4380B584B000AF78600023FB6006
:103D90000023BB607B681B689B6803F00103012B59
:103DA00040D07B681B689A687B681B6842F0010200
:103DB0009A601F4B1B681F4AA2FB03239B0CBB602E
:103DC00002E0BB68013BBB60BB68002BF9D1FFF789
:103DD0002DFDF8601FE0FFF729FD0246FB68D31AAE
:103DE000022B18D97B681B689B6803F00103012B29
:103DF00011D07B689B6A43F010027B689A627B68F3
:103E0000DB6A43F001027B68DA627B68002283F898
:103E10002420012307E07B681B689B6803F00103F3
:103E2000012BD8D1002318461037BD4680BD00BFF6
:103E30000400002083DE1B4380B584B000AF7860AF
:103E40000023FB607B681B689B6803F00103012B68
:103E50002ED17B681B689A687B681B6822F0010280
:103E60009A60FFF7E3FCF8601BE0FFF7DFFC024617
:103E7000FB68D31A022B14D97B681B689B6803F07C
:103E80000103012B0DD17B689B6A43F010027B6814
:103E90009A627B68DB6A43F001027B68DA62012385
:103EA00007E07B681B689B6803F00103012BDCD0F3
:103EB000002318461037BD4680BD80B584B000AFE2
:103EC00078607B68002B01D10123EDE07B6893F8DB
:103ED0002030DBB2002B02D17868FFF747F97B680E
:103EE0001B681A687B681B6842F001021A60FFF7C2
:103EF0009DFCF86012E0FFF799FC0246FB68D31ABC
:103F00000A2B0BD97B685B6A43F400327B685A62E8
:103F10007B68052283F820200123C5E07B681B68AD
:103F20005B6803F00103002BE5D07B681B681A680F
:103F30007B681B6822F002021A60FFF777FCF860CA
:103F400012E0FFF773FC0246FB68D31A0A2B0BD969
:103F50007B685B6A43F400327B685A627B680522A7
:103F600083F8202001239FE07B681B685B6803F0D7
:103F70000203002BE5D17B681B7E012B08D17B68F7
:103F80001B681A687B681B6842F080021A6007E0B1
:103F90007B681B681A687B681B6822F080021A60C5
:103FA0007B685B7E012B08D17B681B681A687B6885
:103FB0001B6842F040021A6007E07B681B681A68C1
:103FC0007B681B6822F040021A607B689B7E012B95
:103FD00008D17B681B681A687B681B6842F0200266
:103FE0001A6007E07B681B681A687B681B6822F010
:103FF00020021A607B68DB7E012B08D17B681B687E
:104000001A687B681B6822F010021A6007E07B6860
:104010001B681A687B681B6842F010021A607B6894
:104020001B7F012B08D17B681B681A687B681B68A3
:1040300042F008021A6007E07B681B681A687B6818
:104040001B6822F008021A607B685B7F012B08D195
:104050007B681B681A687B681B6842F004021A6060
:1040600007E07B681B681A687B681B6822F0040203
:104070001A607B689A687B68DB681A437B681B69F7
:104080001A437B685B6942EA03017B685B685A1EDE
:104090007B681B680A43DA617B6800225A627B688E
:1040A000012283F82020002318461037BD4680BD2A
:1040B00080B487B000AF786039607B681B687B6133
:1040C0007B6893F82030FB74FB7C012B03D0FB7CD6
:1040D000022B40F0AA807B69D3F8003243F0010242
:1040E0007B69C3F800223B685B6903F01F03012270
:1040F00002FA03F3FB607B69D3F81C22FB68DB4305
:104100001A407B69C3F81C223B68DB69002B23D172
:104110007B69D3F80C22FB68DB431A407B69C3F848
:104120000C223B68DB6819043B685B689BB23A6809
:10413000526919437B69483243F832103B689B68E7
:1041400019043B681B689AB23B685B690A4379694A
:104150004833DB000B445A603B68DB69012B22D1FA
:104160007B69D3F80C22FB681A437B69C3F80C22E5
:104170003B681B6819043B685B689BB23A685269EC
:1041800019437B69483243F832103B689B68190435
:104190003B68DB689AB23B685B690A4379694833DC
:1041A000DB000B445A603B689B69002B09D17B699B
:1041B000D3F80422FB68DB431A407B69C3F804226E
:1041C00007E07B69D3F80422FB681A437B69C3F8D4
:1041D00004223B681B69002B09D17B69D3F81422A8
:1041E000FB68DB431A407B69C3F8142207E07B6954
:1041F000D3F81422FB681A437B69C3F814223B6886
:104200001B6A012B07D17B69D3F81C22FB681A4378
:104210007B69C3F81C227B69D3F8003223F00102CA
:104220007B69C3F80022002306E07B685B6A43F4E5
:1042300080227B685A62012318461C37BD4680BC29
:10424000704780B584B000AF78607B6893F8203009
:10425000DBB2012B2ED17B68022283F820207B6801
:104260001B681A687B681B6822F001021A60FFF75E
:10427000DDFAF86012E0FFF7D9FA0246FB68D31ABC
:104280000A2B0BD97B685B6A43F400327B685A6265
:104290007B68052283F82020012312E07B681B68DD
:1042A0005B6803F00103002BE5D17B6800225A62B2
:1042B000002306E07B685B6A43F400227B685A6255
:1042C000012318461037BD4680BD80B489B000AFC9
:1042D000F860B9607A603B60FB6893F82030FB7748
:1042E000FB681B689B68BB61FB7F012B03D0FB7FD6
:1042F000022B40F0AD80BB6903F08063002B0AD134
:10430000BB6903F00063002B05D1BB6903F0805348
:10431000002B00F09580BB691B0E03F003037B614B
:1043200001227B699A403B681A60BB689B68002B3E
:104330000DD1BB681B685A05BB68DB68F968096862
:104340001A437B6918331B010B441A600FE0BB68EA
:104350005B68DA00BB689B681A43BB68DB68F96876
:1043600009681A437B6918331B010B441A60FB6808
:104370001968BB681A697B6918331B010B44043345
:104380001A60BB681B7D012B11D1FB681A687B6921
:1043900018331B01134404331B68FA68116843F493
:1043A00080727B6918331B010B4404331A607B68ED
:1043B00007331B781A067B6806331B781B041A43E5
:1043C0007B6805331B781B0213437A68043212782A
:1043D0001046FA68116843EA00027B691B010B442E
:1043E00003F5C6731A607B6803331B781A067B6873
:1043F00002331B781B041A437B6801331B781B02B2
:1044000013437A6812781046FA68116843EA00028A
:104410007B691B010B4403F5C4731A60FB681A68BF
:104420007B6918331B0113441B68FA68116843F059
:1044300001027B6918331B010B441A6000230EE054
:10444000FB685B6A43F40012FB685A62012306E0D2
:10445000FB685B6A43F48022FB685A6201231846BA
:104460002437BD4680BC704780B485B000AF78600B
:104470000023FB607B6893F82030FB72FB7A012BF2
:1044800002D0FB7A022B1DD17B681B689B6803F06E
:104490008063002B02D0FB680133FB607B681B68E4
:1044A0009B6803F00063002B02D0FB680133FB60C4
:1044B0007B681B689B6803F08053002B02D0FB686D
:1044C0000133FB60FB6818461437BD4680BC70475B
:1044D00080B485B000AF786039600023FB607B68F2
:1044E00093F82030FB72FB7A012B02D0FB7A022B6F
:1044F0000BD17B681B689A683B689B061A403B6837
:104500009B069A4201D00123FB60FB6818461437D2
:10451000BD4680BC704780B487B000AFF860B9601A
:104520007A603B60FB6893F82030FB75FB7D012BC4
:1045300003D0FB7D022B40F00381BB68002B0ED122
:10454000FB681B68DB6803F00303002B16D1FB68D4
:104550005B6A43F40012FB685A620123F7E0FB68D0
:104560001B681B6903F00303002B07D1FB685B6A20
:1045700043F40012FB685A620123E8E0FB681A6802
:10458000BB681B331B0113441B6803F004027B68E8
:104590009A607B689B68002B0CD1FB681A68BB682B
:1045A0001B331B0113441B685B0DC3F30A027B68BA
:1045B0001A600BE0FB681A68BB681B331B011344CD
:1045C0001B68DB0823F060427B685A60FB681A684E
:1045D000BB681B331B0113441B6803F002027B689A
:1045E000DA60FB681A68BB681B331B011344043391
:1045F0001B6803F00803002B03D07B6808221A61B4
:104600000BE0FB681A68BB681B331B0113440433BF
:104610001B6803F00F027B681A61FB681A68BB68AD
:104620001B331B01134404331B681B0ADAB27B687B
:104630009A61FB681A68BB681B331B01134404337F
:104640001B681B0C9AB27B685A61FB681A68BB68CE
:104650001B01134403F5DC731B68DAB23B681A7064
:10466000FB681A68BB681B01134403F5DC731B6805
:104670001A0A3B680133D2B21A70FB681A68BB6829
:104680001B01134403F5DC731B681A0C3B680233EF
:10469000D2B21A70FB681A68BB681B01134403F599
:1046A000DC731B681A0E3B680333D2B21A70FB68C6
:1046B0001A68BB681B01134403F5DE731A683B6874
:1046C0000433D2B21A70FB681A68BB681B0113442A
:1046D00003F5DE731B681A0A3B680533D2B21A7001
:1046E000FB681A68BB681B01134403F5DE731B6883
:1046F0001A0C3B680633D2B21A70FB681A68BB68A2
:104700001B01134403F5DE731B681A0E3B68073365
:10471000D2B21A70BB68002B08D1FB681B68DA683C
:10472000FB681B6842F02002DA6007E0FB681B6848
:104730001A69FB681B6842F020021A61002306E038
:10474000FB685B6A43F48022FB685A6201231846C7
:104750001C37BD4680BC704780B485B000AF786020
:1047600039607B6893F82030FB73FB7B012B02D010
:10477000FB7B022B09D17B681B6859697B681B682E
:104780003A680A435A61002306E07B685B6A43F497
:1047900080227B685A62012318461437BD4680BCCC
:1047A000704780B58AB000AF786000237B627B6879
:1047B0001B685B693B627B681B685B68FB617B68AD
:1047C0001B689B68BB617B681B68DB687B617B68DF
:1047D0001B681B693B617B681B689B69FB603B6ACC
:1047E00003F00103002B7CD0BB6903F00103002B15
:1047F00023D07B681B6801229A60BB6903F0020327
:10480000002B03D0786800F083F916E0BB6903F051
:104810000403002B04D07B6A43F400637B620CE04A
:10482000BB6903F00803002B04D07B6A43F4805378
:104830007B6202E0786800F086F9BB6903F480735C
:10484000002B24D07B681B684FF480729A60BB6990
:1048500003F40073002B03D0786800F062F916E0CF
:10486000BB6903F48063002B04D07B6A43F40053DC
:104870007B620CE0BB6903F40063002B04D07B6A0D
:1048800043F480437B6202E0786800F065F9BB691D
:1048900003F48033002B24D07B681B684FF48032F4
:1048A0009A60BB6903F40033002B03D0786800F0F2
:1048B00041F916E0BB6903F48023002B04D07B6A26
:1048C00043F400437B620CE0BB6903F40023002B3C
:1048D00004D07B6A43F480337B6202E0786800F0A6
:1048E00044F93B6A03F00803002B0CD07B6903F00A
:1048F0001003002B07D07B6A43F400737B627B6854
:104900001B681022DA603B6A03F00403002B0BD013
:104910007B6903F00803002B06D07B681B68082224
:10492000DA60786800F033F93B6A03F00203002B89
:1049300009D07B681B68DB6803F00303002B02D0FF
:10494000786800F01BF93B6A03F04003002B0CD0A1
:104950003B6903F01003002B07D07B6A43F48063AC
:104960007B627B681B6810221A613B6A03F020039C
:10497000002B0BD03B6903F00803002B06D07B68AB
:104980001B6808221A61786800F013F93B6A03F08B
:104990001003002B09D07B681B681B6903F003031D
:1049A000002B02D0786800F0FBF83B6A03F4003378
:1049B000002B0BD0FB6903F01003002B06D07B68A3
:1049C0001B6810225A60786800F0FCF83B6A03F418
:1049D0008033002B0BD0FB6903F00803002B06D0BB
:1049E0007B681B6808225A60786800F0F4F83B6A1C
:1049F00003F40043002B7BD0FB6903F00403002B7E
:104A000072D03B6A03F48073002B08D0FB6803F07C
:104A10000103002B03D07B6A43F001037B623B6AF6
:104A200003F40073002B08D0FB6803F00203002B93
:104A300003D07B6A43F002037B623B6A03F480632A
:104A4000002B08D0FB6803F00403002B03D07B6A23
:104A500043F004037B623B6A03F40063002B43D002
:104A6000FB6803F07003002B3ED0FB6803F070037B
:104A7000602B2BD0602B2ED8502B22D0502B2AD835
:104A8000402B19D0402B26D8302B10D0302B22D8D9
:104A9000102B02D0202B05D01DE07B6A43F00803C9
:104AA0007B6219E07B6A43F010037B6214E07B6A4F
:104AB00043F020037B620FE07B6A43F040037B629C
:104AC0000AE07B6A43F080037B6205E07B6A43F483
:104AD00080737B6200E000BF7B681B689A697B681B
:104AE0001B6822F070029A617B681B6804225A607E
:104AF0007B6A002B08D07B685A6A7B6A1A437B6802
:104B00005A62786800F070F800BF2837BD4680BD53
:104B100080B483B000AF786000BF0C37BD4680BC66
:104B2000704780B483B000AF786000BF0C37BD46DB
:104B300080BC704780B483B000AF786000BF0C3792
:104B4000BD4680BC704780B483B000AF786000BFC2
:104B50000C37BD4680BC704780B483B000AF78602E
:104B600000BF0C37BD4680BC704780B483B000AF37
:104B7000786000BF0C37BD4680BC704780B483B0FE
:104B800000AF786000BF0C37BD4680BC704780B472
:104B900083B000AF786000BF0C37BD4680BC704763
:104BA00080B483B000AF786000BF0C37BD4680BCD6
:104BB000704780B483B000AF786000BF0C37BD464B
:104BC00080BC704780B483B000AF786000BF0C3702
:104BD000BD4680BC704780B483B000AF786000BF32
:104BE0000C37BD4680BC704780B483B000AF78609E
:104BF00000BF0C37BD4680BC704780B483B000AFA7
:104C000078607B685B6A18460C37BD4680BC70478D
:104C100080B485B000AF78607B6803F00703FB6069
:104C20000C4BDB68BB60BA684FF6FF031340BB60F8
:104C3000FB681A02BB68134343F0BF6343F40033BD
:104C4000BB60044ABB68D36000BF1437BD4680BC5C
:104C5000704700BF00ED00E080B400AF044BDB689C
:104C60001B0A03F007031846BD4680BC704700BF0F
:104C700000ED00E080B483B000AF0346FB7197F90C
:104C80000730002B0BDBFB7903F01F02064997F975
:104C900007305B09012000FA02F241F8232000BF2F
:104CA0000C37BD4680BC704700E100E080B483B0A3
:104CB00000AF03463960FB7197F90730002B0ADB20
:104CC0003B68DAB20C4997F907301201D2B20B44B3
:104CD00083F800230AE03B68DAB20849FB7903F065
:104CE0000F03043B1201D2B20B441A7600BF0C37FB
:104CF000BD4680BC704700BF00E100E000ED00E071
:104D000080B489B000AFF860B9607A60FB6803F0E6
:104D10000703FB61FB69C3F10703042B28BF0423CE
:104D2000BB61FB690433062B02D9FB69033B00E03E
:104D300000237B614FF0FF32BB6902FA03F3DA43D1
:104D4000BB681A407B699A404FF0FF317B6901FADA
:104D500003F3D9437B680B40134318462437BD4601
:104D600080BC704780B582B000AF78607B68013B43
:104D7000B3F1807F01D301230FE00A4A7B68013B36
:104D800053600F214FF0FF30FFF790FF054B0022DB
:104D90009A60044B07221A60002318460837BD4664
:104DA00080BD00BF10E000E080B582B000AF786049
:104DB0007868FFF72DFF00BF0837BD4680BD80B57E
:104DC00086B000AF0346B9607A60FB7300237B6155
:104DD000FFF742FF78617A68B9687869FFF790FF5A
:104DE000024697F90F3011461846FFF75FFF00BFE4
:104DF0001837BD4680BD80B582B000AF0346FB7159
:104E000097F907301846FFF735FF00BF0837BD4652
:104E100080BD80B582B000AF78607868FFF7A2FFF0
:104E2000034618460837BD4680BD000080B48BB0ED
:104E300000AF7860396000237B6200233B6269E148
:104E400001227B6A02FA03F3FB613B681B68FA6983
:104E50001340BB61BA69FB699A4240F058813B68D4
:104E60005B689A4A93425ED0984A934275D8984AB2
:104E7000934258D0964A93426FD8964A934252D062
:104E8000944A934269D8944A93424CD0924A9342AE
:104E900063D8924A934246D0904A93425DD8122BEF
:104EA0002AD8122B59D801A252F823F0274F000814
:104EB000014F0008134F0008554F00085B4F0008D2
:104EC0005B4F00085B4F00085B4F00085B4F00081A
:104ED0005B4F00085B4F00085B4F00085B4F00080A
:104EE0005B4F00085B4F00085B4F00085B4F0008FA
:104EF000094F00081D4F0008794A934213D02CE057
:104F00003B68DB683B6229E03B68DB6804333B625B
:104F100024E03B68DB6808333B621FE03B68DB68EA
:104F20000C333B621AE03B689B68002B02D10423E0
:104F30003B6213E03B689B68012B05D108233B6271
:104F40007B68FA691A6109E008233B627B68FA69A9
:104F50005A6103E000233B6200E000BFBB69FF2B06
:104F600001D87B6801E07B6804337B61BB69FF2B60
:104F700002D87B6A9B0002E07B6A083B9B003B6196
:104F80007B691A680F213B6901FA03F3DB431A407E
:104F9000396A3B6901FA03F31A437B691A603B687B
:104FA0005B6803F08053002B00F0B1804D4B9B6990
:104FB0004C4A43F0010393614A4B9B6903F00103A0
:104FC000BB60BB68484A7B6A9B08023352F82330B7
:104FD000FB607B6A03F003039B000F2202FA03F3DA
:104FE000DB43FA681340FB607B68404A934213D06E
:104FF0007B683F4A93420DD07B683E4A934207D07C
:105000007B683D4A934201D1032306E0042304E078
:10501000022302E0012300E000237A6A02F0030287
:1050200092009340FA681343FB602F497B6A9B0808
:105030000233FA6841F823203B685B6803F480136D
:10504000002B06D02D4B9A682C49BB6913438B600B
:1050500006E02A4B9A68BB69DB43284913408B6002
:105060003B685B6803F40013002B06D0234BDA681F
:105070002249BB691343CB6006E0204BDA68BB6969
:10508000DB431E491340CB603B685B6803F400338D
:10509000002B06D0194B5A681849BB6913434B6063
:1050A00006E0164B5A68BB69DB43144913404B605A
:1050B0003B685B6803F48033002B21D00F4B1A68E8
:1050C0000E49BB6913430B6021E000BF00003210A2
:1050D000000031100000221000002110000012100A
:1050E00000001110001002400000014000080140C3
:1050F000000C014000100140001401400004014078
:105100000B4B1A68BB69DB43094913400B607B6A90
:1051100001337B623B681A687B6A22FA03F3002B37
:105120007FF48EAE00BF00BF2C37BD4680BC7047F9
:105130000004014080B485B000AF78600B467B80EE
:105140007B689A687B881340002B02D00123FB7395
:1051500001E00023FB73FB7B18461437BD4680BC7F
:10516000704780B483B000AF78600B467B801346F5
:105170007B707B78002B03D07A887B681A6103E010
:105180007B881A047B681A6100BF0C37BD4680BC5F
:10519000704780B485B000AF78600B467B807B6839
:1051A000DB68FB607A88FB6813401A04FB68D9430C
:1051B0007B880B401A437B681A6100BF1437BD46D9
:1051C00080BC704780B582B000AF0346FB80084BBF
:1051D0005A69FB881340002B06D0054AFB885361AF
:1051E000FB88184600F006F800BF0837BD4680BDB2
:1051F0000004014080B483B000AF0346FB8000BFD1
:105200000C37BD4680BC704780B584B000AF786075
:105210007B68002B01D101232BE17B6893F83D30A3
:10522000DBB2002B06D17B68002283F83C20786833
:10523000FDF7F0FF7B68242283F83D207B681B6824
:105240001A687B681B6822F001021A607B681B6881
:105250001A687B681B6842F400421A607B681B680E
:105260001A687B681B6822F400421A6000F0DAFCBE
:10527000F8607B685B68814A934207D8FB68804A84
:10528000934294BF01230023DBB206E0FB687D4A12
:10529000934294BF01230023DBB2002B01D00123F2
:1052A000E7E0FB68784AA2FB03239B0CBB607B68AA
:1052B0001B685B6823F03F017B681B68BA680A4380
:1052C0005A607B681B681B6A23F03F017B685B6840
:1052D0006A4A934202D8BB68013309E0BB684FF4C5
:1052E000967202FB03F3694AA2FB03239B09013375
:1052F0007A6812680B4313627B681B68DB6923F4CE
:105300004F4222F0FF027B685B685C498B4219D8F0
:10531000FB68591E7B685B685B00B1FBF3F3591CAB
:1053200040F6FC730B40002B0AD0FB68591E7B68CB
:105330005B685B00B1FBF3F30133C3F30B0351E094
:1053400004234FE07B689B68002B11D1FB68581E3B
:105350007B6859680B465B000B44B0FBF3F30133E9
:10536000C3F30B03002B0CBF01230023DBB212E0BD
:10537000FB68581E7B6859680B469B000B449900DC
:105380000B44B0FBF3F30133C3F30B03002B0CBF4F
:1053900001230023DBB2002B01D0012322E07B6834
:1053A0009B68002B0ED1FB68581E7B6859680B4622
:1053B0005B000B44B0FBF3F30133C3F30B0343F483
:1053C00000430FE0FB68581E7B6859680B469B0042
:1053D0000B4499000B44B0FBF3F30133C3F30B030D
:1053E00043F44043796809681343CB617B681B68C9
:1053F0001B6823F0C0017B68DA697B681B6A1A436B
:105400007B681B680A431A607B681B689B6823F4EF
:10541000034323F0FF037A6811697A68D268114365
:105420007A6812680B4393607B681B68DB6823F023
:10543000FF017B685A697B689B691A437B681B681C
:105440000A43DA607B681B681A687B681B6842F055
:1054500001021A607B6800221A647B68202283F8AC
:105460003D207B6800221A637B68002283F83E207F
:10547000002318461037BD4680BD00BFA08601003E
:105480007F841E00FF083D0083DE1B43D34D621066
:1054900080B586B000AF78607B68002B01D1012316
:1054A00072E27B681B6803F00103002B00F0878029
:1054B000924B5B6803F00C03042B0CD08F4B5B68A2
:1054C00003F00C03082B12D18C4B5B6803F4803380
:1054D000B3F5803F0BD1894B1B6803F40033002BDD
:1054E0006CD07B685B68002B68D101234CE27B6841
:1054F0005B68B3F5803F06D1804B1B687F4A43F45D
:10550000803313602EE07B685B68002B0CD17B4BF3
:105510001B687A4A23F480331360784B1B68774A00
:1055200023F4802313601DE07B685B68B3F5A02F34
:105530000CD1724B1B68714A43F4802313606F4B8C
:105540001B686E4A43F4803313600BE06B4B1B689F
:105550006A4A23F480331360684B1B68674A23F45C
:10556000802313607B685B68002B13D0FEF75EF925
:10557000386108E0FEF75AF902463B69D31A642BFA
:1055800001D9032300E25D4B1B6803F40033002BB9
:10559000F0D014E0FEF74AF9386108E0FEF746F96A
:1055A00002463B69D31A642B01D90323ECE1534B28
:1055B0001B6803F40033002BF0D100E000BF7B68D0
:1055C0001B6803F00203002B63D04C4B5B6803F0B5
:1055D0000C03002B0BD0494B5B6803F00C03082B2A
:1055E0001CD1464B5B6803F48033002B16D1434B30
:1055F0001B6803F00203002B05D07B681B69012B9D
:1056000001D00123C0E13D4B1B6823F0F8027B6809
:105610005B69DB00394913430B603AE07B681B6927
:10562000002B20D0364B01221A60FEF7FFF83861BC
:1056300008E0FEF7FBF802463B69D31A022B01D9BA
:105640000323A1E12D4B1B6803F00203002BF0D0D4
:105650002A4B1B6823F0F8027B685B69DB00274953
:1056600013430B6015E0264B00221A60FEF7DEF8AC
:10567000386108E0FEF7DAF802463B69D31A022BDC
:1056800001D9032380E11D4B1B6803F00203002BAB
:10569000F0D17B681B6803F00803002B3AD07B68CD
:1056A0009B69002B19D0174B01221A60FEF7BEF838
:1056B000386108E0FEF7BAF802463B69D31A022BBC
:1056C00001D9032360E10D4B5B6A03F00203002B59
:1056D000F0D0012000F0CEFA1CE00A4B00221A6044
:1056E000FEF7A4F838610FE0FEF7A0F802463B6928
:1056F000D31A022B08D9032346E100BF0010024051
:105700000000424280044242924B5B6A03F0020373
:10571000002BE9D17B681B6803F00403002B00F029
:10572000A6800023FB758B4BDB6903F08053002BB5
:105730000DD1884BDB69874A43F08053D361854B99
:10574000DB6903F08053BB60BB680123FB75824BB0
:105750001B6803F48073002B18D17F4B1B687E4AB3
:1057600043F480731360FEF761F8386108E0FEF7D8
:105770005DF802463B69D31A642B01D9032303E188
:10578000754B1B6803F48073002BF0D07B68DB68DB
:10579000012B06D16F4B1B6A6E4A43F00103136263
:1057A0002DE07B68DB68002B0CD16A4B1B6A694AD1
:1057B00023F001031362674B1B6A664A23F004035C
:1057C00013621CE07B68DB68052B0CD1614B1B6A04
:1057D000604A43F0040313625E4B1B6A5D4A43F068
:1057E000010313620BE05B4B1B6A5A4A23F001036F
:1057F0001362584B1B6A574A23F0040313627B68F9
:10580000DB68002B15D0FEF711F838610AE0FEF7CF
:105810000DF802463B69D31A41F28832934201D90E
:105820000323B1E04B4B1B6A03F00203002BEED0C5
:1058300014E0FDF7FBFF38610AE0FDF7F7FF0246D1
:105840003B69D31A41F28832934201D903239BE08A
:10585000404B1B6A03F00203002BEED1FB7D012BB2
:1058600005D13C4BDB693B4A23F08053D3617B6815
:10587000DB69002B00F08780364B5B6803F00C037C
:10588000082B61D07B68DB69022B46D1334B0022A9
:105890001A60FDF7CBFF386108E0FDF7C7FF02464D
:1058A0003B69D31A022B01D903236DE0294B1B68F6
:1058B00003F00073002BF0D17B681B6AB3F5803FC7
:1058C00008D1244B5B6823F400327B689B68214934
:1058D00013434B601F4B5B6823F474127B68196A97
:1058E0007B685B6A0B431B4913434B601B4B0122D4
:1058F0001A60FDF79BFF386108E0FDF797FF02464D
:105900003B69D31A022B01D903233DE0114B1B68DD
:1059100003F00073002BF0D035E0104B00221A602A
:10592000FDF784FF386108E0FDF780FF02463B6920
:10593000D31A022B01D9032326E0064B1B6803F080
:105940000073002BF0D11EE07B68DB69012B07D1CF
:10595000012319E000100240007000406000424244
:105960000B4B5B68FB60FB6803F480327B681B6A4F
:105970009A4206D1FB6803F470127B685B6A9A4214
:1059800001D0012300E0002318461837BD4680BD32
:105990000010024080B584B000AF786039607B6849
:1059A000002B01D10123D0E06A4B1B6803F00703F1
:1059B0003A689A4210D9674B1B6823F00702654981
:1059C0003B6813430B60634B1B6803F007033A68A3
:1059D0009A4201D00123B8E07B681B6803F0020300
:1059E000002B20D07B681B6803F00403002B05D03C
:1059F000594B5B68584A43F4E06353607B681B680B
:105A000003F00803002B05D0534B5B68524A43F464
:105A100060535360504B5B6823F0F0027B689B68D7
:105A20004D4913434B607B681B6803F00103002B57
:105A300040D07B685B68012B07D1474B1B6803F4A0
:105A40000033002B15D101237FE07B685B68022BBC
:105A500007D1414B1B6803F00073002B09D10123D0
:105A600073E03D4B1B6803F00203002B01D10123BF
:105A70006BE0394B5B6823F003027B685B68364957
:105A800013434B60FDF7D2FEF8600AE0FDF7CEFE4F
:105A90000246FB68D31A41F28832934201D90323AC
:105AA00053E02D4B5B6803F00C027B685B689B0046
:105AB0009A42EBD1274B1B6803F007033A689A42DE
:105AC00010D2244B1B6823F0070222493B68134382
:105AD0000B60204B1B6803F007033A689A4201D021
